ARM GAS  C:\Users\mattma1\AppData\Local\Temp\ccUnGUsl.s 			page 1


   1              		.syntax unified
   2              		.cpu cortex-m3
   3              		.fpu softvfp
   4              		.eabi_attribute 20, 1
   5              		.eabi_attribute 21, 1
   6              		.eabi_attribute 23, 3
   7              		.eabi_attribute 24, 1
   8              		.eabi_attribute 25, 1
   9              		.eabi_attribute 26, 1
  10              		.eabi_attribute 30, 6
  11              		.eabi_attribute 34, 1
  12              		.eabi_attribute 18, 4
  13              		.thumb
  14              		.syntax unified
  15              		.file	"CyLib.c"
  16              		.text
  17              	.Ltext0:
  18              		.cfi_sections	.debug_frame
  19              		.global	CyResetStatus
  20              		.section	.noinit,"aw",%progbits
  21              		.type	CyResetStatus, %object
  22              		.size	CyResetStatus, 1
  23              	CyResetStatus:
  24 0000 00       		.space	1
  25              		.global	cydelay_freq_hz
  26              		.data
  27              		.align	2
  28              		.type	cydelay_freq_hz, %object
  29              		.size	cydelay_freq_hz, 4
  30              	cydelay_freq_hz:
  31 0000 00366E01 		.word	24000000
  32              		.global	cydelay_freq_khz
  33              		.align	2
  34              		.type	cydelay_freq_khz, %object
  35              		.size	cydelay_freq_khz, 4
  36              	cydelay_freq_khz:
  37 0004 C05D0000 		.word	24000
  38              		.global	cydelay_freq_mhz
  39              		.type	cydelay_freq_mhz, %object
  40              		.size	cydelay_freq_mhz, 1
  41              	cydelay_freq_mhz:
  42 0008 18       		.byte	24
  43              		.global	cydelay_32k_ms
  44 0009 000000   		.align	2
  45              		.type	cydelay_32k_ms, %object
  46              		.size	cydelay_32k_ms, 4
  47              	cydelay_32k_ms:
  48 000c 0000E02E 		.word	786432000
  49              		.bss
  50              		.align	2
  51              	CySysTickCallbacks:
  52 0000 00000000 		.space	20
  52      00000000 
  52      00000000 
  52      00000000 
  52      00000000 
  53              		.global	CySysTickInitVar
ARM GAS  C:\Users\mattma1\AppData\Local\Temp\ccUnGUsl.s 			page 2


  54              		.align	2
  55              		.type	CySysTickInitVar, %object
  56              		.size	CySysTickInitVar, 4
  57              	CySysTickInitVar:
  58 0014 00000000 		.space	4
  59              		.section	.text.CyPLL_OUT_Start,"ax",%progbits
  60              		.align	2
  61              		.global	CyPLL_OUT_Start
  62              		.thumb
  63              		.thumb_func
  64              		.type	CyPLL_OUT_Start, %function
  65              	CyPLL_OUT_Start:
  66              	.LFB0:
  67              		.file 1 "Generated_Source\\PSoC5\\CyLib.c"
   1:Generated_Source\PSoC5/CyLib.c **** /***************************************************************************//**
   2:Generated_Source\PSoC5/CyLib.c **** * \file CyLib.c
   3:Generated_Source\PSoC5/CyLib.c **** * \version 5.70
   4:Generated_Source\PSoC5/CyLib.c **** *
   5:Generated_Source\PSoC5/CyLib.c **** * \brief Provides a system API for the clocking, interrupts and watchdog timer.
   6:Generated_Source\PSoC5/CyLib.c **** *
   7:Generated_Source\PSoC5/CyLib.c **** * \note Documentation of the API's in this file is located in the System
   8:Generated_Source\PSoC5/CyLib.c **** * Reference Guide provided with PSoC Creator.
   9:Generated_Source\PSoC5/CyLib.c **** *
  10:Generated_Source\PSoC5/CyLib.c **** ********************************************************************************
  11:Generated_Source\PSoC5/CyLib.c **** * \copyright
  12:Generated_Source\PSoC5/CyLib.c **** * Copyright 2008-2018, Cypress Semiconductor Corporation.  All rights reserved.
  13:Generated_Source\PSoC5/CyLib.c **** * You may use this file only in accordance with the license, terms, conditions,
  14:Generated_Source\PSoC5/CyLib.c **** * disclaimers, and limitations in the end user license agreement accompanying
  15:Generated_Source\PSoC5/CyLib.c **** * the software package with which this file was provided.
  16:Generated_Source\PSoC5/CyLib.c **** *******************************************************************************/
  17:Generated_Source\PSoC5/CyLib.c **** 
  18:Generated_Source\PSoC5/CyLib.c **** #include "CyLib.h"
  19:Generated_Source\PSoC5/CyLib.c **** 
  20:Generated_Source\PSoC5/CyLib.c **** 
  21:Generated_Source\PSoC5/CyLib.c **** /*******************************************************************************
  22:Generated_Source\PSoC5/CyLib.c **** * The CyResetStatus variable is used to obtain value of RESET_SR0 register after
  23:Generated_Source\PSoC5/CyLib.c **** * a device reset. It is set from initialize_psoc() at the early initialization
  24:Generated_Source\PSoC5/CyLib.c **** * stage. In case of IAR EW IDE, initialize_psoc() is executed before the data
  25:Generated_Source\PSoC5/CyLib.c **** * sections are initialized. To avoid zeroing, CyResetStatus should be placed
  26:Generated_Source\PSoC5/CyLib.c **** * to the .noinit section.
  27:Generated_Source\PSoC5/CyLib.c **** *******************************************************************************/
  28:Generated_Source\PSoC5/CyLib.c **** CY_NOINIT uint8 CYXDATA CyResetStatus;
  29:Generated_Source\PSoC5/CyLib.c **** 
  30:Generated_Source\PSoC5/CyLib.c **** 
  31:Generated_Source\PSoC5/CyLib.c **** /* Variable Vdda */
  32:Generated_Source\PSoC5/CyLib.c **** #if(CYDEV_VARIABLE_VDDA == 1)
  33:Generated_Source\PSoC5/CyLib.c **** 
  34:Generated_Source\PSoC5/CyLib.c ****     uint8 CyScPumpEnabled = (uint8)(CYDEV_VDDA_MV < 2700);
  35:Generated_Source\PSoC5/CyLib.c **** 
  36:Generated_Source\PSoC5/CyLib.c **** #endif  /* (CYDEV_VARIABLE_VDDA == 1) */
  37:Generated_Source\PSoC5/CyLib.c **** 
  38:Generated_Source\PSoC5/CyLib.c **** 
  39:Generated_Source\PSoC5/CyLib.c **** /* Do not use these definitions directly in your application */
  40:Generated_Source\PSoC5/CyLib.c **** uint32 cydelay_freq_hz  = BCLK__BUS_CLK__HZ;
  41:Generated_Source\PSoC5/CyLib.c **** uint32 cydelay_freq_khz = (BCLK__BUS_CLK__HZ + 999u) / 1000u;
  42:Generated_Source\PSoC5/CyLib.c **** uint8  cydelay_freq_mhz = (uint8)((BCLK__BUS_CLK__HZ + 999999u) / 1000000u);
  43:Generated_Source\PSoC5/CyLib.c **** uint32 cydelay_32k_ms   = 32768u * ((BCLK__BUS_CLK__HZ + 999u) / 1000u);
ARM GAS  C:\Users\mattma1\AppData\Local\Temp\ccUnGUsl.s 			page 3


  44:Generated_Source\PSoC5/CyLib.c **** 
  45:Generated_Source\PSoC5/CyLib.c **** 
  46:Generated_Source\PSoC5/CyLib.c **** /* Function Prototypes */
  47:Generated_Source\PSoC5/CyLib.c **** static uint8 CyUSB_PowerOnCheck(void)  ;
  48:Generated_Source\PSoC5/CyLib.c **** static void CyIMO_SetTrimValue(uint8 freq) ;
  49:Generated_Source\PSoC5/CyLib.c **** static void CyBusClk_Internal_SetDivider(uint16 divider);
  50:Generated_Source\PSoC5/CyLib.c **** 
  51:Generated_Source\PSoC5/CyLib.c **** #if(CY_PSOC5)
  52:Generated_Source\PSoC5/CyLib.c ****     static cySysTickCallback CySysTickCallbacks[CY_SYS_SYST_NUM_OF_CALLBACKS];
  53:Generated_Source\PSoC5/CyLib.c ****     static void CySysTickServiceCallbacks(void);
  54:Generated_Source\PSoC5/CyLib.c ****     uint32 CySysTickInitVar = 0u;
  55:Generated_Source\PSoC5/CyLib.c **** #endif  /* (CY_PSOC5) */
  56:Generated_Source\PSoC5/CyLib.c **** 
  57:Generated_Source\PSoC5/CyLib.c **** 
  58:Generated_Source\PSoC5/CyLib.c **** #if(CY_PSOC3)
  59:Generated_Source\PSoC5/CyLib.c ****     CY_ISR_PROTO(IntDefaultHandler);
  60:Generated_Source\PSoC5/CyLib.c **** #endif /* (CY_PSOC3) */
  61:Generated_Source\PSoC5/CyLib.c **** 
  62:Generated_Source\PSoC5/CyLib.c **** 
  63:Generated_Source\PSoC5/CyLib.c **** /*******************************************************************************
  64:Generated_Source\PSoC5/CyLib.c **** * Function Name: CyPLL_OUT_Start
  65:Generated_Source\PSoC5/CyLib.c **** ****************************************************************************//**
  66:Generated_Source\PSoC5/CyLib.c **** *
  67:Generated_Source\PSoC5/CyLib.c **** *   Enables the PLL.  Optionally waits for it to become stable.
  68:Generated_Source\PSoC5/CyLib.c **** *   Waits at least 250 us or until it is detected that the PLL is stable.
  69:Generated_Source\PSoC5/CyLib.c **** *
  70:Generated_Source\PSoC5/CyLib.c **** *   \param wait:
  71:Generated_Source\PSoC5/CyLib.c **** *    \param 0: Return immediately after configuration
  72:Generated_Source\PSoC5/CyLib.c **** *    \param 1: Wait for PLL lock or timeout.
  73:Generated_Source\PSoC5/CyLib.c **** *
  74:Generated_Source\PSoC5/CyLib.c **** * \return
  75:Generated_Source\PSoC5/CyLib.c **** *   Status
  76:Generated_Source\PSoC5/CyLib.c **** *    CYRET_SUCCESS - Completed successfully
  77:Generated_Source\PSoC5/CyLib.c **** *    CYRET_TIMEOUT - Timeout occurred without detecting a stable clock.
  78:Generated_Source\PSoC5/CyLib.c **** *     If the input source of the clock is jittery, then the lock indication
  79:Generated_Source\PSoC5/CyLib.c **** *     may not occur.  However, after the timeout has expired the generated PLL
  80:Generated_Source\PSoC5/CyLib.c **** *     clock can still be used.
  81:Generated_Source\PSoC5/CyLib.c **** *
  82:Generated_Source\PSoC5/CyLib.c **** * \sideeffect
  83:Generated_Source\PSoC5/CyLib.c **** *  If wait is enabled: This function uses the Fast Time Wheel to time the wait.
  84:Generated_Source\PSoC5/CyLib.c **** *  Any other use of the Fast Time Wheel will be stopped during the period of
  85:Generated_Source\PSoC5/CyLib.c **** *  this function and then restored. This function also uses the 100 KHz ILO.
  86:Generated_Source\PSoC5/CyLib.c **** *  If not enabled, this function will enable the 100 KHz ILO for the period of
  87:Generated_Source\PSoC5/CyLib.c **** *  this function.
  88:Generated_Source\PSoC5/CyLib.c **** *
  89:Generated_Source\PSoC5/CyLib.c **** *  No changes to the setup of the ILO, Fast Time Wheel, Central Time Wheel or
  90:Generated_Source\PSoC5/CyLib.c **** *  Once Per Second interrupt may be made by interrupt routines during the period
  91:Generated_Source\PSoC5/CyLib.c **** *  of this function execution. The current operation of the ILO, Central Time
  92:Generated_Source\PSoC5/CyLib.c **** *  Wheel and Once Per Second interrupt are maintained during the operation of
  93:Generated_Source\PSoC5/CyLib.c **** *  this function provided the reading of the Power Manager Interrupt Status
  94:Generated_Source\PSoC5/CyLib.c **** *  Register is only done using the CyPmReadStatus() function.
  95:Generated_Source\PSoC5/CyLib.c **** *
  96:Generated_Source\PSoC5/CyLib.c **** *******************************************************************************/
  97:Generated_Source\PSoC5/CyLib.c **** cystatus CyPLL_OUT_Start(uint8 wait) 
  98:Generated_Source\PSoC5/CyLib.c **** {
  68              		.loc 1 98 0
  69              		.cfi_startproc
ARM GAS  C:\Users\mattma1\AppData\Local\Temp\ccUnGUsl.s 			page 4


  70              		@ args = 0, pretend = 0, frame = 16
  71              		@ frame_needed = 1, uses_anonymous_args = 0
  72 0000 80B5     		push	{r7, lr}
  73              		.cfi_def_cfa_offset 8
  74              		.cfi_offset 7, -8
  75              		.cfi_offset 14, -4
  76 0002 84B0     		sub	sp, sp, #16
  77              		.cfi_def_cfa_offset 24
  78 0004 00AF     		add	r7, sp, #0
  79              		.cfi_def_cfa_register 7
  80 0006 0346     		mov	r3, r0
  81 0008 FB71     		strb	r3, [r7, #7]
  99:Generated_Source\PSoC5/CyLib.c ****     cystatus status = CYRET_SUCCESS;
  82              		.loc 1 99 0
  83 000a 0023     		movs	r3, #0
  84 000c FB60     		str	r3, [r7, #12]
 100:Generated_Source\PSoC5/CyLib.c **** 
 101:Generated_Source\PSoC5/CyLib.c ****     uint8 iloEnableState;
 102:Generated_Source\PSoC5/CyLib.c ****     uint8 pmTwCfg0State;
 103:Generated_Source\PSoC5/CyLib.c ****     uint8 pmTwCfg2State;
 104:Generated_Source\PSoC5/CyLib.c **** 
 105:Generated_Source\PSoC5/CyLib.c **** 
 106:Generated_Source\PSoC5/CyLib.c ****     /* Enables PLL circuit  */
 107:Generated_Source\PSoC5/CyLib.c ****     CY_CLK_PLL_CFG0_REG |= CY_CLK_PLL_ENABLE;
  85              		.loc 1 107 0
  86 000e 234A     		ldr	r2, .L8
  87 0010 224B     		ldr	r3, .L8
  88 0012 1B78     		ldrb	r3, [r3]
  89 0014 DBB2     		uxtb	r3, r3
  90 0016 43F00103 		orr	r3, r3, #1
  91 001a DBB2     		uxtb	r3, r3
  92 001c 1370     		strb	r3, [r2]
 108:Generated_Source\PSoC5/CyLib.c **** 
 109:Generated_Source\PSoC5/CyLib.c ****     if(wait != 0u)
  93              		.loc 1 109 0
  94 001e FB79     		ldrb	r3, [r7, #7]	@ zero_extendqisi2
  95 0020 002B     		cmp	r3, #0
  96 0022 36D0     		beq	.L2
 110:Generated_Source\PSoC5/CyLib.c ****     {
 111:Generated_Source\PSoC5/CyLib.c ****         /* Save 100 KHz ILO, FTW interval, enable and interrupt enable */
 112:Generated_Source\PSoC5/CyLib.c ****         iloEnableState = CY_LIB_SLOWCLK_ILO_CR0_REG & CY_LIB_SLOWCLK_ILO_CR0_EN_100KHZ;
  97              		.loc 1 112 0
  98 0024 1E4B     		ldr	r3, .L8+4
  99 0026 1B78     		ldrb	r3, [r3]
 100 0028 DBB2     		uxtb	r3, r3
 101 002a 03F00403 		and	r3, r3, #4
 102 002e FB72     		strb	r3, [r7, #11]
 113:Generated_Source\PSoC5/CyLib.c ****         pmTwCfg0State = CY_LIB_PM_TW_CFG0_REG;
 103              		.loc 1 113 0
 104 0030 1C4B     		ldr	r3, .L8+8
 105 0032 1B78     		ldrb	r3, [r3]
 106 0034 BB72     		strb	r3, [r7, #10]
 114:Generated_Source\PSoC5/CyLib.c ****         pmTwCfg2State = CY_LIB_PM_TW_CFG2_REG;
 107              		.loc 1 114 0
 108 0036 1C4B     		ldr	r3, .L8+12
 109 0038 1B78     		ldrb	r3, [r3]
 110 003a 7B72     		strb	r3, [r7, #9]
ARM GAS  C:\Users\mattma1\AppData\Local\Temp\ccUnGUsl.s 			page 5


 115:Generated_Source\PSoC5/CyLib.c **** 
 116:Generated_Source\PSoC5/CyLib.c ****         CyPmFtwSetInterval(CY_CLK_PLL_FTW_INTERVAL);
 111              		.loc 1 116 0
 112 003c 1820     		movs	r0, #24
 113 003e FFF7FEFF 		bl	CyPmFtwSetInterval
 117:Generated_Source\PSoC5/CyLib.c **** 
 118:Generated_Source\PSoC5/CyLib.c ****         status = CYRET_TIMEOUT;
 114              		.loc 1 118 0
 115 0042 1023     		movs	r3, #16
 116 0044 FB60     		str	r3, [r7, #12]
 119:Generated_Source\PSoC5/CyLib.c **** 
 120:Generated_Source\PSoC5/CyLib.c ****         while(0u == (CY_PM_FTW_INT & CyPmReadStatus(CY_PM_FTW_INT)))
 117              		.loc 1 120 0
 118 0046 10E0     		b	.L3
 119              	.L5:
 121:Generated_Source\PSoC5/CyLib.c ****         {
 122:Generated_Source\PSoC5/CyLib.c ****             /* Wait for interrupt status */
 123:Generated_Source\PSoC5/CyLib.c ****             if(0u != (CY_CLK_PLL_SR_REG & CY_CLK_PLL_LOCK_STATUS))
 120              		.loc 1 123 0
 121 0048 184B     		ldr	r3, .L8+16
 122 004a 1B78     		ldrb	r3, [r3]
 123 004c DBB2     		uxtb	r3, r3
 124 004e 03F00103 		and	r3, r3, #1
 125 0052 002B     		cmp	r3, #0
 126 0054 09D0     		beq	.L3
 124:Generated_Source\PSoC5/CyLib.c ****             {
 125:Generated_Source\PSoC5/CyLib.c ****                 if(0u != (CY_CLK_PLL_SR_REG & CY_CLK_PLL_LOCK_STATUS))
 127              		.loc 1 125 0
 128 0056 154B     		ldr	r3, .L8+16
 129 0058 1B78     		ldrb	r3, [r3]
 130 005a DBB2     		uxtb	r3, r3
 131 005c 03F00103 		and	r3, r3, #1
 132 0060 002B     		cmp	r3, #0
 133 0062 02D0     		beq	.L3
 126:Generated_Source\PSoC5/CyLib.c ****                 {
 127:Generated_Source\PSoC5/CyLib.c ****                     status = CYRET_SUCCESS;
 134              		.loc 1 127 0
 135 0064 0023     		movs	r3, #0
 136 0066 FB60     		str	r3, [r7, #12]
 128:Generated_Source\PSoC5/CyLib.c ****                     break;
 137              		.loc 1 128 0
 138 0068 08E0     		b	.L4
 139              	.L3:
 120:Generated_Source\PSoC5/CyLib.c ****         {
 140              		.loc 1 120 0
 141 006a 0120     		movs	r0, #1
 142 006c FFF7FEFF 		bl	CyPmReadStatus
 143 0070 0346     		mov	r3, r0
 144 0072 03F00103 		and	r3, r3, #1
 145 0076 DBB2     		uxtb	r3, r3
 146 0078 002B     		cmp	r3, #0
 147 007a E5D0     		beq	.L5
 148              	.L4:
 129:Generated_Source\PSoC5/CyLib.c ****                 }
 130:Generated_Source\PSoC5/CyLib.c ****             }
 131:Generated_Source\PSoC5/CyLib.c ****         }
 132:Generated_Source\PSoC5/CyLib.c **** 
ARM GAS  C:\Users\mattma1\AppData\Local\Temp\ccUnGUsl.s 			page 6


 133:Generated_Source\PSoC5/CyLib.c ****         /* Restore 100 KHz ILO, FTW interval, enable and interrupt enable */
 134:Generated_Source\PSoC5/CyLib.c ****         if(0u == iloEnableState)
 149              		.loc 1 134 0
 150 007c FB7A     		ldrb	r3, [r7, #11]	@ zero_extendqisi2
 151 007e 002B     		cmp	r3, #0
 152 0080 01D1     		bne	.L6
 135:Generated_Source\PSoC5/CyLib.c ****         {
 136:Generated_Source\PSoC5/CyLib.c ****             CyILO_Stop100K();
 153              		.loc 1 136 0
 154 0082 FFF7FEFF 		bl	CyILO_Stop100K
 155              	.L6:
 137:Generated_Source\PSoC5/CyLib.c ****         }
 138:Generated_Source\PSoC5/CyLib.c **** 
 139:Generated_Source\PSoC5/CyLib.c ****         CY_LIB_PM_TW_CFG0_REG = pmTwCfg0State;
 156              		.loc 1 139 0
 157 0086 074A     		ldr	r2, .L8+8
 158 0088 BB7A     		ldrb	r3, [r7, #10]
 159 008a 1370     		strb	r3, [r2]
 140:Generated_Source\PSoC5/CyLib.c ****         CY_LIB_PM_TW_CFG2_REG = pmTwCfg2State;
 160              		.loc 1 140 0
 161 008c 064A     		ldr	r2, .L8+12
 162 008e 7B7A     		ldrb	r3, [r7, #9]
 163 0090 1370     		strb	r3, [r2]
 164              	.L2:
 141:Generated_Source\PSoC5/CyLib.c ****     }
 142:Generated_Source\PSoC5/CyLib.c **** 
 143:Generated_Source\PSoC5/CyLib.c ****     return(status);
 165              		.loc 1 143 0
 166 0092 FB68     		ldr	r3, [r7, #12]
 144:Generated_Source\PSoC5/CyLib.c **** }
 167              		.loc 1 144 0
 168 0094 1846     		mov	r0, r3
 169 0096 1037     		adds	r7, r7, #16
 170              		.cfi_def_cfa_offset 8
 171 0098 BD46     		mov	sp, r7
 172              		.cfi_def_cfa_register 13
 173              		@ sp needed
 174 009a 80BD     		pop	{r7, pc}
 175              	.L9:
 176              		.align	2
 177              	.L8:
 178 009c 20420040 		.word	1073758752
 179 00a0 00430040 		.word	1073758976
 180 00a4 80430040 		.word	1073759104
 181 00a8 82430040 		.word	1073759106
 182 00ac 25420040 		.word	1073758757
 183              		.cfi_endproc
 184              	.LFE0:
 185              		.size	CyPLL_OUT_Start, .-CyPLL_OUT_Start
 186              		.section	.text.CyPLL_OUT_Stop,"ax",%progbits
 187              		.align	2
 188              		.global	CyPLL_OUT_Stop
 189              		.thumb
 190              		.thumb_func
 191              		.type	CyPLL_OUT_Stop, %function
 192              	CyPLL_OUT_Stop:
 193              	.LFB1:
ARM GAS  C:\Users\mattma1\AppData\Local\Temp\ccUnGUsl.s 			page 7


 145:Generated_Source\PSoC5/CyLib.c **** 
 146:Generated_Source\PSoC5/CyLib.c **** 
 147:Generated_Source\PSoC5/CyLib.c **** /*******************************************************************************
 148:Generated_Source\PSoC5/CyLib.c **** * Function Name: CyPLL_OUT_Stop
 149:Generated_Source\PSoC5/CyLib.c **** ****************************************************************************//**
 150:Generated_Source\PSoC5/CyLib.c **** *
 151:Generated_Source\PSoC5/CyLib.c **** *  Disables the PLL.
 152:Generated_Source\PSoC5/CyLib.c **** *
 153:Generated_Source\PSoC5/CyLib.c **** *******************************************************************************/
 154:Generated_Source\PSoC5/CyLib.c **** void CyPLL_OUT_Stop(void) 
 155:Generated_Source\PSoC5/CyLib.c **** {
 194              		.loc 1 155 0
 195              		.cfi_startproc
 196              		@ args = 0, pretend = 0, frame = 0
 197              		@ frame_needed = 1, uses_anonymous_args = 0
 198              		@ link register save eliminated.
 199 0000 80B4     		push	{r7}
 200              		.cfi_def_cfa_offset 4
 201              		.cfi_offset 7, -4
 202 0002 00AF     		add	r7, sp, #0
 203              		.cfi_def_cfa_register 7
 156:Generated_Source\PSoC5/CyLib.c ****     CY_CLK_PLL_CFG0_REG &= ((uint8)(~CY_CLK_PLL_ENABLE));
 204              		.loc 1 156 0
 205 0004 054A     		ldr	r2, .L11
 206 0006 054B     		ldr	r3, .L11
 207 0008 1B78     		ldrb	r3, [r3]
 208 000a DBB2     		uxtb	r3, r3
 209 000c 23F00103 		bic	r3, r3, #1
 210 0010 DBB2     		uxtb	r3, r3
 211 0012 1370     		strb	r3, [r2]
 157:Generated_Source\PSoC5/CyLib.c **** }
 212              		.loc 1 157 0
 213 0014 00BF     		nop
 214 0016 BD46     		mov	sp, r7
 215              		.cfi_def_cfa_register 13
 216              		@ sp needed
 217 0018 80BC     		pop	{r7}
 218              		.cfi_restore 7
 219              		.cfi_def_cfa_offset 0
 220 001a 7047     		bx	lr
 221              	.L12:
 222              		.align	2
 223              	.L11:
 224 001c 20420040 		.word	1073758752
 225              		.cfi_endproc
 226              	.LFE1:
 227              		.size	CyPLL_OUT_Stop, .-CyPLL_OUT_Stop
 228              		.section	.text.CyPLL_OUT_SetPQ,"ax",%progbits
 229              		.align	2
 230              		.global	CyPLL_OUT_SetPQ
 231              		.thumb
 232              		.thumb_func
 233              		.type	CyPLL_OUT_SetPQ, %function
 234              	CyPLL_OUT_SetPQ:
 235              	.LFB2:
 158:Generated_Source\PSoC5/CyLib.c **** 
 159:Generated_Source\PSoC5/CyLib.c **** 
ARM GAS  C:\Users\mattma1\AppData\Local\Temp\ccUnGUsl.s 			page 8


 160:Generated_Source\PSoC5/CyLib.c **** /*******************************************************************************
 161:Generated_Source\PSoC5/CyLib.c **** * Function Name: CyPLL_OUT_SetPQ
 162:Generated_Source\PSoC5/CyLib.c **** ****************************************************************************//**
 163:Generated_Source\PSoC5/CyLib.c **** *
 164:Generated_Source\PSoC5/CyLib.c **** *  Sets the P and Q dividers and the charge pump current.
 165:Generated_Source\PSoC5/CyLib.c **** *  The Frequency Out will be P/Q * Frequency In.
 166:Generated_Source\PSoC5/CyLib.c **** *  The PLL must be disabled before calling this function.
 167:Generated_Source\PSoC5/CyLib.c **** *
 168:Generated_Source\PSoC5/CyLib.c **** *  \param uint8 pDiv:
 169:Generated_Source\PSoC5/CyLib.c **** *   Valid range [8 - 255].
 170:Generated_Source\PSoC5/CyLib.c **** *
 171:Generated_Source\PSoC5/CyLib.c **** *  \param uint8 qDiv:
 172:Generated_Source\PSoC5/CyLib.c **** *   Valid range [1 - 16]. Input Frequency / Q must be in range of 1 to 3 MHz.
 173:Generated_Source\PSoC5/CyLib.c **** 
 174:Generated_Source\PSoC5/CyLib.c **** *  \param uint8 current:
 175:Generated_Source\PSoC5/CyLib.c **** *   Valid range [1 - 7]. Charge pump current in uA. Refer to the device TRM and
 176:Generated_Source\PSoC5/CyLib.c **** *   datasheet for more information.
 177:Generated_Source\PSoC5/CyLib.c **** *
 178:Generated_Source\PSoC5/CyLib.c **** * \sideeffect
 179:Generated_Source\PSoC5/CyLib.c **** *  If this function execution results in the CPU clock frequency increasing,
 180:Generated_Source\PSoC5/CyLib.c **** *  then the number of clock cycles the cache will wait before it samples data
 181:Generated_Source\PSoC5/CyLib.c **** *  coming back from the Flash must be adjusted by calling
 182:Generated_Source\PSoC5/CyLib.c **** *  CyFlash_SetWaitCycles() with an appropriate parameter. It can be optionally
 183:Generated_Source\PSoC5/CyLib.c **** *  called if the CPU clock frequency is lowered in order to improve the CPU
 184:Generated_Source\PSoC5/CyLib.c **** *  performance. See CyFlash_SetWaitCycles() description for more information.
 185:Generated_Source\PSoC5/CyLib.c **** *
 186:Generated_Source\PSoC5/CyLib.c **** *******************************************************************************/
 187:Generated_Source\PSoC5/CyLib.c **** void CyPLL_OUT_SetPQ(uint8 pDiv, uint8 qDiv, uint8 current) 
 188:Generated_Source\PSoC5/CyLib.c **** {
 236              		.loc 1 188 0
 237              		.cfi_startproc
 238              		@ args = 0, pretend = 0, frame = 8
 239              		@ frame_needed = 1, uses_anonymous_args = 0
 240 0000 80B5     		push	{r7, lr}
 241              		.cfi_def_cfa_offset 8
 242              		.cfi_offset 7, -8
 243              		.cfi_offset 14, -4
 244 0002 82B0     		sub	sp, sp, #8
 245              		.cfi_def_cfa_offset 16
 246 0004 00AF     		add	r7, sp, #0
 247              		.cfi_def_cfa_register 7
 248 0006 0346     		mov	r3, r0
 249 0008 FB71     		strb	r3, [r7, #7]
 250 000a 0B46     		mov	r3, r1
 251 000c BB71     		strb	r3, [r7, #6]
 252 000e 1346     		mov	r3, r2
 253 0010 7B71     		strb	r3, [r7, #5]
 189:Generated_Source\PSoC5/CyLib.c ****     /* Halt CPU in debug mode if PLL is enabled */
 190:Generated_Source\PSoC5/CyLib.c ****     CYASSERT(0u == (CY_CLK_PLL_CFG0_REG & CY_CLK_PLL_ENABLE));
 254              		.loc 1 190 0
 255 0012 1C4B     		ldr	r3, .L17
 256 0014 1B78     		ldrb	r3, [r3]
 257 0016 DBB2     		uxtb	r3, r3
 258 0018 03F00103 		and	r3, r3, #1
 259 001c 002B     		cmp	r3, #0
 260 001e 02D0     		beq	.L14
 261              		.loc 1 190 0 is_stmt 0 discriminator 1
ARM GAS  C:\Users\mattma1\AppData\Local\Temp\ccUnGUsl.s 			page 9


 262 0020 0020     		movs	r0, #0
 263 0022 FFF7FEFF 		bl	CyHalt
 264              	.L14:
 191:Generated_Source\PSoC5/CyLib.c **** 
 192:Generated_Source\PSoC5/CyLib.c ****     if((pDiv    >= CY_CLK_PLL_MIN_P_VALUE  ) &&
 265              		.loc 1 192 0 is_stmt 1
 266 0026 FB79     		ldrb	r3, [r7, #7]	@ zero_extendqisi2
 267 0028 072B     		cmp	r3, #7
 268 002a 23D9     		bls	.L15
 269              		.loc 1 192 0 is_stmt 0 discriminator 1
 270 002c BB79     		ldrb	r3, [r7, #6]	@ zero_extendqisi2
 271 002e 102B     		cmp	r3, #16
 272 0030 20D8     		bhi	.L15
 193:Generated_Source\PSoC5/CyLib.c ****        (qDiv    <= CY_CLK_PLL_MAX_Q_VALUE  ) && (qDiv    >= CY_CLK_PLL_MIN_Q_VALUE  ) &&
 273              		.loc 1 193 0 is_stmt 1
 274 0032 BB79     		ldrb	r3, [r7, #6]	@ zero_extendqisi2
 275 0034 002B     		cmp	r3, #0
 276 0036 1DD0     		beq	.L15
 277              		.loc 1 193 0 is_stmt 0 discriminator 1
 278 0038 7B79     		ldrb	r3, [r7, #5]	@ zero_extendqisi2
 279 003a 002B     		cmp	r3, #0
 280 003c 1AD0     		beq	.L15
 194:Generated_Source\PSoC5/CyLib.c ****        (current >= CY_CLK_PLL_MIN_CUR_VALUE) && (current <= CY_CLK_PLL_MAX_CUR_VALUE))
 281              		.loc 1 194 0 is_stmt 1
 282 003e 7B79     		ldrb	r3, [r7, #5]	@ zero_extendqisi2
 283 0040 072B     		cmp	r3, #7
 284 0042 17D8     		bhi	.L15
 195:Generated_Source\PSoC5/CyLib.c ****     {
 196:Generated_Source\PSoC5/CyLib.c ****         /* Set new values */
 197:Generated_Source\PSoC5/CyLib.c ****         CY_CLK_PLL_P_REG = pDiv;
 285              		.loc 1 197 0
 286 0044 104A     		ldr	r2, .L17+4
 287 0046 FB79     		ldrb	r3, [r7, #7]
 288 0048 1370     		strb	r3, [r2]
 198:Generated_Source\PSoC5/CyLib.c ****         CY_CLK_PLL_Q_REG = ((uint8)(qDiv - 1u));
 289              		.loc 1 198 0
 290 004a 104A     		ldr	r2, .L17+8
 291 004c BB79     		ldrb	r3, [r7, #6]
 292 004e 013B     		subs	r3, r3, #1
 293 0050 DBB2     		uxtb	r3, r3
 294 0052 1370     		strb	r3, [r2]
 199:Generated_Source\PSoC5/CyLib.c ****         CY_CLK_PLL_CFG1_REG = (CY_CLK_PLL_CFG1_REG & CY_CLK_PLL_CURRENT_MASK) |
 295              		.loc 1 199 0
 296 0054 0E49     		ldr	r1, .L17+12
 297 0056 0E4B     		ldr	r3, .L17+12
 298 0058 1B78     		ldrb	r3, [r3]
 299 005a DBB2     		uxtb	r3, r3
 300 005c 23F07003 		bic	r3, r3, #112
 301 0060 DAB2     		uxtb	r2, r3
 200:Generated_Source\PSoC5/CyLib.c ****                                 ((uint8)(((uint8)(current - 1u)) << CY_CLK_PLL_CURRENT_POSITION));
 302              		.loc 1 200 0
 303 0062 7B79     		ldrb	r3, [r7, #5]
 304 0064 013B     		subs	r3, r3, #1
 305 0066 DBB2     		uxtb	r3, r3
 306 0068 1B01     		lsls	r3, r3, #4
 307 006a DBB2     		uxtb	r3, r3
 199:Generated_Source\PSoC5/CyLib.c ****         CY_CLK_PLL_CFG1_REG = (CY_CLK_PLL_CFG1_REG & CY_CLK_PLL_CURRENT_MASK) |
ARM GAS  C:\Users\mattma1\AppData\Local\Temp\ccUnGUsl.s 			page 10


 308              		.loc 1 199 0
 309 006c 1343     		orrs	r3, r3, r2
 310 006e DBB2     		uxtb	r3, r3
 311 0070 0B70     		strb	r3, [r1]
 312 0072 02E0     		b	.L16
 313              	.L15:
 201:Generated_Source\PSoC5/CyLib.c ****     }
 202:Generated_Source\PSoC5/CyLib.c ****     else
 203:Generated_Source\PSoC5/CyLib.c ****     {
 204:Generated_Source\PSoC5/CyLib.c ****         /***********************************************************************
 205:Generated_Source\PSoC5/CyLib.c ****         * Halt CPU in debug mode if:
 206:Generated_Source\PSoC5/CyLib.c ****         * - P divider is less than required
 207:Generated_Source\PSoC5/CyLib.c ****         * - Q divider is out of range
 208:Generated_Source\PSoC5/CyLib.c ****         * - pump current is out of range
 209:Generated_Source\PSoC5/CyLib.c ****         ***********************************************************************/
 210:Generated_Source\PSoC5/CyLib.c ****         CYASSERT(0u != 0u);
 314              		.loc 1 210 0 discriminator 1
 315 0074 0020     		movs	r0, #0
 316 0076 FFF7FEFF 		bl	CyHalt
 317              	.L16:
 211:Generated_Source\PSoC5/CyLib.c ****     }
 212:Generated_Source\PSoC5/CyLib.c **** 
 213:Generated_Source\PSoC5/CyLib.c **** }
 318              		.loc 1 213 0
 319 007a 00BF     		nop
 320 007c 0837     		adds	r7, r7, #8
 321              		.cfi_def_cfa_offset 8
 322 007e BD46     		mov	sp, r7
 323              		.cfi_def_cfa_register 13
 324              		@ sp needed
 325 0080 80BD     		pop	{r7, pc}
 326              	.L18:
 327 0082 00BF     		.align	2
 328              	.L17:
 329 0084 20420040 		.word	1073758752
 330 0088 22420040 		.word	1073758754
 331 008c 23420040 		.word	1073758755
 332 0090 21420040 		.word	1073758753
 333              		.cfi_endproc
 334              	.LFE2:
 335              		.size	CyPLL_OUT_SetPQ, .-CyPLL_OUT_SetPQ
 336              		.section	.text.CyPLL_OUT_SetSource,"ax",%progbits
 337              		.align	2
 338              		.global	CyPLL_OUT_SetSource
 339              		.thumb
 340              		.thumb_func
 341              		.type	CyPLL_OUT_SetSource, %function
 342              	CyPLL_OUT_SetSource:
 343              	.LFB3:
 214:Generated_Source\PSoC5/CyLib.c **** 
 215:Generated_Source\PSoC5/CyLib.c **** 
 216:Generated_Source\PSoC5/CyLib.c **** /*******************************************************************************
 217:Generated_Source\PSoC5/CyLib.c **** * Function Name: CyPLL_OUT_SetSource
 218:Generated_Source\PSoC5/CyLib.c **** ****************************************************************************//**
 219:Generated_Source\PSoC5/CyLib.c **** *
 220:Generated_Source\PSoC5/CyLib.c **** *  Sets the input clock source to the PLL. The PLL must be disabled before
 221:Generated_Source\PSoC5/CyLib.c **** *  calling this function.
ARM GAS  C:\Users\mattma1\AppData\Local\Temp\ccUnGUsl.s 			page 11


 222:Generated_Source\PSoC5/CyLib.c **** *
 223:Generated_Source\PSoC5/CyLib.c **** *   \param source: One of the three available PLL clock sources
 224:Generated_Source\PSoC5/CyLib.c **** *    \param CY_PLL_SOURCE_IMO  :   IMO
 225:Generated_Source\PSoC5/CyLib.c **** *    \param CY_PLL_SOURCE_XTAL :   MHz Crystal
 226:Generated_Source\PSoC5/CyLib.c **** *    \param CY_PLL_SOURCE_DSI  :   DSI
 227:Generated_Source\PSoC5/CyLib.c **** *
 228:Generated_Source\PSoC5/CyLib.c **** * \sideeffect
 229:Generated_Source\PSoC5/CyLib.c **** *  If this function execution results in the CPU clock frequency increasing,
 230:Generated_Source\PSoC5/CyLib.c **** *  then the number of clock cycles the cache will wait before it samples data
 231:Generated_Source\PSoC5/CyLib.c **** *  coming back from the3 Flash must be adjusted by calling
 232:Generated_Source\PSoC5/CyLib.c **** *  CyFlash_SetWaitCycles() with an appropriate parameter. It can be optionally
 233:Generated_Source\PSoC5/CyLib.c **** *  called if the CPU clock frequency is lowered in order to improve the CPU
 234:Generated_Source\PSoC5/CyLib.c **** *  performance. See CyFlash_SetWaitCycles() description for more information.
 235:Generated_Source\PSoC5/CyLib.c **** *
 236:Generated_Source\PSoC5/CyLib.c **** *******************************************************************************/
 237:Generated_Source\PSoC5/CyLib.c **** void CyPLL_OUT_SetSource(uint8 source) 
 238:Generated_Source\PSoC5/CyLib.c **** {
 344              		.loc 1 238 0
 345              		.cfi_startproc
 346              		@ args = 0, pretend = 0, frame = 8
 347              		@ frame_needed = 1, uses_anonymous_args = 0
 348 0000 80B5     		push	{r7, lr}
 349              		.cfi_def_cfa_offset 8
 350              		.cfi_offset 7, -8
 351              		.cfi_offset 14, -4
 352 0002 82B0     		sub	sp, sp, #8
 353              		.cfi_def_cfa_offset 16
 354 0004 00AF     		add	r7, sp, #0
 355              		.cfi_def_cfa_register 7
 356 0006 0346     		mov	r3, r0
 357 0008 FB71     		strb	r3, [r7, #7]
 239:Generated_Source\PSoC5/CyLib.c ****     /* Halt CPU in debug mode if PLL is enabled */
 240:Generated_Source\PSoC5/CyLib.c ****     CYASSERT(0u == (CY_CLK_PLL_CFG0_REG & CY_CLK_PLL_ENABLE));
 358              		.loc 1 240 0
 359 000a 124B     		ldr	r3, .L24
 360 000c 1B78     		ldrb	r3, [r3]
 361 000e DBB2     		uxtb	r3, r3
 362 0010 03F00103 		and	r3, r3, #1
 363 0014 002B     		cmp	r3, #0
 364 0016 02D0     		beq	.L20
 365              		.loc 1 240 0 is_stmt 0 discriminator 1
 366 0018 0020     		movs	r0, #0
 367 001a FFF7FEFF 		bl	CyHalt
 368              	.L20:
 241:Generated_Source\PSoC5/CyLib.c **** 
 242:Generated_Source\PSoC5/CyLib.c ****     switch(source)
 369              		.loc 1 242 0 is_stmt 1
 370 001e FB79     		ldrb	r3, [r7, #7]	@ zero_extendqisi2
 371 0020 0033     		adds	r3, r3, #0
 372 0022 022B     		cmp	r3, #2
 373 0024 0DD8     		bhi	.L21
 243:Generated_Source\PSoC5/CyLib.c ****     {
 244:Generated_Source\PSoC5/CyLib.c ****         case CY_PLL_SOURCE_IMO:
 245:Generated_Source\PSoC5/CyLib.c ****         case CY_PLL_SOURCE_XTAL:
 246:Generated_Source\PSoC5/CyLib.c ****         case CY_PLL_SOURCE_DSI:
 247:Generated_Source\PSoC5/CyLib.c ****             CY_LIB_CLKDIST_CR_REG = ((CY_LIB_CLKDIST_CR_REG & CY_LIB_CLKDIST_CR_PLL_SCR_MASK) | sou
 374              		.loc 1 247 0
ARM GAS  C:\Users\mattma1\AppData\Local\Temp\ccUnGUsl.s 			page 12


 375 0026 4FF04021 		mov	r1, #1073758208
 376 002a 4FF04023 		mov	r3, #1073758208
 377 002e 1B78     		ldrb	r3, [r3]
 378 0030 DBB2     		uxtb	r3, r3
 379 0032 23F00303 		bic	r3, r3, #3
 380 0036 DAB2     		uxtb	r2, r3
 381 0038 FB79     		ldrb	r3, [r7, #7]
 382 003a 1343     		orrs	r3, r3, r2
 383 003c DBB2     		uxtb	r3, r3
 384 003e 0B70     		strb	r3, [r1]
 248:Generated_Source\PSoC5/CyLib.c ****         break;
 385              		.loc 1 248 0
 386 0040 03E0     		b	.L23
 387              	.L21:
 249:Generated_Source\PSoC5/CyLib.c **** 
 250:Generated_Source\PSoC5/CyLib.c ****         default:
 251:Generated_Source\PSoC5/CyLib.c ****             CYASSERT(0u != 0u);
 388              		.loc 1 251 0
 389 0042 0020     		movs	r0, #0
 390 0044 FFF7FEFF 		bl	CyHalt
 252:Generated_Source\PSoC5/CyLib.c ****         break;
 391              		.loc 1 252 0
 392 0048 00BF     		nop
 393              	.L23:
 253:Generated_Source\PSoC5/CyLib.c ****     }
 254:Generated_Source\PSoC5/CyLib.c **** }
 394              		.loc 1 254 0
 395 004a 00BF     		nop
 396 004c 0837     		adds	r7, r7, #8
 397              		.cfi_def_cfa_offset 8
 398 004e BD46     		mov	sp, r7
 399              		.cfi_def_cfa_register 13
 400              		@ sp needed
 401 0050 80BD     		pop	{r7, pc}
 402              	.L25:
 403 0052 00BF     		.align	2
 404              	.L24:
 405 0054 20420040 		.word	1073758752
 406              		.cfi_endproc
 407              	.LFE3:
 408              		.size	CyPLL_OUT_SetSource, .-CyPLL_OUT_SetSource
 409              		.section	.text.CyIMO_Start,"ax",%progbits
 410              		.align	2
 411              		.global	CyIMO_Start
 412              		.thumb
 413              		.thumb_func
 414              		.type	CyIMO_Start, %function
 415              	CyIMO_Start:
 416              	.LFB4:
 255:Generated_Source\PSoC5/CyLib.c **** 
 256:Generated_Source\PSoC5/CyLib.c **** 
 257:Generated_Source\PSoC5/CyLib.c **** /*******************************************************************************
 258:Generated_Source\PSoC5/CyLib.c **** * Function Name: CyIMO_Start
 259:Generated_Source\PSoC5/CyLib.c **** ****************************************************************************//**
 260:Generated_Source\PSoC5/CyLib.c **** *
 261:Generated_Source\PSoC5/CyLib.c **** *  Enables the IMO. Optionally waits at least 6 us for it to settle.
 262:Generated_Source\PSoC5/CyLib.c **** *
ARM GAS  C:\Users\mattma1\AppData\Local\Temp\ccUnGUsl.s 			page 13


 263:Generated_Source\PSoC5/CyLib.c **** *  \param uint8 wait:
 264:Generated_Source\PSoC5/CyLib.c **** *   \param 0: Return immediately after configuration
 265:Generated_Source\PSoC5/CyLib.c **** *   \param 1: Wait for at least 6 us for the IMO to settle.
 266:Generated_Source\PSoC5/CyLib.c **** *
 267:Generated_Source\PSoC5/CyLib.c **** * \sideeffect
 268:Generated_Source\PSoC5/CyLib.c **** *  If wait is enabled: This function uses the Fast Time Wheel to time the wait.
 269:Generated_Source\PSoC5/CyLib.c **** *  Any other use of the Fast Time Wheel will be stopped during the period of
 270:Generated_Source\PSoC5/CyLib.c **** *  this function and then restored. This function also uses the 100 KHz ILO.
 271:Generated_Source\PSoC5/CyLib.c **** *  If not enabled, this function will enable the 100 KHz ILO for the period of
 272:Generated_Source\PSoC5/CyLib.c **** *  this function.
 273:Generated_Source\PSoC5/CyLib.c **** *
 274:Generated_Source\PSoC5/CyLib.c **** *  No changes to the setup of the ILO, Fast Time Wheel, Central Time Wheel or
 275:Generated_Source\PSoC5/CyLib.c **** *  Once Per Second interrupt may be made by interrupt routines during the period
 276:Generated_Source\PSoC5/CyLib.c **** *  of this function execution. The current operation of the ILO, Central Time
 277:Generated_Source\PSoC5/CyLib.c **** *  Wheel and Once Per Second interrupt are maintained during the operation of
 278:Generated_Source\PSoC5/CyLib.c **** *  this function provided the reading of the Power Manager Interrupt Status
 279:Generated_Source\PSoC5/CyLib.c **** *  Register is only done using the CyPmReadStatus() function.
 280:Generated_Source\PSoC5/CyLib.c **** *
 281:Generated_Source\PSoC5/CyLib.c **** *******************************************************************************/
 282:Generated_Source\PSoC5/CyLib.c **** void CyIMO_Start(uint8 wait) 
 283:Generated_Source\PSoC5/CyLib.c **** {
 417              		.loc 1 283 0
 418              		.cfi_startproc
 419              		@ args = 0, pretend = 0, frame = 16
 420              		@ frame_needed = 1, uses_anonymous_args = 0
 421 0000 80B5     		push	{r7, lr}
 422              		.cfi_def_cfa_offset 8
 423              		.cfi_offset 7, -8
 424              		.cfi_offset 14, -4
 425 0002 84B0     		sub	sp, sp, #16
 426              		.cfi_def_cfa_offset 24
 427 0004 00AF     		add	r7, sp, #0
 428              		.cfi_def_cfa_register 7
 429 0006 0346     		mov	r3, r0
 430 0008 FB71     		strb	r3, [r7, #7]
 284:Generated_Source\PSoC5/CyLib.c ****     uint8 pmFtwCfg2Reg;
 285:Generated_Source\PSoC5/CyLib.c ****     uint8 pmFtwCfg0Reg;
 286:Generated_Source\PSoC5/CyLib.c ****     uint8 ilo100KhzEnable;
 287:Generated_Source\PSoC5/CyLib.c **** 
 288:Generated_Source\PSoC5/CyLib.c **** 
 289:Generated_Source\PSoC5/CyLib.c ****     CY_LIB_PM_ACT_CFG0_REG  |= CY_LIB_PM_ACT_CFG0_IMO_EN;
 431              		.loc 1 289 0
 432 000a 1D4A     		ldr	r2, .L31
 433 000c 1C4B     		ldr	r3, .L31
 434 000e 1B78     		ldrb	r3, [r3]
 435 0010 DBB2     		uxtb	r3, r3
 436 0012 43F01003 		orr	r3, r3, #16
 437 0016 DBB2     		uxtb	r3, r3
 438 0018 1370     		strb	r3, [r2]
 290:Generated_Source\PSoC5/CyLib.c ****     CY_LIB_PM_STBY_CFG0_REG |= CY_LIB_PM_STBY_CFG0_IMO_EN;
 439              		.loc 1 290 0
 440 001a 1A4A     		ldr	r2, .L31+4
 441 001c 194B     		ldr	r3, .L31+4
 442 001e 1B78     		ldrb	r3, [r3]
 443 0020 DBB2     		uxtb	r3, r3
 444 0022 43F01003 		orr	r3, r3, #16
 445 0026 DBB2     		uxtb	r3, r3
ARM GAS  C:\Users\mattma1\AppData\Local\Temp\ccUnGUsl.s 			page 14


 446 0028 1370     		strb	r3, [r2]
 291:Generated_Source\PSoC5/CyLib.c **** 
 292:Generated_Source\PSoC5/CyLib.c ****     if(0u != wait)
 447              		.loc 1 292 0
 448 002a FB79     		ldrb	r3, [r7, #7]	@ zero_extendqisi2
 449 002c 002B     		cmp	r3, #0
 450 002e 23D0     		beq	.L30
 293:Generated_Source\PSoC5/CyLib.c ****     {
 294:Generated_Source\PSoC5/CyLib.c ****         /* Need to turn on 100KHz ILO if it happens to not already be running.*/
 295:Generated_Source\PSoC5/CyLib.c ****         ilo100KhzEnable = CY_LIB_SLOWCLK_ILO_CR0_REG & CY_LIB_SLOWCLK_ILO_CR0_EN_100KHZ;
 451              		.loc 1 295 0
 452 0030 154B     		ldr	r3, .L31+8
 453 0032 1B78     		ldrb	r3, [r3]
 454 0034 DBB2     		uxtb	r3, r3
 455 0036 03F00403 		and	r3, r3, #4
 456 003a FB73     		strb	r3, [r7, #15]
 296:Generated_Source\PSoC5/CyLib.c ****         pmFtwCfg0Reg = CY_LIB_PM_TW_CFG0_REG;
 457              		.loc 1 296 0
 458 003c 134B     		ldr	r3, .L31+12
 459 003e 1B78     		ldrb	r3, [r3]
 460 0040 BB73     		strb	r3, [r7, #14]
 297:Generated_Source\PSoC5/CyLib.c ****         pmFtwCfg2Reg = CY_LIB_PM_TW_CFG2_REG;
 461              		.loc 1 297 0
 462 0042 134B     		ldr	r3, .L31+16
 463 0044 1B78     		ldrb	r3, [r3]
 464 0046 7B73     		strb	r3, [r7, #13]
 298:Generated_Source\PSoC5/CyLib.c **** 
 299:Generated_Source\PSoC5/CyLib.c ****         CyPmFtwSetInterval(CY_LIB_CLK_IMO_FTW_TIMEOUT);
 465              		.loc 1 299 0
 466 0048 0020     		movs	r0, #0
 467 004a FFF7FEFF 		bl	CyPmFtwSetInterval
 300:Generated_Source\PSoC5/CyLib.c **** 
 301:Generated_Source\PSoC5/CyLib.c ****         while (0u == (CY_PM_FTW_INT & CyPmReadStatus(CY_PM_FTW_INT)))
 468              		.loc 1 301 0
 469 004e 00BF     		nop
 470              	.L28:
 471              		.loc 1 301 0 is_stmt 0 discriminator 1
 472 0050 0120     		movs	r0, #1
 473 0052 FFF7FEFF 		bl	CyPmReadStatus
 474 0056 0346     		mov	r3, r0
 475 0058 03F00103 		and	r3, r3, #1
 476 005c DBB2     		uxtb	r3, r3
 477 005e 002B     		cmp	r3, #0
 478 0060 F6D0     		beq	.L28
 302:Generated_Source\PSoC5/CyLib.c ****         {
 303:Generated_Source\PSoC5/CyLib.c ****             /* Wait for interrupt status */
 304:Generated_Source\PSoC5/CyLib.c ****         }
 305:Generated_Source\PSoC5/CyLib.c **** 
 306:Generated_Source\PSoC5/CyLib.c ****         if(0u == ilo100KhzEnable)
 479              		.loc 1 306 0 is_stmt 1
 480 0062 FB7B     		ldrb	r3, [r7, #15]	@ zero_extendqisi2
 481 0064 002B     		cmp	r3, #0
 482 0066 01D1     		bne	.L29
 307:Generated_Source\PSoC5/CyLib.c ****         {
 308:Generated_Source\PSoC5/CyLib.c ****             CyILO_Stop100K();
 483              		.loc 1 308 0
 484 0068 FFF7FEFF 		bl	CyILO_Stop100K
ARM GAS  C:\Users\mattma1\AppData\Local\Temp\ccUnGUsl.s 			page 15


 485              	.L29:
 309:Generated_Source\PSoC5/CyLib.c ****         }
 310:Generated_Source\PSoC5/CyLib.c **** 
 311:Generated_Source\PSoC5/CyLib.c ****         CY_LIB_PM_TW_CFG0_REG = pmFtwCfg0Reg;
 486              		.loc 1 311 0
 487 006c 074A     		ldr	r2, .L31+12
 488 006e BB7B     		ldrb	r3, [r7, #14]
 489 0070 1370     		strb	r3, [r2]
 312:Generated_Source\PSoC5/CyLib.c ****         CY_LIB_PM_TW_CFG2_REG = pmFtwCfg2Reg;
 490              		.loc 1 312 0
 491 0072 074A     		ldr	r2, .L31+16
 492 0074 7B7B     		ldrb	r3, [r7, #13]
 493 0076 1370     		strb	r3, [r2]
 494              	.L30:
 313:Generated_Source\PSoC5/CyLib.c ****     }
 314:Generated_Source\PSoC5/CyLib.c **** }
 495              		.loc 1 314 0
 496 0078 00BF     		nop
 497 007a 1037     		adds	r7, r7, #16
 498              		.cfi_def_cfa_offset 8
 499 007c BD46     		mov	sp, r7
 500              		.cfi_def_cfa_register 13
 501              		@ sp needed
 502 007e 80BD     		pop	{r7, pc}
 503              	.L32:
 504              		.align	2
 505              	.L31:
 506 0080 A0430040 		.word	1073759136
 507 0084 B0430040 		.word	1073759152
 508 0088 00430040 		.word	1073758976
 509 008c 80430040 		.word	1073759104
 510 0090 82430040 		.word	1073759106
 511              		.cfi_endproc
 512              	.LFE4:
 513              		.size	CyIMO_Start, .-CyIMO_Start
 514              		.section	.text.CyIMO_Stop,"ax",%progbits
 515              		.align	2
 516              		.global	CyIMO_Stop
 517              		.thumb
 518              		.thumb_func
 519              		.type	CyIMO_Stop, %function
 520              	CyIMO_Stop:
 521              	.LFB5:
 315:Generated_Source\PSoC5/CyLib.c **** 
 316:Generated_Source\PSoC5/CyLib.c **** 
 317:Generated_Source\PSoC5/CyLib.c **** /*******************************************************************************
 318:Generated_Source\PSoC5/CyLib.c **** * Function Name: CyIMO_Stop
 319:Generated_Source\PSoC5/CyLib.c **** ****************************************************************************//**
 320:Generated_Source\PSoC5/CyLib.c **** *
 321:Generated_Source\PSoC5/CyLib.c **** *   Disables the IMO.
 322:Generated_Source\PSoC5/CyLib.c **** *
 323:Generated_Source\PSoC5/CyLib.c **** *******************************************************************************/
 324:Generated_Source\PSoC5/CyLib.c **** void CyIMO_Stop(void) 
 325:Generated_Source\PSoC5/CyLib.c **** {
 522              		.loc 1 325 0
 523              		.cfi_startproc
 524              		@ args = 0, pretend = 0, frame = 0
ARM GAS  C:\Users\mattma1\AppData\Local\Temp\ccUnGUsl.s 			page 16


 525              		@ frame_needed = 1, uses_anonymous_args = 0
 526              		@ link register save eliminated.
 527 0000 80B4     		push	{r7}
 528              		.cfi_def_cfa_offset 4
 529              		.cfi_offset 7, -4
 530 0002 00AF     		add	r7, sp, #0
 531              		.cfi_def_cfa_register 7
 326:Generated_Source\PSoC5/CyLib.c ****     CY_LIB_PM_ACT_CFG0_REG  &= ((uint8) (~CY_LIB_PM_ACT_CFG0_IMO_EN));
 532              		.loc 1 326 0
 533 0004 094A     		ldr	r2, .L34
 534 0006 094B     		ldr	r3, .L34
 535 0008 1B78     		ldrb	r3, [r3]
 536 000a DBB2     		uxtb	r3, r3
 537 000c 23F01003 		bic	r3, r3, #16
 538 0010 DBB2     		uxtb	r3, r3
 539 0012 1370     		strb	r3, [r2]
 327:Generated_Source\PSoC5/CyLib.c ****     CY_LIB_PM_STBY_CFG0_REG &= ((uint8) (~CY_LIB_PM_STBY_CFG0_IMO_EN));
 540              		.loc 1 327 0
 541 0014 064A     		ldr	r2, .L34+4
 542 0016 064B     		ldr	r3, .L34+4
 543 0018 1B78     		ldrb	r3, [r3]
 544 001a DBB2     		uxtb	r3, r3
 545 001c 23F01003 		bic	r3, r3, #16
 546 0020 DBB2     		uxtb	r3, r3
 547 0022 1370     		strb	r3, [r2]
 328:Generated_Source\PSoC5/CyLib.c **** }
 548              		.loc 1 328 0
 549 0024 00BF     		nop
 550 0026 BD46     		mov	sp, r7
 551              		.cfi_def_cfa_register 13
 552              		@ sp needed
 553 0028 80BC     		pop	{r7}
 554              		.cfi_restore 7
 555              		.cfi_def_cfa_offset 0
 556 002a 7047     		bx	lr
 557              	.L35:
 558              		.align	2
 559              	.L34:
 560 002c A0430040 		.word	1073759136
 561 0030 B0430040 		.word	1073759152
 562              		.cfi_endproc
 563              	.LFE5:
 564              		.size	CyIMO_Stop, .-CyIMO_Stop
 565              		.section	.text.CyUSB_PowerOnCheck,"ax",%progbits
 566              		.align	2
 567              		.thumb
 568              		.thumb_func
 569              		.type	CyUSB_PowerOnCheck, %function
 570              	CyUSB_PowerOnCheck:
 571              	.LFB6:
 329:Generated_Source\PSoC5/CyLib.c **** 
 330:Generated_Source\PSoC5/CyLib.c **** 
 331:Generated_Source\PSoC5/CyLib.c **** /*******************************************************************************
 332:Generated_Source\PSoC5/CyLib.c **** * Function Name: CyUSB_PowerOnCheck
 333:Generated_Source\PSoC5/CyLib.c **** ****************************************************************************//**
 334:Generated_Source\PSoC5/CyLib.c **** *
 335:Generated_Source\PSoC5/CyLib.c **** *  Returns the USB power status value. A private function to cy_boot.
ARM GAS  C:\Users\mattma1\AppData\Local\Temp\ccUnGUsl.s 			page 17


 336:Generated_Source\PSoC5/CyLib.c **** *
 337:Generated_Source\PSoC5/CyLib.c **** * \return
 338:Generated_Source\PSoC5/CyLib.c **** *   uint8: one if the USB is enabled, 0 if not enabled.
 339:Generated_Source\PSoC5/CyLib.c **** *
 340:Generated_Source\PSoC5/CyLib.c **** *******************************************************************************/
 341:Generated_Source\PSoC5/CyLib.c **** static uint8 CyUSB_PowerOnCheck(void)  
 342:Generated_Source\PSoC5/CyLib.c **** {
 572              		.loc 1 342 0
 573              		.cfi_startproc
 574              		@ args = 0, pretend = 0, frame = 8
 575              		@ frame_needed = 1, uses_anonymous_args = 0
 576              		@ link register save eliminated.
 577 0000 80B4     		push	{r7}
 578              		.cfi_def_cfa_offset 4
 579              		.cfi_offset 7, -4
 580 0002 83B0     		sub	sp, sp, #12
 581              		.cfi_def_cfa_offset 16
 582 0004 00AF     		add	r7, sp, #0
 583              		.cfi_def_cfa_register 7
 343:Generated_Source\PSoC5/CyLib.c ****     uint8 poweredOn = 0u;
 584              		.loc 1 343 0
 585 0006 0023     		movs	r3, #0
 586 0008 FB71     		strb	r3, [r7, #7]
 344:Generated_Source\PSoC5/CyLib.c **** 
 345:Generated_Source\PSoC5/CyLib.c ****     /* Check whether device is in Active or AltActive and if USB is powered on */
 346:Generated_Source\PSoC5/CyLib.c ****     if((((CY_PM_MODE_CSR_REG & CY_PM_MODE_CSR_MASK) == CY_PM_MODE_CSR_ACTIVE ) &&
 587              		.loc 1 346 0
 588 000a 124B     		ldr	r3, .L41
 589 000c 1B78     		ldrb	r3, [r3]
 590 000e DBB2     		uxtb	r3, r3
 591 0010 03F00703 		and	r3, r3, #7
 592 0014 002B     		cmp	r3, #0
 593 0016 06D1     		bne	.L37
 347:Generated_Source\PSoC5/CyLib.c ****        (0u != (CY_LIB_PM_ACT_CFG5_REG & CY_ACT_USB_ENABLED     )))  ||
 594              		.loc 1 347 0 discriminator 1
 595 0018 0F4B     		ldr	r3, .L41+4
 596 001a 1B78     		ldrb	r3, [r3]
 597 001c DBB2     		uxtb	r3, r3
 598 001e 03F00103 		and	r3, r3, #1
 346:Generated_Source\PSoC5/CyLib.c ****        (0u != (CY_LIB_PM_ACT_CFG5_REG & CY_ACT_USB_ENABLED     )))  ||
 599              		.loc 1 346 0 discriminator 1
 600 0022 002B     		cmp	r3, #0
 601 0024 0DD1     		bne	.L38
 602              	.L37:
 348:Generated_Source\PSoC5/CyLib.c ****        (((CY_PM_MODE_CSR_REG & CY_PM_MODE_CSR_MASK) == CY_PM_MODE_CSR_ALT_ACT) &&
 603              		.loc 1 348 0
 604 0026 0B4B     		ldr	r3, .L41
 605 0028 1B78     		ldrb	r3, [r3]
 606 002a DBB2     		uxtb	r3, r3
 607 002c 03F00703 		and	r3, r3, #7
 347:Generated_Source\PSoC5/CyLib.c ****        (0u != (CY_LIB_PM_ACT_CFG5_REG & CY_ACT_USB_ENABLED     )))  ||
 608              		.loc 1 347 0
 609 0030 012B     		cmp	r3, #1
 610 0032 08D1     		bne	.L39
 349:Generated_Source\PSoC5/CyLib.c ****        (0u != (CY_LIB_PM_STBY_CFG5_REG & CY_ALT_ACT_USB_ENABLED))))
 611              		.loc 1 349 0
 612 0034 094B     		ldr	r3, .L41+8
ARM GAS  C:\Users\mattma1\AppData\Local\Temp\ccUnGUsl.s 			page 18


 613 0036 1B78     		ldrb	r3, [r3]
 614 0038 DBB2     		uxtb	r3, r3
 615 003a 03F00103 		and	r3, r3, #1
 348:Generated_Source\PSoC5/CyLib.c ****        (((CY_PM_MODE_CSR_REG & CY_PM_MODE_CSR_MASK) == CY_PM_MODE_CSR_ALT_ACT) &&
 616              		.loc 1 348 0
 617 003e 002B     		cmp	r3, #0
 618 0040 01D0     		beq	.L39
 619              	.L38:
 350:Generated_Source\PSoC5/CyLib.c ****     {
 351:Generated_Source\PSoC5/CyLib.c ****         poweredOn = 1u;
 620              		.loc 1 351 0
 621 0042 0123     		movs	r3, #1
 622 0044 FB71     		strb	r3, [r7, #7]
 623              	.L39:
 352:Generated_Source\PSoC5/CyLib.c ****     }
 353:Generated_Source\PSoC5/CyLib.c **** 
 354:Generated_Source\PSoC5/CyLib.c ****     return (poweredOn);
 624              		.loc 1 354 0
 625 0046 FB79     		ldrb	r3, [r7, #7]	@ zero_extendqisi2
 355:Generated_Source\PSoC5/CyLib.c **** }
 626              		.loc 1 355 0
 627 0048 1846     		mov	r0, r3
 628 004a 0C37     		adds	r7, r7, #12
 629              		.cfi_def_cfa_offset 4
 630 004c BD46     		mov	sp, r7
 631              		.cfi_def_cfa_register 13
 632              		@ sp needed
 633 004e 80BC     		pop	{r7}
 634              		.cfi_restore 7
 635              		.cfi_def_cfa_offset 0
 636 0050 7047     		bx	lr
 637              	.L42:
 638 0052 00BF     		.align	2
 639              	.L41:
 640 0054 93430040 		.word	1073759123
 641 0058 A5430040 		.word	1073759141
 642 005c B5430040 		.word	1073759157
 643              		.cfi_endproc
 644              	.LFE6:
 645              		.size	CyUSB_PowerOnCheck, .-CyUSB_PowerOnCheck
 646              		.section	.text.CyIMO_SetTrimValue,"ax",%progbits
 647              		.align	2
 648              		.thumb
 649              		.thumb_func
 650              		.type	CyIMO_SetTrimValue, %function
 651              	CyIMO_SetTrimValue:
 652              	.LFB7:
 356:Generated_Source\PSoC5/CyLib.c **** 
 357:Generated_Source\PSoC5/CyLib.c **** 
 358:Generated_Source\PSoC5/CyLib.c **** /*******************************************************************************
 359:Generated_Source\PSoC5/CyLib.c **** * Function Name: CyIMO_SetTrimValue
 360:Generated_Source\PSoC5/CyLib.c **** ****************************************************************************//**
 361:Generated_Source\PSoC5/CyLib.c **** *
 362:Generated_Source\PSoC5/CyLib.c **** *  Sets the IMO factory trim values.
 363:Generated_Source\PSoC5/CyLib.c **** *
 364:Generated_Source\PSoC5/CyLib.c **** *  uint8 freq - frequency for which trims must be set
 365:Generated_Source\PSoC5/CyLib.c **** *
ARM GAS  C:\Users\mattma1\AppData\Local\Temp\ccUnGUsl.s 			page 19


 366:Generated_Source\PSoC5/CyLib.c **** *******************************************************************************/
 367:Generated_Source\PSoC5/CyLib.c **** static void CyIMO_SetTrimValue(uint8 freq) 
 368:Generated_Source\PSoC5/CyLib.c **** {
 653              		.loc 1 368 0
 654              		.cfi_startproc
 655              		@ args = 0, pretend = 0, frame = 16
 656              		@ frame_needed = 1, uses_anonymous_args = 0
 657 0000 80B5     		push	{r7, lr}
 658              		.cfi_def_cfa_offset 8
 659              		.cfi_offset 7, -8
 660              		.cfi_offset 14, -4
 661 0002 84B0     		sub	sp, sp, #16
 662              		.cfi_def_cfa_offset 24
 663 0004 00AF     		add	r7, sp, #0
 664              		.cfi_def_cfa_register 7
 665 0006 0346     		mov	r3, r0
 666 0008 FB71     		strb	r3, [r7, #7]
 369:Generated_Source\PSoC5/CyLib.c ****     uint8 usbPowerOn = CyUSB_PowerOnCheck();
 667              		.loc 1 369 0
 668 000a FFF7FEFF 		bl	CyUSB_PowerOnCheck
 669 000e 0346     		mov	r3, r0
 670 0010 FB73     		strb	r3, [r7, #15]
 370:Generated_Source\PSoC5/CyLib.c **** 
 371:Generated_Source\PSoC5/CyLib.c ****     /* If USB is powered */
 372:Generated_Source\PSoC5/CyLib.c ****     if(usbPowerOn == 1u)
 671              		.loc 1 372 0
 672 0012 FB7B     		ldrb	r3, [r7, #15]	@ zero_extendqisi2
 673 0014 012B     		cmp	r3, #1
 674 0016 07D1     		bne	.L44
 373:Generated_Source\PSoC5/CyLib.c ****     {
 374:Generated_Source\PSoC5/CyLib.c ****         /* Unlock USB write */
 375:Generated_Source\PSoC5/CyLib.c ****         CY_LIB_USB_CR1_REG &= ((uint8)(~CY_LIB_USB_CLK_EN));
 675              		.loc 1 375 0
 676 0018 314A     		ldr	r2, .L58
 677 001a 314B     		ldr	r3, .L58
 678 001c 1B78     		ldrb	r3, [r3]
 679 001e DBB2     		uxtb	r3, r3
 680 0020 23F00203 		bic	r3, r3, #2
 681 0024 DBB2     		uxtb	r3, r3
 682 0026 1370     		strb	r3, [r2]
 683              	.L44:
 376:Generated_Source\PSoC5/CyLib.c ****     }
 377:Generated_Source\PSoC5/CyLib.c ****     switch(freq)
 684              		.loc 1 377 0
 685 0028 FB79     		ldrb	r3, [r7, #7]	@ zero_extendqisi2
 686 002a 082B     		cmp	r3, #8
 687 002c 4FD8     		bhi	.L45
 688 002e 01A2     		adr	r2, .L47
 689 0030 52F823F0 		ldr	pc, [r2, r3, lsl #2]
 690              		.p2align 2
 691              	.L47:
 692 0034 59000000 		.word	.L46+1
 693 0038 65000000 		.word	.L48+1
 694 003c 71000000 		.word	.L49+1
 695 0040 7D000000 		.word	.L50+1
 696 0044 89000000 		.word	.L51+1
 697 0048 95000000 		.word	.L52+1
ARM GAS  C:\Users\mattma1\AppData\Local\Temp\ccUnGUsl.s 			page 20


 698 004c A1000000 		.word	.L53+1
 699 0050 CF000000 		.word	.L45+1
 700 0054 AD000000 		.word	.L54+1
 701              		.p2align 1
 702              	.L46:
 378:Generated_Source\PSoC5/CyLib.c ****     {
 379:Generated_Source\PSoC5/CyLib.c ****     case CY_IMO_FREQ_3MHZ:
 380:Generated_Source\PSoC5/CyLib.c ****         CY_LIB_IMO_TR1_REG = CY_GET_XTND_REG8(CY_LIB_TRIM_IMO_3MHZ_PTR);
 703              		.loc 1 380 0
 704 0058 224B     		ldr	r3, .L58+4
 705 005a 234A     		ldr	r2, .L58+8
 706 005c 1278     		ldrb	r2, [r2]
 707 005e D2B2     		uxtb	r2, r2
 708 0060 1A70     		strb	r2, [r3]
 381:Generated_Source\PSoC5/CyLib.c ****         break;
 709              		.loc 1 381 0
 710 0062 39E0     		b	.L55
 711              	.L48:
 382:Generated_Source\PSoC5/CyLib.c **** 
 383:Generated_Source\PSoC5/CyLib.c ****     case CY_IMO_FREQ_6MHZ:
 384:Generated_Source\PSoC5/CyLib.c ****         CY_LIB_IMO_TR1_REG = CY_GET_XTND_REG8(CY_LIB_TRIM_IMO_6MHZ_PTR);
 712              		.loc 1 384 0
 713 0064 1F4B     		ldr	r3, .L58+4
 714 0066 214A     		ldr	r2, .L58+12
 715 0068 1278     		ldrb	r2, [r2]
 716 006a D2B2     		uxtb	r2, r2
 717 006c 1A70     		strb	r2, [r3]
 385:Generated_Source\PSoC5/CyLib.c ****         break;
 718              		.loc 1 385 0
 719 006e 33E0     		b	.L55
 720              	.L49:
 386:Generated_Source\PSoC5/CyLib.c **** 
 387:Generated_Source\PSoC5/CyLib.c ****     case CY_IMO_FREQ_12MHZ:
 388:Generated_Source\PSoC5/CyLib.c ****         CY_LIB_IMO_TR1_REG = CY_GET_XTND_REG8(CY_LIB_TRIM_IMO_12MHZ_PTR);
 721              		.loc 1 388 0
 722 0070 1C4B     		ldr	r3, .L58+4
 723 0072 1F4A     		ldr	r2, .L58+16
 724 0074 1278     		ldrb	r2, [r2]
 725 0076 D2B2     		uxtb	r2, r2
 726 0078 1A70     		strb	r2, [r3]
 389:Generated_Source\PSoC5/CyLib.c ****         break;
 727              		.loc 1 389 0
 728 007a 2DE0     		b	.L55
 729              	.L50:
 390:Generated_Source\PSoC5/CyLib.c **** 
 391:Generated_Source\PSoC5/CyLib.c ****     case CY_IMO_FREQ_24MHZ:
 392:Generated_Source\PSoC5/CyLib.c ****         CY_LIB_IMO_TR1_REG = CY_GET_XTND_REG8(CY_LIB_TRIM_IMO_24MHZ_PTR);
 730              		.loc 1 392 0
 731 007c 194B     		ldr	r3, .L58+4
 732 007e 1D4A     		ldr	r2, .L58+20
 733 0080 1278     		ldrb	r2, [r2]
 734 0082 D2B2     		uxtb	r2, r2
 735 0084 1A70     		strb	r2, [r3]
 393:Generated_Source\PSoC5/CyLib.c ****         break;
 736              		.loc 1 393 0
 737 0086 27E0     		b	.L55
 738              	.L51:
ARM GAS  C:\Users\mattma1\AppData\Local\Temp\ccUnGUsl.s 			page 21


 394:Generated_Source\PSoC5/CyLib.c **** 
 395:Generated_Source\PSoC5/CyLib.c ****     case CY_IMO_FREQ_48MHZ:
 396:Generated_Source\PSoC5/CyLib.c ****         CY_LIB_IMO_TR1_REG = CY_GET_XTND_REG8(CY_LIB_TRIM_IMO_TR1_PTR);
 739              		.loc 1 396 0
 740 0088 164B     		ldr	r3, .L58+4
 741 008a 1B4A     		ldr	r2, .L58+24
 742 008c 1278     		ldrb	r2, [r2]
 743 008e D2B2     		uxtb	r2, r2
 744 0090 1A70     		strb	r2, [r3]
 397:Generated_Source\PSoC5/CyLib.c ****         break;
 745              		.loc 1 397 0
 746 0092 21E0     		b	.L55
 747              	.L52:
 398:Generated_Source\PSoC5/CyLib.c **** 
 399:Generated_Source\PSoC5/CyLib.c ****     case CY_IMO_FREQ_62MHZ:
 400:Generated_Source\PSoC5/CyLib.c ****         CY_LIB_IMO_TR1_REG = CY_GET_XTND_REG8(CY_LIB_TRIM_IMO_67MHZ_PTR);
 748              		.loc 1 400 0
 749 0094 134B     		ldr	r3, .L58+4
 750 0096 194A     		ldr	r2, .L58+28
 751 0098 1278     		ldrb	r2, [r2]
 752 009a D2B2     		uxtb	r2, r2
 753 009c 1A70     		strb	r2, [r3]
 401:Generated_Source\PSoC5/CyLib.c ****         break;
 754              		.loc 1 401 0
 755 009e 1BE0     		b	.L55
 756              	.L53:
 402:Generated_Source\PSoC5/CyLib.c **** 
 403:Generated_Source\PSoC5/CyLib.c **** #if(CY_PSOC5)
 404:Generated_Source\PSoC5/CyLib.c ****     case CY_IMO_FREQ_74MHZ:
 405:Generated_Source\PSoC5/CyLib.c ****         CY_LIB_IMO_TR1_REG = CY_GET_XTND_REG8(CY_LIB_TRIM_IMO_80MHZ_PTR);
 757              		.loc 1 405 0
 758 00a0 104B     		ldr	r3, .L58+4
 759 00a2 174A     		ldr	r2, .L58+32
 760 00a4 1278     		ldrb	r2, [r2]
 761 00a6 D2B2     		uxtb	r2, r2
 762 00a8 1A70     		strb	r2, [r3]
 406:Generated_Source\PSoC5/CyLib.c ****         break;
 763              		.loc 1 406 0
 764 00aa 15E0     		b	.L55
 765              	.L54:
 407:Generated_Source\PSoC5/CyLib.c **** #endif  /* (CY_PSOC5) */
 408:Generated_Source\PSoC5/CyLib.c **** 
 409:Generated_Source\PSoC5/CyLib.c ****     case CY_IMO_FREQ_USB:
 410:Generated_Source\PSoC5/CyLib.c ****         CY_LIB_IMO_TR1_REG = CY_GET_XTND_REG8(CY_LIB_TRIM_IMO_USB_PTR);
 766              		.loc 1 410 0
 767 00ac 0D4B     		ldr	r3, .L58+4
 768 00ae 154A     		ldr	r2, .L58+36
 769 00b0 1278     		ldrb	r2, [r2]
 770 00b2 D2B2     		uxtb	r2, r2
 771 00b4 1A70     		strb	r2, [r3]
 411:Generated_Source\PSoC5/CyLib.c **** 
 412:Generated_Source\PSoC5/CyLib.c ****         /* If USB is powered */
 413:Generated_Source\PSoC5/CyLib.c ****         if(usbPowerOn == 1u)
 772              		.loc 1 413 0
 773 00b6 FB7B     		ldrb	r3, [r7, #15]	@ zero_extendqisi2
 774 00b8 012B     		cmp	r3, #1
 775 00ba 0CD1     		bne	.L57
ARM GAS  C:\Users\mattma1\AppData\Local\Temp\ccUnGUsl.s 			page 22


 414:Generated_Source\PSoC5/CyLib.c ****         {
 415:Generated_Source\PSoC5/CyLib.c ****             /* Lock USB Oscillator */
 416:Generated_Source\PSoC5/CyLib.c ****             CY_LIB_USB_CR1_REG |= CY_LIB_USB_CLK_EN;
 776              		.loc 1 416 0
 777 00bc 084A     		ldr	r2, .L58
 778 00be 084B     		ldr	r3, .L58
 779 00c0 1B78     		ldrb	r3, [r3]
 780 00c2 DBB2     		uxtb	r3, r3
 781 00c4 43F00203 		orr	r3, r3, #2
 782 00c8 DBB2     		uxtb	r3, r3
 783 00ca 1370     		strb	r3, [r2]
 417:Generated_Source\PSoC5/CyLib.c ****         }
 418:Generated_Source\PSoC5/CyLib.c ****         break;
 784              		.loc 1 418 0
 785 00cc 03E0     		b	.L57
 786              	.L45:
 419:Generated_Source\PSoC5/CyLib.c **** 
 420:Generated_Source\PSoC5/CyLib.c ****     default:
 421:Generated_Source\PSoC5/CyLib.c ****             CYASSERT(0u != 0u);
 787              		.loc 1 421 0
 788 00ce 0020     		movs	r0, #0
 789 00d0 FFF7FEFF 		bl	CyHalt
 422:Generated_Source\PSoC5/CyLib.c ****         break;
 790              		.loc 1 422 0
 791 00d4 00E0     		b	.L55
 792              	.L57:
 418:Generated_Source\PSoC5/CyLib.c **** 
 793              		.loc 1 418 0
 794 00d6 00BF     		nop
 795              	.L55:
 423:Generated_Source\PSoC5/CyLib.c ****     }
 424:Generated_Source\PSoC5/CyLib.c **** 
 425:Generated_Source\PSoC5/CyLib.c **** }
 796              		.loc 1 425 0
 797 00d8 00BF     		nop
 798 00da 1037     		adds	r7, r7, #16
 799              		.cfi_def_cfa_offset 8
 800 00dc BD46     		mov	sp, r7
 801              		.cfi_def_cfa_register 13
 802              		@ sp needed
 803 00de 80BD     		pop	{r7, pc}
 804              	.L59:
 805              		.align	2
 806              	.L58:
 807 00e0 09600040 		.word	1073766409
 808 00e4 A1460040 		.word	1073759905
 809 00e8 08010049 		.word	1224737032
 810 00ec 09010049 		.word	1224737033
 811 00f0 0A010049 		.word	1224737034
 812 00f4 0B010049 		.word	1224737035
 813 00f8 89010049 		.word	1224737161
 814 00fc 0C010049 		.word	1224737036
 815 0100 0D010049 		.word	1224737037
 816 0104 0F010049 		.word	1224737039
 817              		.cfi_endproc
 818              	.LFE7:
 819              		.size	CyIMO_SetTrimValue, .-CyIMO_SetTrimValue
ARM GAS  C:\Users\mattma1\AppData\Local\Temp\ccUnGUsl.s 			page 23


 820              		.section	.text.CyIMO_SetFreq,"ax",%progbits
 821              		.align	2
 822              		.global	CyIMO_SetFreq
 823              		.thumb
 824              		.thumb_func
 825              		.type	CyIMO_SetFreq, %function
 826              	CyIMO_SetFreq:
 827              	.LFB8:
 426:Generated_Source\PSoC5/CyLib.c **** 
 427:Generated_Source\PSoC5/CyLib.c **** 
 428:Generated_Source\PSoC5/CyLib.c **** /*******************************************************************************
 429:Generated_Source\PSoC5/CyLib.c **** * Function Name: CyIMO_SetFreq
 430:Generated_Source\PSoC5/CyLib.c **** ****************************************************************************//**
 431:Generated_Source\PSoC5/CyLib.c **** *
 432:Generated_Source\PSoC5/CyLib.c **** *  Sets the frequency of the IMO. Changes may be made while the IMO is running.
 433:Generated_Source\PSoC5/CyLib.c **** *
 434:Generated_Source\PSoC5/CyLib.c **** *  \param freq: Frequency of IMO operation
 435:Generated_Source\PSoC5/CyLib.c **** *       CY_IMO_FREQ_3MHZ  to set  3   MHz
 436:Generated_Source\PSoC5/CyLib.c **** *       CY_IMO_FREQ_6MHZ  to set  6   MHz
 437:Generated_Source\PSoC5/CyLib.c **** *       CY_IMO_FREQ_12MHZ to set 12   MHz
 438:Generated_Source\PSoC5/CyLib.c **** *       CY_IMO_FREQ_24MHZ to set 24   MHz
 439:Generated_Source\PSoC5/CyLib.c **** *       CY_IMO_FREQ_48MHZ to set 48   MHz
 440:Generated_Source\PSoC5/CyLib.c **** *       CY_IMO_FREQ_62MHZ to set 62.6 MHz
 441:Generated_Source\PSoC5/CyLib.c **** *       CY_IMO_FREQ_74MHZ to set 74.7 MHz (not applicable for PSoC 3)
 442:Generated_Source\PSoC5/CyLib.c **** *       CY_IMO_FREQ_USB   to set 24   MHz (Trimmed for USB operation)
 443:Generated_Source\PSoC5/CyLib.c **** *
 444:Generated_Source\PSoC5/CyLib.c **** * \sideeffect
 445:Generated_Source\PSoC5/CyLib.c **** *  If this function execution results in the CPU clock frequency increasing,
 446:Generated_Source\PSoC5/CyLib.c **** *  then the number of clock cycles the cache will wait before it samples data
 447:Generated_Source\PSoC5/CyLib.c **** *  coming back from the Flash must be adjusted by calling
 448:Generated_Source\PSoC5/CyLib.c **** *  CyFlash_SetWaitCycles() with an appropriate parameter. It can be optionally
 449:Generated_Source\PSoC5/CyLib.c **** *  called if the CPU clock frequency is lowered in order to improve the CPU
 450:Generated_Source\PSoC5/CyLib.c **** *  performance. See CyFlash_SetWaitCycles() description for more information.
 451:Generated_Source\PSoC5/CyLib.c **** *
 452:Generated_Source\PSoC5/CyLib.c **** *  When the USB setting is chosen, the USB clock locking circuit is enabled.
 453:Generated_Source\PSoC5/CyLib.c **** *  Otherwise this circuit is disabled. The USB block must be powered before
 454:Generated_Source\PSoC5/CyLib.c **** *  selecting the USB setting.
 455:Generated_Source\PSoC5/CyLib.c **** *
 456:Generated_Source\PSoC5/CyLib.c **** *******************************************************************************/
 457:Generated_Source\PSoC5/CyLib.c **** void CyIMO_SetFreq(uint8 freq) 
 458:Generated_Source\PSoC5/CyLib.c **** {
 828              		.loc 1 458 0
 829              		.cfi_startproc
 830              		@ args = 0, pretend = 0, frame = 16
 831              		@ frame_needed = 1, uses_anonymous_args = 0
 832 0000 80B5     		push	{r7, lr}
 833              		.cfi_def_cfa_offset 8
 834              		.cfi_offset 7, -8
 835              		.cfi_offset 14, -4
 836 0002 84B0     		sub	sp, sp, #16
 837              		.cfi_def_cfa_offset 24
 838 0004 00AF     		add	r7, sp, #0
 839              		.cfi_def_cfa_register 7
 840 0006 0346     		mov	r3, r0
 841 0008 FB71     		strb	r3, [r7, #7]
 459:Generated_Source\PSoC5/CyLib.c ****     uint8 currentFreq;
 460:Generated_Source\PSoC5/CyLib.c ****     uint8 nextFreq;
ARM GAS  C:\Users\mattma1\AppData\Local\Temp\ccUnGUsl.s 			page 24


 461:Generated_Source\PSoC5/CyLib.c **** 
 462:Generated_Source\PSoC5/CyLib.c ****     /***************************************************************************
 463:Generated_Source\PSoC5/CyLib.c ****     * If the IMO frequency is changed,the Trim values must also be set
 464:Generated_Source\PSoC5/CyLib.c ****     * accordingly.This requires reading the current frequency. If the new
 465:Generated_Source\PSoC5/CyLib.c ****     * frequency is faster, then set a new trim and then change the frequency,
 466:Generated_Source\PSoC5/CyLib.c ****     * otherwise change the frequency and then set new trim values.
 467:Generated_Source\PSoC5/CyLib.c ****     ***************************************************************************/
 468:Generated_Source\PSoC5/CyLib.c **** 
 469:Generated_Source\PSoC5/CyLib.c ****     currentFreq = CY_LIB_FASTCLK_IMO_CR_REG & ((uint8)(~CY_LIB_FASTCLK_IMO_CR_RANGE_MASK));
 842              		.loc 1 469 0
 843 000a 684B     		ldr	r3, .L89
 844 000c 1B78     		ldrb	r3, [r3]
 845 000e DBB2     		uxtb	r3, r3
 846 0010 03F00703 		and	r3, r3, #7
 847 0014 FB73     		strb	r3, [r7, #15]
 470:Generated_Source\PSoC5/CyLib.c **** 
 471:Generated_Source\PSoC5/CyLib.c ****     /* Check if requested frequency is USB. */
 472:Generated_Source\PSoC5/CyLib.c ****     nextFreq = (freq == CY_IMO_FREQ_USB) ? CY_IMO_FREQ_24MHZ : freq;
 848              		.loc 1 472 0
 849 0016 FB79     		ldrb	r3, [r7, #7]	@ zero_extendqisi2
 850 0018 082B     		cmp	r3, #8
 851 001a 01D0     		beq	.L61
 852              		.loc 1 472 0 is_stmt 0 discriminator 1
 853 001c FB79     		ldrb	r3, [r7, #7]	@ zero_extendqisi2
 854 001e 00E0     		b	.L62
 855              	.L61:
 856              		.loc 1 472 0 discriminator 2
 857 0020 0323     		movs	r3, #3
 858              	.L62:
 859              		.loc 1 472 0 discriminator 4
 860 0022 BB73     		strb	r3, [r7, #14]
 473:Generated_Source\PSoC5/CyLib.c **** 
 474:Generated_Source\PSoC5/CyLib.c ****     switch (currentFreq)
 861              		.loc 1 474 0 is_stmt 1 discriminator 4
 862 0024 FB7B     		ldrb	r3, [r7, #15]	@ zero_extendqisi2
 863 0026 062B     		cmp	r3, #6
 864 0028 25D8     		bhi	.L63
 865 002a 01A2     		adr	r2, .L65
 866 002c 52F823F0 		ldr	pc, [r2, r3, lsl #2]
 867              		.p2align 2
 868              	.L65:
 869 0030 4D000000 		.word	.L64+1
 870 0034 53000000 		.word	.L66+1
 871 0038 59000000 		.word	.L67+1
 872 003c 5F000000 		.word	.L68+1
 873 0040 65000000 		.word	.L69+1
 874 0044 6B000000 		.word	.L70+1
 875 0048 71000000 		.word	.L71+1
 876              		.p2align 1
 877              	.L64:
 475:Generated_Source\PSoC5/CyLib.c ****     {
 476:Generated_Source\PSoC5/CyLib.c ****     case 0u:
 477:Generated_Source\PSoC5/CyLib.c ****         currentFreq = CY_IMO_FREQ_12MHZ;
 878              		.loc 1 477 0
 879 004c 0223     		movs	r3, #2
 880 004e FB73     		strb	r3, [r7, #15]
 478:Generated_Source\PSoC5/CyLib.c ****         break;
ARM GAS  C:\Users\mattma1\AppData\Local\Temp\ccUnGUsl.s 			page 25


 881              		.loc 1 478 0
 882 0050 15E0     		b	.L72
 883              	.L66:
 479:Generated_Source\PSoC5/CyLib.c **** 
 480:Generated_Source\PSoC5/CyLib.c ****     case 1u:
 481:Generated_Source\PSoC5/CyLib.c ****         currentFreq = CY_IMO_FREQ_6MHZ;
 884              		.loc 1 481 0
 885 0052 0123     		movs	r3, #1
 886 0054 FB73     		strb	r3, [r7, #15]
 482:Generated_Source\PSoC5/CyLib.c ****         break;
 887              		.loc 1 482 0
 888 0056 12E0     		b	.L72
 889              	.L67:
 483:Generated_Source\PSoC5/CyLib.c **** 
 484:Generated_Source\PSoC5/CyLib.c ****     case 2u:
 485:Generated_Source\PSoC5/CyLib.c ****         currentFreq = CY_IMO_FREQ_24MHZ;
 890              		.loc 1 485 0
 891 0058 0323     		movs	r3, #3
 892 005a FB73     		strb	r3, [r7, #15]
 486:Generated_Source\PSoC5/CyLib.c ****         break;
 893              		.loc 1 486 0
 894 005c 0FE0     		b	.L72
 895              	.L68:
 487:Generated_Source\PSoC5/CyLib.c **** 
 488:Generated_Source\PSoC5/CyLib.c ****     case 3u:
 489:Generated_Source\PSoC5/CyLib.c ****         currentFreq = CY_IMO_FREQ_3MHZ;
 896              		.loc 1 489 0
 897 005e 0023     		movs	r3, #0
 898 0060 FB73     		strb	r3, [r7, #15]
 490:Generated_Source\PSoC5/CyLib.c ****         break;
 899              		.loc 1 490 0
 900 0062 0CE0     		b	.L72
 901              	.L69:
 491:Generated_Source\PSoC5/CyLib.c **** 
 492:Generated_Source\PSoC5/CyLib.c ****     case 4u:
 493:Generated_Source\PSoC5/CyLib.c ****         currentFreq = CY_IMO_FREQ_48MHZ;
 902              		.loc 1 493 0
 903 0064 0423     		movs	r3, #4
 904 0066 FB73     		strb	r3, [r7, #15]
 494:Generated_Source\PSoC5/CyLib.c ****         break;
 905              		.loc 1 494 0
 906 0068 09E0     		b	.L72
 907              	.L70:
 495:Generated_Source\PSoC5/CyLib.c **** 
 496:Generated_Source\PSoC5/CyLib.c ****     case 5u:
 497:Generated_Source\PSoC5/CyLib.c ****         currentFreq = CY_IMO_FREQ_62MHZ;
 908              		.loc 1 497 0
 909 006a 0523     		movs	r3, #5
 910 006c FB73     		strb	r3, [r7, #15]
 498:Generated_Source\PSoC5/CyLib.c ****         break;
 911              		.loc 1 498 0
 912 006e 06E0     		b	.L72
 913              	.L71:
 499:Generated_Source\PSoC5/CyLib.c **** 
 500:Generated_Source\PSoC5/CyLib.c **** #if(CY_PSOC5)
 501:Generated_Source\PSoC5/CyLib.c ****     case 6u:
 502:Generated_Source\PSoC5/CyLib.c ****         currentFreq = CY_IMO_FREQ_74MHZ;
ARM GAS  C:\Users\mattma1\AppData\Local\Temp\ccUnGUsl.s 			page 26


 914              		.loc 1 502 0
 915 0070 0623     		movs	r3, #6
 916 0072 FB73     		strb	r3, [r7, #15]
 503:Generated_Source\PSoC5/CyLib.c ****         break;
 917              		.loc 1 503 0
 918 0074 03E0     		b	.L72
 919              	.L63:
 504:Generated_Source\PSoC5/CyLib.c **** #endif  /* (CY_PSOC5) */
 505:Generated_Source\PSoC5/CyLib.c **** 
 506:Generated_Source\PSoC5/CyLib.c ****     default:
 507:Generated_Source\PSoC5/CyLib.c ****         CYASSERT(0u != 0u);
 920              		.loc 1 507 0
 921 0076 0020     		movs	r0, #0
 922 0078 FFF7FEFF 		bl	CyHalt
 508:Generated_Source\PSoC5/CyLib.c ****         break;
 923              		.loc 1 508 0
 924 007c 00BF     		nop
 925              	.L72:
 509:Generated_Source\PSoC5/CyLib.c ****     }
 510:Generated_Source\PSoC5/CyLib.c **** 
 511:Generated_Source\PSoC5/CyLib.c ****     if (nextFreq >= currentFreq)
 926              		.loc 1 511 0
 927 007e BA7B     		ldrb	r2, [r7, #14]	@ zero_extendqisi2
 928 0080 FB7B     		ldrb	r3, [r7, #15]	@ zero_extendqisi2
 929 0082 9A42     		cmp	r2, r3
 930 0084 03D3     		bcc	.L73
 512:Generated_Source\PSoC5/CyLib.c ****     {
 513:Generated_Source\PSoC5/CyLib.c ****         /* Set new trim first */
 514:Generated_Source\PSoC5/CyLib.c ****         CyIMO_SetTrimValue(freq);
 931              		.loc 1 514 0
 932 0086 FB79     		ldrb	r3, [r7, #7]	@ zero_extendqisi2
 933 0088 1846     		mov	r0, r3
 934 008a FFF7FEFF 		bl	CyIMO_SetTrimValue
 935              	.L73:
 515:Generated_Source\PSoC5/CyLib.c ****     }
 516:Generated_Source\PSoC5/CyLib.c **** 
 517:Generated_Source\PSoC5/CyLib.c ****     /* Set usbclk_on bit when using CY_IMO_FREQ_USB, if not clear it */
 518:Generated_Source\PSoC5/CyLib.c ****     switch(freq)
 936              		.loc 1 518 0
 937 008e FB79     		ldrb	r3, [r7, #7]	@ zero_extendqisi2
 938 0090 082B     		cmp	r3, #8
 939 0092 72D8     		bhi	.L74
 940 0094 01A2     		adr	r2, .L76
 941 0096 52F823F0 		ldr	pc, [r2, r3, lsl #2]
 942 009a 00BF     		.p2align 2
 943              	.L76:
 944 009c C1000000 		.word	.L75+1
 945 00a0 D9000000 		.word	.L77+1
 946 00a4 F1000000 		.word	.L78+1
 947 00a8 03010000 		.word	.L79+1
 948 00ac 1B010000 		.word	.L80+1
 949 00b0 33010000 		.word	.L81+1
 950 00b4 4B010000 		.word	.L82+1
 951 00b8 7B010000 		.word	.L74+1
 952 00bc 63010000 		.word	.L83+1
 953              		.p2align 1
 954              	.L75:
ARM GAS  C:\Users\mattma1\AppData\Local\Temp\ccUnGUsl.s 			page 27


 519:Generated_Source\PSoC5/CyLib.c ****     {
 520:Generated_Source\PSoC5/CyLib.c ****     case CY_IMO_FREQ_3MHZ:
 521:Generated_Source\PSoC5/CyLib.c ****         CY_LIB_FASTCLK_IMO_CR_REG = ((CY_LIB_FASTCLK_IMO_CR_REG & CY_LIB_FASTCLK_IMO_CR_RANGE_MASK)
 955              		.loc 1 521 0
 956 00c0 3A4A     		ldr	r2, .L89
 957 00c2 3A4B     		ldr	r3, .L89
 958 00c4 1B78     		ldrb	r3, [r3]
 959 00c6 DBB2     		uxtb	r3, r3
 960 00c8 23F04703 		bic	r3, r3, #71
 961 00cc DBB2     		uxtb	r3, r3
 962 00ce 43F00303 		orr	r3, r3, #3
 963 00d2 DBB2     		uxtb	r3, r3
 964 00d4 1370     		strb	r3, [r2]
 522:Generated_Source\PSoC5/CyLib.c ****             CY_LIB_IMO_3MHZ_VALUE) & ((uint8)(~CY_LIB_IMO_USBCLK_ON_SET));
 523:Generated_Source\PSoC5/CyLib.c ****         break;
 965              		.loc 1 523 0
 966 00d6 54E0     		b	.L84
 967              	.L77:
 524:Generated_Source\PSoC5/CyLib.c **** 
 525:Generated_Source\PSoC5/CyLib.c ****     case CY_IMO_FREQ_6MHZ:
 526:Generated_Source\PSoC5/CyLib.c ****         CY_LIB_FASTCLK_IMO_CR_REG = ((CY_LIB_FASTCLK_IMO_CR_REG & CY_LIB_FASTCLK_IMO_CR_RANGE_MASK)
 968              		.loc 1 526 0
 969 00d8 344A     		ldr	r2, .L89
 970 00da 344B     		ldr	r3, .L89
 971 00dc 1B78     		ldrb	r3, [r3]
 972 00de DBB2     		uxtb	r3, r3
 973 00e0 23F04703 		bic	r3, r3, #71
 974 00e4 DBB2     		uxtb	r3, r3
 975 00e6 43F00103 		orr	r3, r3, #1
 976 00ea DBB2     		uxtb	r3, r3
 977 00ec 1370     		strb	r3, [r2]
 527:Generated_Source\PSoC5/CyLib.c ****             CY_LIB_IMO_6MHZ_VALUE) & ((uint8)(~CY_LIB_IMO_USBCLK_ON_SET));
 528:Generated_Source\PSoC5/CyLib.c ****         break;
 978              		.loc 1 528 0
 979 00ee 48E0     		b	.L84
 980              	.L78:
 529:Generated_Source\PSoC5/CyLib.c **** 
 530:Generated_Source\PSoC5/CyLib.c ****     case CY_IMO_FREQ_12MHZ:
 531:Generated_Source\PSoC5/CyLib.c ****         CY_LIB_FASTCLK_IMO_CR_REG = ((CY_LIB_FASTCLK_IMO_CR_REG & CY_LIB_FASTCLK_IMO_CR_RANGE_MASK)
 981              		.loc 1 531 0
 982 00f0 2E4A     		ldr	r2, .L89
 983 00f2 2E4B     		ldr	r3, .L89
 984 00f4 1B78     		ldrb	r3, [r3]
 985 00f6 DBB2     		uxtb	r3, r3
 986 00f8 23F04703 		bic	r3, r3, #71
 987 00fc DBB2     		uxtb	r3, r3
 988 00fe 1370     		strb	r3, [r2]
 532:Generated_Source\PSoC5/CyLib.c ****             CY_LIB_IMO_12MHZ_VALUE) & ((uint8)(~CY_LIB_IMO_USBCLK_ON_SET));
 533:Generated_Source\PSoC5/CyLib.c ****         break;
 989              		.loc 1 533 0
 990 0100 3FE0     		b	.L84
 991              	.L79:
 534:Generated_Source\PSoC5/CyLib.c **** 
 535:Generated_Source\PSoC5/CyLib.c ****     case CY_IMO_FREQ_24MHZ:
 536:Generated_Source\PSoC5/CyLib.c ****         CY_LIB_FASTCLK_IMO_CR_REG = ((CY_LIB_FASTCLK_IMO_CR_REG & CY_LIB_FASTCLK_IMO_CR_RANGE_MASK)
 992              		.loc 1 536 0
 993 0102 2A4A     		ldr	r2, .L89
ARM GAS  C:\Users\mattma1\AppData\Local\Temp\ccUnGUsl.s 			page 28


 994 0104 294B     		ldr	r3, .L89
 995 0106 1B78     		ldrb	r3, [r3]
 996 0108 DBB2     		uxtb	r3, r3
 997 010a 23F04703 		bic	r3, r3, #71
 998 010e DBB2     		uxtb	r3, r3
 999 0110 43F00203 		orr	r3, r3, #2
 1000 0114 DBB2     		uxtb	r3, r3
 1001 0116 1370     		strb	r3, [r2]
 537:Generated_Source\PSoC5/CyLib.c ****             CY_LIB_IMO_24MHZ_VALUE) & ((uint8)(~CY_LIB_IMO_USBCLK_ON_SET));
 538:Generated_Source\PSoC5/CyLib.c ****         break;
 1002              		.loc 1 538 0
 1003 0118 33E0     		b	.L84
 1004              	.L80:
 539:Generated_Source\PSoC5/CyLib.c **** 
 540:Generated_Source\PSoC5/CyLib.c ****     case CY_IMO_FREQ_48MHZ:
 541:Generated_Source\PSoC5/CyLib.c ****         CY_LIB_FASTCLK_IMO_CR_REG = ((CY_LIB_FASTCLK_IMO_CR_REG & CY_LIB_FASTCLK_IMO_CR_RANGE_MASK)
 1005              		.loc 1 541 0
 1006 011a 244A     		ldr	r2, .L89
 1007 011c 234B     		ldr	r3, .L89
 1008 011e 1B78     		ldrb	r3, [r3]
 1009 0120 DBB2     		uxtb	r3, r3
 1010 0122 23F04703 		bic	r3, r3, #71
 1011 0126 DBB2     		uxtb	r3, r3
 1012 0128 43F00403 		orr	r3, r3, #4
 1013 012c DBB2     		uxtb	r3, r3
 1014 012e 1370     		strb	r3, [r2]
 542:Generated_Source\PSoC5/CyLib.c ****             CY_LIB_IMO_48MHZ_VALUE) & ((uint8)(~CY_LIB_IMO_USBCLK_ON_SET));
 543:Generated_Source\PSoC5/CyLib.c ****         break;
 1015              		.loc 1 543 0
 1016 0130 27E0     		b	.L84
 1017              	.L81:
 544:Generated_Source\PSoC5/CyLib.c **** 
 545:Generated_Source\PSoC5/CyLib.c ****     case CY_IMO_FREQ_62MHZ:
 546:Generated_Source\PSoC5/CyLib.c ****         CY_LIB_FASTCLK_IMO_CR_REG = ((CY_LIB_FASTCLK_IMO_CR_REG & CY_LIB_FASTCLK_IMO_CR_RANGE_MASK)
 1018              		.loc 1 546 0
 1019 0132 1E4A     		ldr	r2, .L89
 1020 0134 1D4B     		ldr	r3, .L89
 1021 0136 1B78     		ldrb	r3, [r3]
 1022 0138 DBB2     		uxtb	r3, r3
 1023 013a 23F04703 		bic	r3, r3, #71
 1024 013e DBB2     		uxtb	r3, r3
 1025 0140 43F00503 		orr	r3, r3, #5
 1026 0144 DBB2     		uxtb	r3, r3
 1027 0146 1370     		strb	r3, [r2]
 547:Generated_Source\PSoC5/CyLib.c ****             CY_LIB_IMO_62MHZ_VALUE) & ((uint8)(~CY_LIB_IMO_USBCLK_ON_SET));
 548:Generated_Source\PSoC5/CyLib.c ****         break;
 1028              		.loc 1 548 0
 1029 0148 1BE0     		b	.L84
 1030              	.L82:
 549:Generated_Source\PSoC5/CyLib.c **** 
 550:Generated_Source\PSoC5/CyLib.c **** #if(CY_PSOC5)
 551:Generated_Source\PSoC5/CyLib.c ****     case CY_IMO_FREQ_74MHZ:
 552:Generated_Source\PSoC5/CyLib.c ****         CY_LIB_FASTCLK_IMO_CR_REG = ((CY_LIB_FASTCLK_IMO_CR_REG & CY_LIB_FASTCLK_IMO_CR_RANGE_MASK)
 1031              		.loc 1 552 0
 1032 014a 184A     		ldr	r2, .L89
 1033 014c 174B     		ldr	r3, .L89
 1034 014e 1B78     		ldrb	r3, [r3]
ARM GAS  C:\Users\mattma1\AppData\Local\Temp\ccUnGUsl.s 			page 29


 1035 0150 DBB2     		uxtb	r3, r3
 1036 0152 23F04703 		bic	r3, r3, #71
 1037 0156 DBB2     		uxtb	r3, r3
 1038 0158 43F00603 		orr	r3, r3, #6
 1039 015c DBB2     		uxtb	r3, r3
 1040 015e 1370     		strb	r3, [r2]
 553:Generated_Source\PSoC5/CyLib.c ****             CY_LIB_IMO_74MHZ_VALUE) & ((uint8)(~CY_LIB_IMO_USBCLK_ON_SET));
 554:Generated_Source\PSoC5/CyLib.c ****         break;
 1041              		.loc 1 554 0
 1042 0160 0FE0     		b	.L84
 1043              	.L83:
 555:Generated_Source\PSoC5/CyLib.c **** #endif  /* (CY_PSOC5) */
 556:Generated_Source\PSoC5/CyLib.c **** 
 557:Generated_Source\PSoC5/CyLib.c ****     case CY_IMO_FREQ_USB:
 558:Generated_Source\PSoC5/CyLib.c ****         CY_LIB_FASTCLK_IMO_CR_REG = ((CY_LIB_FASTCLK_IMO_CR_REG & CY_LIB_FASTCLK_IMO_CR_RANGE_MASK)
 1044              		.loc 1 558 0
 1045 0162 124A     		ldr	r2, .L89
 1046 0164 114B     		ldr	r3, .L89
 1047 0166 1B78     		ldrb	r3, [r3]
 1048 0168 DBB2     		uxtb	r3, r3
 1049 016a 23F04703 		bic	r3, r3, #71
 1050 016e DBB2     		uxtb	r3, r3
 1051 0170 43F04203 		orr	r3, r3, #66
 1052 0174 DBB2     		uxtb	r3, r3
 1053 0176 1370     		strb	r3, [r2]
 559:Generated_Source\PSoC5/CyLib.c ****             CY_LIB_IMO_24MHZ_VALUE) | CY_LIB_IMO_USBCLK_ON_SET;
 560:Generated_Source\PSoC5/CyLib.c ****         break;
 1054              		.loc 1 560 0
 1055 0178 03E0     		b	.L84
 1056              	.L74:
 561:Generated_Source\PSoC5/CyLib.c **** 
 562:Generated_Source\PSoC5/CyLib.c ****     default:
 563:Generated_Source\PSoC5/CyLib.c ****         CYASSERT(0u != 0u);
 1057              		.loc 1 563 0
 1058 017a 0020     		movs	r0, #0
 1059 017c FFF7FEFF 		bl	CyHalt
 564:Generated_Source\PSoC5/CyLib.c ****         break;
 1060              		.loc 1 564 0
 1061 0180 00BF     		nop
 1062              	.L84:
 565:Generated_Source\PSoC5/CyLib.c ****     }
 566:Generated_Source\PSoC5/CyLib.c **** 
 567:Generated_Source\PSoC5/CyLib.c ****     /* Tu rn onIMO Doubler, if switching to CY_IMO_FREQ_USB */
 568:Generated_Source\PSoC5/CyLib.c ****     if (freq == CY_IMO_FREQ_USB)
 1063              		.loc 1 568 0
 1064 0182 FB79     		ldrb	r3, [r7, #7]	@ zero_extendqisi2
 1065 0184 082B     		cmp	r3, #8
 1066 0186 02D1     		bne	.L85
 569:Generated_Source\PSoC5/CyLib.c ****     {
 570:Generated_Source\PSoC5/CyLib.c ****         CyIMO_EnableDoubler();
 1067              		.loc 1 570 0
 1068 0188 FFF7FEFF 		bl	CyIMO_EnableDoubler
 1069 018c 01E0     		b	.L86
 1070              	.L85:
 571:Generated_Source\PSoC5/CyLib.c ****     }
 572:Generated_Source\PSoC5/CyLib.c ****     else
 573:Generated_Source\PSoC5/CyLib.c ****     {
ARM GAS  C:\Users\mattma1\AppData\Local\Temp\ccUnGUsl.s 			page 30


 574:Generated_Source\PSoC5/CyLib.c ****         CyIMO_DisableDoubler();
 1071              		.loc 1 574 0
 1072 018e FFF7FEFF 		bl	CyIMO_DisableDoubler
 1073              	.L86:
 575:Generated_Source\PSoC5/CyLib.c ****     }
 576:Generated_Source\PSoC5/CyLib.c **** 
 577:Generated_Source\PSoC5/CyLib.c ****     if (nextFreq < currentFreq)
 1074              		.loc 1 577 0
 1075 0192 BA7B     		ldrb	r2, [r7, #14]	@ zero_extendqisi2
 1076 0194 FB7B     		ldrb	r3, [r7, #15]	@ zero_extendqisi2
 1077 0196 9A42     		cmp	r2, r3
 1078 0198 03D2     		bcs	.L88
 578:Generated_Source\PSoC5/CyLib.c ****     {
 579:Generated_Source\PSoC5/CyLib.c ****         /* Set the trim after setting frequency */
 580:Generated_Source\PSoC5/CyLib.c ****         CyIMO_SetTrimValue(freq);
 1079              		.loc 1 580 0
 1080 019a FB79     		ldrb	r3, [r7, #7]	@ zero_extendqisi2
 1081 019c 1846     		mov	r0, r3
 1082 019e FFF7FEFF 		bl	CyIMO_SetTrimValue
 1083              	.L88:
 581:Generated_Source\PSoC5/CyLib.c ****     }
 582:Generated_Source\PSoC5/CyLib.c **** }
 1084              		.loc 1 582 0
 1085 01a2 00BF     		nop
 1086 01a4 1037     		adds	r7, r7, #16
 1087              		.cfi_def_cfa_offset 8
 1088 01a6 BD46     		mov	sp, r7
 1089              		.cfi_def_cfa_register 13
 1090              		@ sp needed
 1091 01a8 80BD     		pop	{r7, pc}
 1092              	.L90:
 1093 01aa 00BF     		.align	2
 1094              	.L89:
 1095 01ac 00420040 		.word	1073758720
 1096              		.cfi_endproc
 1097              	.LFE8:
 1098              		.size	CyIMO_SetFreq, .-CyIMO_SetFreq
 1099              		.section	.text.CyIMO_SetSource,"ax",%progbits
 1100              		.align	2
 1101              		.global	CyIMO_SetSource
 1102              		.thumb
 1103              		.thumb_func
 1104              		.type	CyIMO_SetSource, %function
 1105              	CyIMO_SetSource:
 1106              	.LFB9:
 583:Generated_Source\PSoC5/CyLib.c **** 
 584:Generated_Source\PSoC5/CyLib.c **** 
 585:Generated_Source\PSoC5/CyLib.c **** /*******************************************************************************
 586:Generated_Source\PSoC5/CyLib.c **** * Function Name: CyIMO_SetSource
 587:Generated_Source\PSoC5/CyLib.c **** ****************************************************************************//**
 588:Generated_Source\PSoC5/CyLib.c **** *
 589:Generated_Source\PSoC5/CyLib.c **** *  Sets the source of the clock output from the IMO block.
 590:Generated_Source\PSoC5/CyLib.c **** *
 591:Generated_Source\PSoC5/CyLib.c **** *  The output from the IMO is by default the IMO itself. Optionally the MHz
 592:Generated_Source\PSoC5/CyLib.c **** *  Crystal or DSI input can be the source of the IMO output instead.
 593:Generated_Source\PSoC5/CyLib.c **** *
 594:Generated_Source\PSoC5/CyLib.c **** *   \param source: CY_IMO_SOURCE_DSI to set the DSI as source.
ARM GAS  C:\Users\mattma1\AppData\Local\Temp\ccUnGUsl.s 			page 31


 595:Generated_Source\PSoC5/CyLib.c **** *           CY_IMO_SOURCE_XTAL to set the MHz as source.
 596:Generated_Source\PSoC5/CyLib.c **** *           CY_IMO_SOURCE_IMO to set the IMO itself.
 597:Generated_Source\PSoC5/CyLib.c **** *
 598:Generated_Source\PSoC5/CyLib.c **** * \sideeffect
 599:Generated_Source\PSoC5/CyLib.c **** *  If this function execution resulted in the CPU clock frequency increasing,
 600:Generated_Source\PSoC5/CyLib.c **** *  then the number of clock cycles the cache will wait before it samples data
 601:Generated_Source\PSoC5/CyLib.c **** *  coming back from the Flash must be adjusted by calling
 602:Generated_Source\PSoC5/CyLib.c **** *  CyFlash_SetWaitCycles() with an appropriate parameter. It can be optionally
 603:Generated_Source\PSoC5/CyLib.c **** *  called if the CPU clock frequency is lowered in order to improve the CPU
 604:Generated_Source\PSoC5/CyLib.c **** *  performance. See CyFlash_SetWaitCycles() description for more information.
 605:Generated_Source\PSoC5/CyLib.c **** *
 606:Generated_Source\PSoC5/CyLib.c **** *******************************************************************************/
 607:Generated_Source\PSoC5/CyLib.c **** void CyIMO_SetSource(uint8 source) 
 608:Generated_Source\PSoC5/CyLib.c **** {
 1107              		.loc 1 608 0
 1108              		.cfi_startproc
 1109              		@ args = 0, pretend = 0, frame = 8
 1110              		@ frame_needed = 1, uses_anonymous_args = 0
 1111 0000 80B5     		push	{r7, lr}
 1112              		.cfi_def_cfa_offset 8
 1113              		.cfi_offset 7, -8
 1114              		.cfi_offset 14, -4
 1115 0002 82B0     		sub	sp, sp, #8
 1116              		.cfi_def_cfa_offset 16
 1117 0004 00AF     		add	r7, sp, #0
 1118              		.cfi_def_cfa_register 7
 1119 0006 0346     		mov	r3, r0
 1120 0008 FB71     		strb	r3, [r7, #7]
 609:Generated_Source\PSoC5/CyLib.c ****     switch(source)
 1121              		.loc 1 609 0
 1122 000a FB79     		ldrb	r3, [r7, #7]	@ zero_extendqisi2
 1123 000c 012B     		cmp	r3, #1
 1124 000e 17D0     		beq	.L93
 1125 0010 022B     		cmp	r3, #2
 1126 0012 02D0     		beq	.L94
 1127 0014 002B     		cmp	r3, #0
 1128 0016 26D0     		beq	.L95
 1129 0018 2EE0     		b	.L97
 1130              	.L94:
 610:Generated_Source\PSoC5/CyLib.c ****     {
 611:Generated_Source\PSoC5/CyLib.c ****     case CY_IMO_SOURCE_DSI:
 612:Generated_Source\PSoC5/CyLib.c ****         CY_LIB_CLKDIST_CR_REG     &= ((uint8)(~CY_LIB_CLKDIST_CR_IMO2X));
 1131              		.loc 1 612 0
 1132 001a 4FF04022 		mov	r2, #1073758208
 1133 001e 4FF04023 		mov	r3, #1073758208
 1134 0022 1B78     		ldrb	r3, [r3]
 1135 0024 DBB2     		uxtb	r3, r3
 1136 0026 23F04003 		bic	r3, r3, #64
 1137 002a DBB2     		uxtb	r3, r3
 1138 002c 1370     		strb	r3, [r2]
 613:Generated_Source\PSoC5/CyLib.c ****         CY_LIB_FASTCLK_IMO_CR_REG |= CY_LIB_FASTCLK_IMO_IMO;
 1139              		.loc 1 613 0
 1140 002e 164A     		ldr	r2, .L98
 1141 0030 154B     		ldr	r3, .L98
 1142 0032 1B78     		ldrb	r3, [r3]
 1143 0034 DBB2     		uxtb	r3, r3
 1144 0036 43F02003 		orr	r3, r3, #32
ARM GAS  C:\Users\mattma1\AppData\Local\Temp\ccUnGUsl.s 			page 32


 1145 003a DBB2     		uxtb	r3, r3
 1146 003c 1370     		strb	r3, [r2]
 614:Generated_Source\PSoC5/CyLib.c ****         break;
 1147              		.loc 1 614 0
 1148 003e 1FE0     		b	.L96
 1149              	.L93:
 615:Generated_Source\PSoC5/CyLib.c **** 
 616:Generated_Source\PSoC5/CyLib.c ****     case CY_IMO_SOURCE_XTAL:
 617:Generated_Source\PSoC5/CyLib.c ****         CY_LIB_CLKDIST_CR_REG     |= CY_LIB_CLKDIST_CR_IMO2X;
 1150              		.loc 1 617 0
 1151 0040 4FF04022 		mov	r2, #1073758208
 1152 0044 4FF04023 		mov	r3, #1073758208
 1153 0048 1B78     		ldrb	r3, [r3]
 1154 004a DBB2     		uxtb	r3, r3
 1155 004c 43F04003 		orr	r3, r3, #64
 1156 0050 DBB2     		uxtb	r3, r3
 1157 0052 1370     		strb	r3, [r2]
 618:Generated_Source\PSoC5/CyLib.c ****         CY_LIB_FASTCLK_IMO_CR_REG |= CY_LIB_FASTCLK_IMO_IMO;
 1158              		.loc 1 618 0
 1159 0054 0C4A     		ldr	r2, .L98
 1160 0056 0C4B     		ldr	r3, .L98
 1161 0058 1B78     		ldrb	r3, [r3]
 1162 005a DBB2     		uxtb	r3, r3
 1163 005c 43F02003 		orr	r3, r3, #32
 1164 0060 DBB2     		uxtb	r3, r3
 1165 0062 1370     		strb	r3, [r2]
 619:Generated_Source\PSoC5/CyLib.c ****         break;
 1166              		.loc 1 619 0
 1167 0064 0CE0     		b	.L96
 1168              	.L95:
 620:Generated_Source\PSoC5/CyLib.c **** 
 621:Generated_Source\PSoC5/CyLib.c ****     case CY_IMO_SOURCE_IMO:
 622:Generated_Source\PSoC5/CyLib.c ****         CY_LIB_FASTCLK_IMO_CR_REG &= ((uint8)(~CY_LIB_FASTCLK_IMO_IMO));
 1169              		.loc 1 622 0
 1170 0066 084A     		ldr	r2, .L98
 1171 0068 074B     		ldr	r3, .L98
 1172 006a 1B78     		ldrb	r3, [r3]
 1173 006c DBB2     		uxtb	r3, r3
 1174 006e 23F02003 		bic	r3, r3, #32
 1175 0072 DBB2     		uxtb	r3, r3
 1176 0074 1370     		strb	r3, [r2]
 623:Generated_Source\PSoC5/CyLib.c ****         break;
 1177              		.loc 1 623 0
 1178 0076 03E0     		b	.L96
 1179              	.L97:
 624:Generated_Source\PSoC5/CyLib.c **** 
 625:Generated_Source\PSoC5/CyLib.c ****     default:
 626:Generated_Source\PSoC5/CyLib.c ****         /* Incorrect source value */
 627:Generated_Source\PSoC5/CyLib.c ****         CYASSERT(0u != 0u);
 1180              		.loc 1 627 0
 1181 0078 0020     		movs	r0, #0
 1182 007a FFF7FEFF 		bl	CyHalt
 628:Generated_Source\PSoC5/CyLib.c ****         break;
 1183              		.loc 1 628 0
 1184 007e 00BF     		nop
 1185              	.L96:
 629:Generated_Source\PSoC5/CyLib.c ****     }
ARM GAS  C:\Users\mattma1\AppData\Local\Temp\ccUnGUsl.s 			page 33


 630:Generated_Source\PSoC5/CyLib.c **** }
 1186              		.loc 1 630 0
 1187 0080 00BF     		nop
 1188 0082 0837     		adds	r7, r7, #8
 1189              		.cfi_def_cfa_offset 8
 1190 0084 BD46     		mov	sp, r7
 1191              		.cfi_def_cfa_register 13
 1192              		@ sp needed
 1193 0086 80BD     		pop	{r7, pc}
 1194              	.L99:
 1195              		.align	2
 1196              	.L98:
 1197 0088 00420040 		.word	1073758720
 1198              		.cfi_endproc
 1199              	.LFE9:
 1200              		.size	CyIMO_SetSource, .-CyIMO_SetSource
 1201              		.section	.text.CyIMO_EnableDoubler,"ax",%progbits
 1202              		.align	2
 1203              		.global	CyIMO_EnableDoubler
 1204              		.thumb
 1205              		.thumb_func
 1206              		.type	CyIMO_EnableDoubler, %function
 1207              	CyIMO_EnableDoubler:
 1208              	.LFB10:
 631:Generated_Source\PSoC5/CyLib.c **** 
 632:Generated_Source\PSoC5/CyLib.c **** 
 633:Generated_Source\PSoC5/CyLib.c **** /*******************************************************************************
 634:Generated_Source\PSoC5/CyLib.c **** * Function Name: CyIMO_EnableDoubler
 635:Generated_Source\PSoC5/CyLib.c **** ****************************************************************************//**
 636:Generated_Source\PSoC5/CyLib.c **** *
 637:Generated_Source\PSoC5/CyLib.c **** *  Enables the IMO doubler.  The 2x frequency clock is used to convert a 24 MHz
 638:Generated_Source\PSoC5/CyLib.c **** *  input to a 48 MHz output for use by the USB block.
 639:Generated_Source\PSoC5/CyLib.c **** *
 640:Generated_Source\PSoC5/CyLib.c **** *******************************************************************************/
 641:Generated_Source\PSoC5/CyLib.c **** void CyIMO_EnableDoubler(void) 
 642:Generated_Source\PSoC5/CyLib.c **** {
 1209              		.loc 1 642 0
 1210              		.cfi_startproc
 1211              		@ args = 0, pretend = 0, frame = 0
 1212              		@ frame_needed = 1, uses_anonymous_args = 0
 1213              		@ link register save eliminated.
 1214 0000 80B4     		push	{r7}
 1215              		.cfi_def_cfa_offset 4
 1216              		.cfi_offset 7, -4
 1217 0002 00AF     		add	r7, sp, #0
 1218              		.cfi_def_cfa_register 7
 643:Generated_Source\PSoC5/CyLib.c ****     /* Set FASTCLK_IMO_CR_PTR regigster's 4th bit */
 644:Generated_Source\PSoC5/CyLib.c ****     CY_LIB_FASTCLK_IMO_CR_REG |= CY_LIB_FASTCLK_IMO_DOUBLER;
 1219              		.loc 1 644 0
 1220 0004 054A     		ldr	r2, .L101
 1221 0006 054B     		ldr	r3, .L101
 1222 0008 1B78     		ldrb	r3, [r3]
 1223 000a DBB2     		uxtb	r3, r3
 1224 000c 43F01003 		orr	r3, r3, #16
 1225 0010 DBB2     		uxtb	r3, r3
 1226 0012 1370     		strb	r3, [r2]
 645:Generated_Source\PSoC5/CyLib.c **** }
ARM GAS  C:\Users\mattma1\AppData\Local\Temp\ccUnGUsl.s 			page 34


 1227              		.loc 1 645 0
 1228 0014 00BF     		nop
 1229 0016 BD46     		mov	sp, r7
 1230              		.cfi_def_cfa_register 13
 1231              		@ sp needed
 1232 0018 80BC     		pop	{r7}
 1233              		.cfi_restore 7
 1234              		.cfi_def_cfa_offset 0
 1235 001a 7047     		bx	lr
 1236              	.L102:
 1237              		.align	2
 1238              	.L101:
 1239 001c 00420040 		.word	1073758720
 1240              		.cfi_endproc
 1241              	.LFE10:
 1242              		.size	CyIMO_EnableDoubler, .-CyIMO_EnableDoubler
 1243              		.section	.text.CyIMO_DisableDoubler,"ax",%progbits
 1244              		.align	2
 1245              		.global	CyIMO_DisableDoubler
 1246              		.thumb
 1247              		.thumb_func
 1248              		.type	CyIMO_DisableDoubler, %function
 1249              	CyIMO_DisableDoubler:
 1250              	.LFB11:
 646:Generated_Source\PSoC5/CyLib.c **** 
 647:Generated_Source\PSoC5/CyLib.c **** 
 648:Generated_Source\PSoC5/CyLib.c **** /*******************************************************************************
 649:Generated_Source\PSoC5/CyLib.c **** * Function Name: CyIMO_DisableDoubler
 650:Generated_Source\PSoC5/CyLib.c **** ****************************************************************************//**
 651:Generated_Source\PSoC5/CyLib.c **** *
 652:Generated_Source\PSoC5/CyLib.c **** *   Disables the IMO doubler.
 653:Generated_Source\PSoC5/CyLib.c **** *
 654:Generated_Source\PSoC5/CyLib.c **** *******************************************************************************/
 655:Generated_Source\PSoC5/CyLib.c **** void CyIMO_DisableDoubler(void) 
 656:Generated_Source\PSoC5/CyLib.c **** {
 1251              		.loc 1 656 0
 1252              		.cfi_startproc
 1253              		@ args = 0, pretend = 0, frame = 0
 1254              		@ frame_needed = 1, uses_anonymous_args = 0
 1255              		@ link register save eliminated.
 1256 0000 80B4     		push	{r7}
 1257              		.cfi_def_cfa_offset 4
 1258              		.cfi_offset 7, -4
 1259 0002 00AF     		add	r7, sp, #0
 1260              		.cfi_def_cfa_register 7
 657:Generated_Source\PSoC5/CyLib.c ****     CY_LIB_FASTCLK_IMO_CR_REG &= ((uint8)(~CY_LIB_FASTCLK_IMO_DOUBLER));
 1261              		.loc 1 657 0
 1262 0004 054A     		ldr	r2, .L104
 1263 0006 054B     		ldr	r3, .L104
 1264 0008 1B78     		ldrb	r3, [r3]
 1265 000a DBB2     		uxtb	r3, r3
 1266 000c 23F01003 		bic	r3, r3, #16
 1267 0010 DBB2     		uxtb	r3, r3
 1268 0012 1370     		strb	r3, [r2]
 658:Generated_Source\PSoC5/CyLib.c **** }
 1269              		.loc 1 658 0
 1270 0014 00BF     		nop
ARM GAS  C:\Users\mattma1\AppData\Local\Temp\ccUnGUsl.s 			page 35


 1271 0016 BD46     		mov	sp, r7
 1272              		.cfi_def_cfa_register 13
 1273              		@ sp needed
 1274 0018 80BC     		pop	{r7}
 1275              		.cfi_restore 7
 1276              		.cfi_def_cfa_offset 0
 1277 001a 7047     		bx	lr
 1278              	.L105:
 1279              		.align	2
 1280              	.L104:
 1281 001c 00420040 		.word	1073758720
 1282              		.cfi_endproc
 1283              	.LFE11:
 1284              		.size	CyIMO_DisableDoubler, .-CyIMO_DisableDoubler
 1285              		.section	.text.CyMasterClk_SetSource,"ax",%progbits
 1286              		.align	2
 1287              		.global	CyMasterClk_SetSource
 1288              		.thumb
 1289              		.thumb_func
 1290              		.type	CyMasterClk_SetSource, %function
 1291              	CyMasterClk_SetSource:
 1292              	.LFB12:
 659:Generated_Source\PSoC5/CyLib.c **** 
 660:Generated_Source\PSoC5/CyLib.c **** 
 661:Generated_Source\PSoC5/CyLib.c **** /*******************************************************************************
 662:Generated_Source\PSoC5/CyLib.c **** * Function Name: CyMasterClk_SetSource
 663:Generated_Source\PSoC5/CyLib.c **** ****************************************************************************//**
 664:Generated_Source\PSoC5/CyLib.c **** *
 665:Generated_Source\PSoC5/CyLib.c **** *  Sets the source of the master clock.
 666:Generated_Source\PSoC5/CyLib.c **** *
 667:Generated_Source\PSoC5/CyLib.c **** *   \param source: One of the four available Master clock sources.
 668:Generated_Source\PSoC5/CyLib.c **** *     CY_MASTER_SOURCE_IMO
 669:Generated_Source\PSoC5/CyLib.c **** *     CY_MASTER_SOURCE_PLL
 670:Generated_Source\PSoC5/CyLib.c **** *     CY_MASTER_SOURCE_XTAL
 671:Generated_Source\PSoC5/CyLib.c **** *     CY_MASTER_SOURCE_DSI
 672:Generated_Source\PSoC5/CyLib.c **** *
 673:Generated_Source\PSoC5/CyLib.c **** * \sideeffect
 674:Generated_Source\PSoC5/CyLib.c **** *  The current source and the new source must both be running and stable before
 675:Generated_Source\PSoC5/CyLib.c **** *  calling this function.
 676:Generated_Source\PSoC5/CyLib.c **** *
 677:Generated_Source\PSoC5/CyLib.c **** *  If this function execution resulted in the CPU clock frequency increasing,
 678:Generated_Source\PSoC5/CyLib.c **** *  then the number of clock cycles the cache will wait before it samples data
 679:Generated_Source\PSoC5/CyLib.c **** *  coming back from the Flash must be adjusted by calling
 680:Generated_Source\PSoC5/CyLib.c **** *  CyFlash_SetWaitCycles() with an appropriate parameter. It can be optionally
 681:Generated_Source\PSoC5/CyLib.c **** *  called if the CPU clock frequency is lowered in order to improve the CPU
 682:Generated_Source\PSoC5/CyLib.c **** *  performance. See CyFlash_SetWaitCycles() description for more information.
 683:Generated_Source\PSoC5/CyLib.c **** *
 684:Generated_Source\PSoC5/CyLib.c **** *******************************************************************************/
 685:Generated_Source\PSoC5/CyLib.c **** void CyMasterClk_SetSource(uint8 source) 
 686:Generated_Source\PSoC5/CyLib.c **** {
 1293              		.loc 1 686 0
 1294              		.cfi_startproc
 1295              		@ args = 0, pretend = 0, frame = 8
 1296              		@ frame_needed = 1, uses_anonymous_args = 0
 1297              		@ link register save eliminated.
 1298 0000 80B4     		push	{r7}
 1299              		.cfi_def_cfa_offset 4
ARM GAS  C:\Users\mattma1\AppData\Local\Temp\ccUnGUsl.s 			page 36


 1300              		.cfi_offset 7, -4
 1301 0002 83B0     		sub	sp, sp, #12
 1302              		.cfi_def_cfa_offset 16
 1303 0004 00AF     		add	r7, sp, #0
 1304              		.cfi_def_cfa_register 7
 1305 0006 0346     		mov	r3, r0
 1306 0008 FB71     		strb	r3, [r7, #7]
 687:Generated_Source\PSoC5/CyLib.c ****     CY_LIB_CLKDIST_MSTR1_REG = (CY_LIB_CLKDIST_MSTR1_REG & MASTER_CLK_SRC_CLEAR) |
 1307              		.loc 1 687 0
 1308 000a 0949     		ldr	r1, .L107
 1309 000c 084B     		ldr	r3, .L107
 1310 000e 1B78     		ldrb	r3, [r3]
 1311 0010 DBB2     		uxtb	r3, r3
 1312 0012 23F00303 		bic	r3, r3, #3
 1313 0016 DAB2     		uxtb	r2, r3
 1314 0018 FB79     		ldrb	r3, [r7, #7]
 1315 001a 03F00303 		and	r3, r3, #3
 1316 001e DBB2     		uxtb	r3, r3
 1317 0020 1343     		orrs	r3, r3, r2
 1318 0022 DBB2     		uxtb	r3, r3
 1319 0024 0B70     		strb	r3, [r1]
 688:Generated_Source\PSoC5/CyLib.c ****                                 (source & ((uint8)(~MASTER_CLK_SRC_CLEAR)));
 689:Generated_Source\PSoC5/CyLib.c **** }
 1320              		.loc 1 689 0
 1321 0026 00BF     		nop
 1322 0028 0C37     		adds	r7, r7, #12
 1323              		.cfi_def_cfa_offset 4
 1324 002a BD46     		mov	sp, r7
 1325              		.cfi_def_cfa_register 13
 1326              		@ sp needed
 1327 002c 80BC     		pop	{r7}
 1328              		.cfi_restore 7
 1329              		.cfi_def_cfa_offset 0
 1330 002e 7047     		bx	lr
 1331              	.L108:
 1332              		.align	2
 1333              	.L107:
 1334 0030 05400040 		.word	1073758213
 1335              		.cfi_endproc
 1336              	.LFE12:
 1337              		.size	CyMasterClk_SetSource, .-CyMasterClk_SetSource
 1338              		.section	.text.CyMasterClk_SetDivider,"ax",%progbits
 1339              		.align	2
 1340              		.global	CyMasterClk_SetDivider
 1341              		.thumb
 1342              		.thumb_func
 1343              		.type	CyMasterClk_SetDivider, %function
 1344              	CyMasterClk_SetDivider:
 1345              	.LFB13:
 690:Generated_Source\PSoC5/CyLib.c **** 
 691:Generated_Source\PSoC5/CyLib.c **** 
 692:Generated_Source\PSoC5/CyLib.c **** /*******************************************************************************
 693:Generated_Source\PSoC5/CyLib.c **** * Function Name: CyMasterClk_SetDivider
 694:Generated_Source\PSoC5/CyLib.c **** ****************************************************************************//**
 695:Generated_Source\PSoC5/CyLib.c **** *
 696:Generated_Source\PSoC5/CyLib.c **** *  Sets the divider value used to generate Master Clock.
 697:Generated_Source\PSoC5/CyLib.c **** *
ARM GAS  C:\Users\mattma1\AppData\Local\Temp\ccUnGUsl.s 			page 37


 698:Generated_Source\PSoC5/CyLib.c **** *  \param uint8 divider:
 699:Generated_Source\PSoC5/CyLib.c **** *   The valid range is [0-255]. The clock will be divided by this value + 1.
 700:Generated_Source\PSoC5/CyLib.c **** *   For example to divide this parameter by two should be set to 1.
 701:Generated_Source\PSoC5/CyLib.c **** *
 702:Generated_Source\PSoC5/CyLib.c **** * \sideeffect
 703:Generated_Source\PSoC5/CyLib.c **** *  If this function execution resulted in the CPU clock frequency increasing,
 704:Generated_Source\PSoC5/CyLib.c **** *  then the number of clock cycles the cache will wait before it samples data
 705:Generated_Source\PSoC5/CyLib.c **** *  coming back from the Flash must be adjusted by calling
 706:Generated_Source\PSoC5/CyLib.c **** *  CyFlash_SetWaitCycles() with an appropriate parameter. It can be optionally
 707:Generated_Source\PSoC5/CyLib.c **** *  called if the CPU clock frequency is lowered in order to improve the CPU
 708:Generated_Source\PSoC5/CyLib.c **** *  performance. See CyFlash_SetWaitCycles() description for more information.
 709:Generated_Source\PSoC5/CyLib.c **** *
 710:Generated_Source\PSoC5/CyLib.c **** *  When changing the Master or Bus clock divider value from div-by-n to div-by-1
 711:Generated_Source\PSoC5/CyLib.c **** *  the first clock cycle output after the div-by-1 can be up to 4 ns shorter
 712:Generated_Source\PSoC5/CyLib.c **** *  than the final/expected div-by-1 period.
 713:Generated_Source\PSoC5/CyLib.c **** *
 714:Generated_Source\PSoC5/CyLib.c **** *******************************************************************************/
 715:Generated_Source\PSoC5/CyLib.c **** void CyMasterClk_SetDivider(uint8 divider) 
 716:Generated_Source\PSoC5/CyLib.c **** {
 1346              		.loc 1 716 0
 1347              		.cfi_startproc
 1348              		@ args = 0, pretend = 0, frame = 8
 1349              		@ frame_needed = 1, uses_anonymous_args = 0
 1350              		@ link register save eliminated.
 1351 0000 80B4     		push	{r7}
 1352              		.cfi_def_cfa_offset 4
 1353              		.cfi_offset 7, -4
 1354 0002 83B0     		sub	sp, sp, #12
 1355              		.cfi_def_cfa_offset 16
 1356 0004 00AF     		add	r7, sp, #0
 1357              		.cfi_def_cfa_register 7
 1358 0006 0346     		mov	r3, r0
 1359 0008 FB71     		strb	r3, [r7, #7]
 717:Generated_Source\PSoC5/CyLib.c ****     CY_LIB_CLKDIST_MSTR0_REG = divider;
 1360              		.loc 1 717 0
 1361 000a 044A     		ldr	r2, .L110
 1362 000c FB79     		ldrb	r3, [r7, #7]
 1363 000e 1370     		strb	r3, [r2]
 718:Generated_Source\PSoC5/CyLib.c **** }
 1364              		.loc 1 718 0
 1365 0010 00BF     		nop
 1366 0012 0C37     		adds	r7, r7, #12
 1367              		.cfi_def_cfa_offset 4
 1368 0014 BD46     		mov	sp, r7
 1369              		.cfi_def_cfa_register 13
 1370              		@ sp needed
 1371 0016 80BC     		pop	{r7}
 1372              		.cfi_restore 7
 1373              		.cfi_def_cfa_offset 0
 1374 0018 7047     		bx	lr
 1375              	.L111:
 1376 001a 00BF     		.align	2
 1377              	.L110:
 1378 001c 04400040 		.word	1073758212
 1379              		.cfi_endproc
 1380              	.LFE13:
 1381              		.size	CyMasterClk_SetDivider, .-CyMasterClk_SetDivider
ARM GAS  C:\Users\mattma1\AppData\Local\Temp\ccUnGUsl.s 			page 38


 1382              		.section	.text.CyBusClk_Internal_SetDivider,"ax",%progbits
 1383              		.align	2
 1384              		.thumb
 1385              		.thumb_func
 1386              		.type	CyBusClk_Internal_SetDivider, %function
 1387              	CyBusClk_Internal_SetDivider:
 1388              	.LFB14:
 719:Generated_Source\PSoC5/CyLib.c **** 
 720:Generated_Source\PSoC5/CyLib.c **** 
 721:Generated_Source\PSoC5/CyLib.c **** /*******************************************************************************
 722:Generated_Source\PSoC5/CyLib.c **** * Function Name: CyBusClk_Internal_SetDivider
 723:Generated_Source\PSoC5/CyLib.c **** ****************************************************************************//**
 724:Generated_Source\PSoC5/CyLib.c **** *
 725:Generated_Source\PSoC5/CyLib.c **** *  The function used by CyBusClk_SetDivider(). For internal use only.
 726:Generated_Source\PSoC5/CyLib.c **** *
 727:Generated_Source\PSoC5/CyLib.c **** *   \param divider: Valid range [0-65535].
 728:Generated_Source\PSoC5/CyLib.c **** *   The clock will be divided by this value + 1.
 729:Generated_Source\PSoC5/CyLib.c **** *   For example, to divide this parameter by two should be set to 1.
 730:Generated_Source\PSoC5/CyLib.c **** *
 731:Generated_Source\PSoC5/CyLib.c **** *******************************************************************************/
 732:Generated_Source\PSoC5/CyLib.c **** static void CyBusClk_Internal_SetDivider(uint16 divider)
 733:Generated_Source\PSoC5/CyLib.c **** {
 1389              		.loc 1 733 0
 1390              		.cfi_startproc
 1391              		@ args = 0, pretend = 0, frame = 8
 1392              		@ frame_needed = 1, uses_anonymous_args = 0
 1393              		@ link register save eliminated.
 1394 0000 80B4     		push	{r7}
 1395              		.cfi_def_cfa_offset 4
 1396              		.cfi_offset 7, -4
 1397 0002 83B0     		sub	sp, sp, #12
 1398              		.cfi_def_cfa_offset 16
 1399 0004 00AF     		add	r7, sp, #0
 1400              		.cfi_def_cfa_register 7
 1401 0006 0346     		mov	r3, r0
 1402 0008 FB80     		strh	r3, [r7, #6]	@ movhi
 734:Generated_Source\PSoC5/CyLib.c ****     /* Mask bits to enable shadow loads  */
 735:Generated_Source\PSoC5/CyLib.c ****     CY_LIB_CLKDIST_AMASK_REG &= CY_LIB_CLKDIST_AMASK_MASK;
 1403              		.loc 1 735 0
 1404 000a 154A     		ldr	r2, .L113
 1405 000c 144B     		ldr	r3, .L113
 1406 000e 1B78     		ldrb	r3, [r3]
 1407 0010 DBB2     		uxtb	r3, r3
 1408 0012 23F00F03 		bic	r3, r3, #15
 1409 0016 DBB2     		uxtb	r3, r3
 1410 0018 1370     		strb	r3, [r2]
 736:Generated_Source\PSoC5/CyLib.c ****     CY_LIB_CLKDIST_DMASK_REG  = CY_LIB_CLKDIST_DMASK_MASK;
 1411              		.loc 1 736 0
 1412 001a 124B     		ldr	r3, .L113+4
 1413 001c 0022     		movs	r2, #0
 1414 001e 1A70     		strb	r2, [r3]
 737:Generated_Source\PSoC5/CyLib.c **** 
 738:Generated_Source\PSoC5/CyLib.c ****     /* Enable mask bits to enable shadow loads */
 739:Generated_Source\PSoC5/CyLib.c ****     CY_LIB_CLKDIST_BCFG2_REG |= CY_LIB_CLKDIST_BCFG2_MASK;
 1415              		.loc 1 739 0
 1416 0020 114A     		ldr	r2, .L113+8
 1417 0022 114B     		ldr	r3, .L113+8
ARM GAS  C:\Users\mattma1\AppData\Local\Temp\ccUnGUsl.s 			page 39


 1418 0024 1B78     		ldrb	r3, [r3]
 1419 0026 DBB2     		uxtb	r3, r3
 1420 0028 63F07F03 		orn	r3, r3, #127
 1421 002c DBB2     		uxtb	r3, r3
 1422 002e 1370     		strb	r3, [r2]
 740:Generated_Source\PSoC5/CyLib.c **** 
 741:Generated_Source\PSoC5/CyLib.c ****     /* Update Shadow Divider Value Register with new divider */
 742:Generated_Source\PSoC5/CyLib.c ****     CY_LIB_CLKDIST_WRK_LSB_REG = LO8(divider);
 1423              		.loc 1 742 0
 1424 0030 0E4B     		ldr	r3, .L113+12
 1425 0032 FA88     		ldrh	r2, [r7, #6]	@ movhi
 1426 0034 D2B2     		uxtb	r2, r2
 1427 0036 1A70     		strb	r2, [r3]
 743:Generated_Source\PSoC5/CyLib.c ****     CY_LIB_CLKDIST_WRK_MSB_REG = HI8(divider);
 1428              		.loc 1 743 0
 1429 0038 0D4A     		ldr	r2, .L113+16
 1430 003a FB88     		ldrh	r3, [r7, #6]
 1431 003c 1B0A     		lsrs	r3, r3, #8
 1432 003e 9BB2     		uxth	r3, r3
 1433 0040 DBB2     		uxtb	r3, r3
 1434 0042 1370     		strb	r3, [r2]
 744:Generated_Source\PSoC5/CyLib.c **** 
 745:Generated_Source\PSoC5/CyLib.c **** 
 746:Generated_Source\PSoC5/CyLib.c ****     /***************************************************************************
 747:Generated_Source\PSoC5/CyLib.c ****     * Copy shadow value defined in Shadow Divider Value Register
 748:Generated_Source\PSoC5/CyLib.c ****     * (CY_LIB_CLKDIST_WRK_LSB_REG and CY_LIB_CLKDIST_WRK_MSB_REG) to all
 749:Generated_Source\PSoC5/CyLib.c ****     * dividers selected in Analog and Digital Clock Mask Registers
 750:Generated_Source\PSoC5/CyLib.c ****     * (CY_LIB_CLKDIST_AMASK_REG and CY_LIB_CLKDIST_DMASK_REG).
 751:Generated_Source\PSoC5/CyLib.c ****     ***************************************************************************/
 752:Generated_Source\PSoC5/CyLib.c ****     CY_LIB_CLKDIST_LD_REG |= CY_LIB_CLKDIST_LD_LOAD;
 1435              		.loc 1 752 0
 1436 0044 0B4A     		ldr	r2, .L113+20
 1437 0046 0B4B     		ldr	r3, .L113+20
 1438 0048 1B78     		ldrb	r3, [r3]
 1439 004a DBB2     		uxtb	r3, r3
 1440 004c 43F00103 		orr	r3, r3, #1
 1441 0050 DBB2     		uxtb	r3, r3
 1442 0052 1370     		strb	r3, [r2]
 753:Generated_Source\PSoC5/CyLib.c **** }
 1443              		.loc 1 753 0
 1444 0054 00BF     		nop
 1445 0056 0C37     		adds	r7, r7, #12
 1446              		.cfi_def_cfa_offset 4
 1447 0058 BD46     		mov	sp, r7
 1448              		.cfi_def_cfa_register 13
 1449              		@ sp needed
 1450 005a 80BC     		pop	{r7}
 1451              		.cfi_restore 7
 1452              		.cfi_def_cfa_offset 0
 1453 005c 7047     		bx	lr
 1454              	.L114:
 1455 005e 00BF     		.align	2
 1456              	.L113:
 1457 0060 14400040 		.word	1073758228
 1458 0064 10400040 		.word	1073758224
 1459 0068 08400040 		.word	1073758216
 1460 006c 02400040 		.word	1073758210
ARM GAS  C:\Users\mattma1\AppData\Local\Temp\ccUnGUsl.s 			page 40


 1461 0070 03400040 		.word	1073758211
 1462 0074 01400040 		.word	1073758209
 1463              		.cfi_endproc
 1464              	.LFE14:
 1465              		.size	CyBusClk_Internal_SetDivider, .-CyBusClk_Internal_SetDivider
 1466              		.section	.text.CyBusClk_SetDivider,"ax",%progbits
 1467              		.align	2
 1468              		.global	CyBusClk_SetDivider
 1469              		.thumb
 1470              		.thumb_func
 1471              		.type	CyBusClk_SetDivider, %function
 1472              	CyBusClk_SetDivider:
 1473              	.LFB15:
 754:Generated_Source\PSoC5/CyLib.c **** 
 755:Generated_Source\PSoC5/CyLib.c **** 
 756:Generated_Source\PSoC5/CyLib.c **** /*******************************************************************************
 757:Generated_Source\PSoC5/CyLib.c **** * Function Name: CyBusClk_SetDivider
 758:Generated_Source\PSoC5/CyLib.c **** ****************************************************************************//**
 759:Generated_Source\PSoC5/CyLib.c **** *
 760:Generated_Source\PSoC5/CyLib.c **** *  Sets the divider value used to generate the Bus Clock.
 761:Generated_Source\PSoC5/CyLib.c **** *
 762:Generated_Source\PSoC5/CyLib.c **** *  \param divider: Valid range [0-65535]. The clock will be divided by this value + 1.
 763:Generated_Source\PSoC5/CyLib.c **** *  For example, to divide this parameter by two should be set to 1.
 764:Generated_Source\PSoC5/CyLib.c **** *
 765:Generated_Source\PSoC5/CyLib.c **** * \sideeffect
 766:Generated_Source\PSoC5/CyLib.c **** *  If this function execution resulted in the CPU clock frequency increasing,
 767:Generated_Source\PSoC5/CyLib.c **** *  then the number of clock cycles the cache will wait before it samples data
 768:Generated_Source\PSoC5/CyLib.c **** *  coming back from the Flash must be adjusted by calling
 769:Generated_Source\PSoC5/CyLib.c **** *  CyFlash_SetWaitCycles() with an appropriate parameter. It can be optionally
 770:Generated_Source\PSoC5/CyLib.c **** *  called if the CPU clock frequency is lowered in order to improve the CPU
 771:Generated_Source\PSoC5/CyLib.c **** *  performance. See CyFlash_SetWaitCycles() description for more information.
 772:Generated_Source\PSoC5/CyLib.c **** *
 773:Generated_Source\PSoC5/CyLib.c **** *******************************************************************************/
 774:Generated_Source\PSoC5/CyLib.c **** void CyBusClk_SetDivider(uint16 divider) 
 775:Generated_Source\PSoC5/CyLib.c **** {
 1474              		.loc 1 775 0
 1475              		.cfi_startproc
 1476              		@ args = 0, pretend = 0, frame = 16
 1477              		@ frame_needed = 1, uses_anonymous_args = 0
 1478 0000 80B5     		push	{r7, lr}
 1479              		.cfi_def_cfa_offset 8
 1480              		.cfi_offset 7, -8
 1481              		.cfi_offset 14, -4
 1482 0002 84B0     		sub	sp, sp, #16
 1483              		.cfi_def_cfa_offset 24
 1484 0004 00AF     		add	r7, sp, #0
 1485              		.cfi_def_cfa_register 7
 1486 0006 0346     		mov	r3, r0
 1487 0008 FB80     		strh	r3, [r7, #6]	@ movhi
 776:Generated_Source\PSoC5/CyLib.c ****     uint8  masterClkDiv;
 777:Generated_Source\PSoC5/CyLib.c ****     uint16 busClkDiv;
 778:Generated_Source\PSoC5/CyLib.c ****     uint8 interruptState;
 779:Generated_Source\PSoC5/CyLib.c **** 
 780:Generated_Source\PSoC5/CyLib.c ****     interruptState = CyEnterCriticalSection();
 1488              		.loc 1 780 0
 1489 000a FFF7FEFF 		bl	CyEnterCriticalSection
 1490 000e 0346     		mov	r3, r0
ARM GAS  C:\Users\mattma1\AppData\Local\Temp\ccUnGUsl.s 			page 41


 1491 0010 FB73     		strb	r3, [r7, #15]
 781:Generated_Source\PSoC5/CyLib.c **** 
 782:Generated_Source\PSoC5/CyLib.c ****     /* Work around to set bus clock divider value */
 783:Generated_Source\PSoC5/CyLib.c ****     busClkDiv = (uint16)((uint16)CY_LIB_CLKDIST_BCFG_MSB_REG << 8u);
 1492              		.loc 1 783 0
 1493 0012 244B     		ldr	r3, .L122
 1494 0014 1B78     		ldrb	r3, [r3]
 1495 0016 DBB2     		uxtb	r3, r3
 1496 0018 9BB2     		uxth	r3, r3
 1497 001a 1B02     		lsls	r3, r3, #8
 1498 001c BB81     		strh	r3, [r7, #12]	@ movhi
 784:Generated_Source\PSoC5/CyLib.c ****     busClkDiv |= CY_LIB_CLKDIST_BCFG_LSB_REG;
 1499              		.loc 1 784 0
 1500 001e 224B     		ldr	r3, .L122+4
 1501 0020 1B78     		ldrb	r3, [r3]
 1502 0022 DBB2     		uxtb	r3, r3
 1503 0024 9AB2     		uxth	r2, r3
 1504 0026 BB89     		ldrh	r3, [r7, #12]	@ movhi
 1505 0028 1343     		orrs	r3, r3, r2
 1506 002a BB81     		strh	r3, [r7, #12]	@ movhi
 785:Generated_Source\PSoC5/CyLib.c **** 
 786:Generated_Source\PSoC5/CyLib.c ****     if ((divider == 0u) || (busClkDiv == 0u))
 1507              		.loc 1 786 0
 1508 002c FB88     		ldrh	r3, [r7, #6]
 1509 002e 002B     		cmp	r3, #0
 1510 0030 02D0     		beq	.L116
 1511              		.loc 1 786 0 is_stmt 0 discriminator 1
 1512 0032 BB89     		ldrh	r3, [r7, #12]
 1513 0034 002B     		cmp	r3, #0
 1514 0036 29D1     		bne	.L117
 1515              	.L116:
 787:Generated_Source\PSoC5/CyLib.c ****     {
 788:Generated_Source\PSoC5/CyLib.c ****         /* Save away master clock divider value */
 789:Generated_Source\PSoC5/CyLib.c ****         masterClkDiv = CY_LIB_CLKDIST_MSTR0_REG;
 1516              		.loc 1 789 0 is_stmt 1
 1517 0038 1C4B     		ldr	r3, .L122+8
 1518 003a 1B78     		ldrb	r3, [r3]
 1519 003c FB72     		strb	r3, [r7, #11]
 790:Generated_Source\PSoC5/CyLib.c **** 
 791:Generated_Source\PSoC5/CyLib.c ****         if (masterClkDiv < CY_LIB_CLKDIST_MASTERCLK_DIV)
 1520              		.loc 1 791 0
 1521 003e FB7A     		ldrb	r3, [r7, #11]	@ zero_extendqisi2
 1522 0040 062B     		cmp	r3, #6
 1523 0042 02D8     		bhi	.L118
 792:Generated_Source\PSoC5/CyLib.c ****         {
 793:Generated_Source\PSoC5/CyLib.c ****             /* Set master clock divider to 7 */
 794:Generated_Source\PSoC5/CyLib.c ****             CyMasterClk_SetDivider(CY_LIB_CLKDIST_MASTERCLK_DIV);
 1524              		.loc 1 794 0
 1525 0044 0720     		movs	r0, #7
 1526 0046 FFF7FEFF 		bl	CyMasterClk_SetDivider
 1527              	.L118:
 795:Generated_Source\PSoC5/CyLib.c ****         }
 796:Generated_Source\PSoC5/CyLib.c **** 
 797:Generated_Source\PSoC5/CyLib.c ****         if (divider == 0u)
 1528              		.loc 1 797 0
 1529 004a FB88     		ldrh	r3, [r7, #6]
 1530 004c 002B     		cmp	r3, #0
ARM GAS  C:\Users\mattma1\AppData\Local\Temp\ccUnGUsl.s 			page 42


 1531 004e 0CD1     		bne	.L119
 798:Generated_Source\PSoC5/CyLib.c ****         {
 799:Generated_Source\PSoC5/CyLib.c ****             /* Set SSS bit and divider register desired value */
 800:Generated_Source\PSoC5/CyLib.c ****             CY_LIB_CLKDIST_BCFG2_REG |= CY_LIB_CLKDIST_BCFG2_SSS;
 1532              		.loc 1 800 0
 1533 0050 174A     		ldr	r2, .L122+12
 1534 0052 174B     		ldr	r3, .L122+12
 1535 0054 1B78     		ldrb	r3, [r3]
 1536 0056 DBB2     		uxtb	r3, r3
 1537 0058 43F04003 		orr	r3, r3, #64
 1538 005c DBB2     		uxtb	r3, r3
 1539 005e 1370     		strb	r3, [r2]
 801:Generated_Source\PSoC5/CyLib.c ****             CyBusClk_Internal_SetDivider(divider);
 1540              		.loc 1 801 0
 1541 0060 FB88     		ldrh	r3, [r7, #6]
 1542 0062 1846     		mov	r0, r3
 1543 0064 FFF7FEFF 		bl	CyBusClk_Internal_SetDivider
 1544 0068 0BE0     		b	.L120
 1545              	.L119:
 802:Generated_Source\PSoC5/CyLib.c ****         }
 803:Generated_Source\PSoC5/CyLib.c ****         else
 804:Generated_Source\PSoC5/CyLib.c ****         {
 805:Generated_Source\PSoC5/CyLib.c ****             CyBusClk_Internal_SetDivider(divider);
 1546              		.loc 1 805 0
 1547 006a FB88     		ldrh	r3, [r7, #6]
 1548 006c 1846     		mov	r0, r3
 1549 006e FFF7FEFF 		bl	CyBusClk_Internal_SetDivider
 806:Generated_Source\PSoC5/CyLib.c ****             CY_LIB_CLKDIST_BCFG2_REG &= ((uint8)(~CY_LIB_CLKDIST_BCFG2_SSS));
 1550              		.loc 1 806 0
 1551 0072 0F4A     		ldr	r2, .L122+12
 1552 0074 0E4B     		ldr	r3, .L122+12
 1553 0076 1B78     		ldrb	r3, [r3]
 1554 0078 DBB2     		uxtb	r3, r3
 1555 007a 23F04003 		bic	r3, r3, #64
 1556 007e DBB2     		uxtb	r3, r3
 1557 0080 1370     		strb	r3, [r2]
 1558              	.L120:
 807:Generated_Source\PSoC5/CyLib.c ****         }
 808:Generated_Source\PSoC5/CyLib.c **** 
 809:Generated_Source\PSoC5/CyLib.c ****         /* Restore master clock */
 810:Generated_Source\PSoC5/CyLib.c ****         CyMasterClk_SetDivider(masterClkDiv);
 1559              		.loc 1 810 0
 1560 0082 FB7A     		ldrb	r3, [r7, #11]	@ zero_extendqisi2
 1561 0084 1846     		mov	r0, r3
 1562 0086 FFF7FEFF 		bl	CyMasterClk_SetDivider
 1563 008a 03E0     		b	.L121
 1564              	.L117:
 811:Generated_Source\PSoC5/CyLib.c ****     }
 812:Generated_Source\PSoC5/CyLib.c ****     else
 813:Generated_Source\PSoC5/CyLib.c ****     {
 814:Generated_Source\PSoC5/CyLib.c ****         CyBusClk_Internal_SetDivider(divider);
 1565              		.loc 1 814 0
 1566 008c FB88     		ldrh	r3, [r7, #6]
 1567 008e 1846     		mov	r0, r3
 1568 0090 FFF7FEFF 		bl	CyBusClk_Internal_SetDivider
 1569              	.L121:
 815:Generated_Source\PSoC5/CyLib.c ****     }
ARM GAS  C:\Users\mattma1\AppData\Local\Temp\ccUnGUsl.s 			page 43


 816:Generated_Source\PSoC5/CyLib.c **** 
 817:Generated_Source\PSoC5/CyLib.c ****     CyExitCriticalSection(interruptState);
 1570              		.loc 1 817 0
 1571 0094 FB7B     		ldrb	r3, [r7, #15]	@ zero_extendqisi2
 1572 0096 1846     		mov	r0, r3
 1573 0098 FFF7FEFF 		bl	CyExitCriticalSection
 818:Generated_Source\PSoC5/CyLib.c **** }
 1574              		.loc 1 818 0
 1575 009c 00BF     		nop
 1576 009e 1037     		adds	r7, r7, #16
 1577              		.cfi_def_cfa_offset 8
 1578 00a0 BD46     		mov	sp, r7
 1579              		.cfi_def_cfa_register 13
 1580              		@ sp needed
 1581 00a2 80BD     		pop	{r7, pc}
 1582              	.L123:
 1583              		.align	2
 1584              	.L122:
 1585 00a4 07400040 		.word	1073758215
 1586 00a8 06400040 		.word	1073758214
 1587 00ac 04400040 		.word	1073758212
 1588 00b0 08400040 		.word	1073758216
 1589              		.cfi_endproc
 1590              	.LFE15:
 1591              		.size	CyBusClk_SetDivider, .-CyBusClk_SetDivider
 1592              		.section	.text.CyUsbClk_SetSource,"ax",%progbits
 1593              		.align	2
 1594              		.global	CyUsbClk_SetSource
 1595              		.thumb
 1596              		.thumb_func
 1597              		.type	CyUsbClk_SetSource, %function
 1598              	CyUsbClk_SetSource:
 1599              	.LFB16:
 819:Generated_Source\PSoC5/CyLib.c **** 
 820:Generated_Source\PSoC5/CyLib.c **** 
 821:Generated_Source\PSoC5/CyLib.c **** #if(CY_PSOC3)
 822:Generated_Source\PSoC5/CyLib.c **** 
 823:Generated_Source\PSoC5/CyLib.c ****     /*******************************************************************************
 824:Generated_Source\PSoC5/CyLib.c ****     * Function Name: CyCpuClk_SetDivider
 825:Generated_Source\PSoC5/CyLib.c ****     ****************************************************************************//**
 826:Generated_Source\PSoC5/CyLib.c ****     *
 827:Generated_Source\PSoC5/CyLib.c ****     *  Sets the divider value used to generate the CPU Clock. Only applicable for
 828:Generated_Source\PSoC5/CyLib.c ****     *  PSoC 3 parts.
 829:Generated_Source\PSoC5/CyLib.c ****     *
 830:Generated_Source\PSoC5/CyLib.c ****     *  \param divider: Valid range [0-15]. The clock will be divided by this value + 1.
 831:Generated_Source\PSoC5/CyLib.c ****     *  For example, to divide this parameter by two should be set to 1.
 832:Generated_Source\PSoC5/CyLib.c ****     *
 833:Generated_Source\PSoC5/CyLib.c ****     * \sideeffect
 834:Generated_Source\PSoC5/CyLib.c ****     *  If this function execution resulted in the CPU clock frequency increasing,
 835:Generated_Source\PSoC5/CyLib.c ****     *  then the number of clock cycles the cache will wait before it samples data
 836:Generated_Source\PSoC5/CyLib.c ****     *  coming back from the Flash must be adjusted by calling
 837:Generated_Source\PSoC5/CyLib.c ****     *  CyFlash_SetWaitCycles() with an appropriate parameter. It can be optionally
 838:Generated_Source\PSoC5/CyLib.c ****     *  called if the CPU clock frequency is lowered in order to improve the CPU
 839:Generated_Source\PSoC5/CyLib.c ****     *  performance. See CyFlash_SetWaitCycles() description for more information.
 840:Generated_Source\PSoC5/CyLib.c ****     *
 841:Generated_Source\PSoC5/CyLib.c ****     *******************************************************************************/
 842:Generated_Source\PSoC5/CyLib.c ****     void CyCpuClk_SetDivider(uint8 divider) 
ARM GAS  C:\Users\mattma1\AppData\Local\Temp\ccUnGUsl.s 			page 44


 843:Generated_Source\PSoC5/CyLib.c ****     {
 844:Generated_Source\PSoC5/CyLib.c ****             CY_LIB_CLKDIST_MSTR1_REG = (CY_LIB_CLKDIST_MSTR1_REG & CY_LIB_CLKDIST_MSTR1_DIV_MASK) |
 845:Generated_Source\PSoC5/CyLib.c ****                                 ((uint8)(divider << CY_LIB_CLKDIST_DIV_POSITION));
 846:Generated_Source\PSoC5/CyLib.c ****     }
 847:Generated_Source\PSoC5/CyLib.c **** 
 848:Generated_Source\PSoC5/CyLib.c **** #endif /* (CY_PSOC3) */
 849:Generated_Source\PSoC5/CyLib.c **** 
 850:Generated_Source\PSoC5/CyLib.c **** 
 851:Generated_Source\PSoC5/CyLib.c **** /*******************************************************************************
 852:Generated_Source\PSoC5/CyLib.c **** * Function Name: CyUsbClk_SetSource
 853:Generated_Source\PSoC5/CyLib.c **** ****************************************************************************//**
 854:Generated_Source\PSoC5/CyLib.c **** *
 855:Generated_Source\PSoC5/CyLib.c **** *  Sets the source of the USB clock.
 856:Generated_Source\PSoC5/CyLib.c **** *
 857:Generated_Source\PSoC5/CyLib.c **** *  \param source: One of the four available USB clock sources
 858:Generated_Source\PSoC5/CyLib.c **** *    CY_LIB_USB_CLK_IMO2X     - IMO 2x
 859:Generated_Source\PSoC5/CyLib.c **** *    CY_LIB_USB_CLK_IMO       - IMO
 860:Generated_Source\PSoC5/CyLib.c **** *    CY_LIB_USB_CLK_PLL       - PLL
 861:Generated_Source\PSoC5/CyLib.c **** *    CY_LIB_USB_CLK_DSI       - DSI
 862:Generated_Source\PSoC5/CyLib.c **** *
 863:Generated_Source\PSoC5/CyLib.c **** *******************************************************************************/
 864:Generated_Source\PSoC5/CyLib.c **** void CyUsbClk_SetSource(uint8 source) 
 865:Generated_Source\PSoC5/CyLib.c **** {
 1600              		.loc 1 865 0
 1601              		.cfi_startproc
 1602              		@ args = 0, pretend = 0, frame = 8
 1603              		@ frame_needed = 1, uses_anonymous_args = 0
 1604              		@ link register save eliminated.
 1605 0000 80B4     		push	{r7}
 1606              		.cfi_def_cfa_offset 4
 1607              		.cfi_offset 7, -4
 1608 0002 83B0     		sub	sp, sp, #12
 1609              		.cfi_def_cfa_offset 16
 1610 0004 00AF     		add	r7, sp, #0
 1611              		.cfi_def_cfa_register 7
 1612 0006 0346     		mov	r3, r0
 1613 0008 FB71     		strb	r3, [r7, #7]
 866:Generated_Source\PSoC5/CyLib.c ****     CY_LIB_CLKDIST_UCFG_REG = (CY_LIB_CLKDIST_UCFG_REG & ((uint8)(~CY_LIB_CLKDIST_UCFG_SRC_SEL_MASK
 1614              		.loc 1 866 0
 1615 000a 0949     		ldr	r1, .L125
 1616 000c 084B     		ldr	r3, .L125
 1617 000e 1B78     		ldrb	r3, [r3]
 1618 0010 DBB2     		uxtb	r3, r3
 1619 0012 23F00303 		bic	r3, r3, #3
 1620 0016 DAB2     		uxtb	r2, r3
 1621 0018 FB79     		ldrb	r3, [r7, #7]
 1622 001a 03F00303 		and	r3, r3, #3
 1623 001e DBB2     		uxtb	r3, r3
 1624 0020 1343     		orrs	r3, r3, r2
 1625 0022 DBB2     		uxtb	r3, r3
 1626 0024 0B70     		strb	r3, [r1]
 867:Generated_Source\PSoC5/CyLib.c ****                         (CY_LIB_CLKDIST_UCFG_SRC_SEL_MASK & source);
 868:Generated_Source\PSoC5/CyLib.c **** }
 1627              		.loc 1 868 0
 1628 0026 00BF     		nop
 1629 0028 0C37     		adds	r7, r7, #12
 1630              		.cfi_def_cfa_offset 4
ARM GAS  C:\Users\mattma1\AppData\Local\Temp\ccUnGUsl.s 			page 45


 1631 002a BD46     		mov	sp, r7
 1632              		.cfi_def_cfa_register 13
 1633              		@ sp needed
 1634 002c 80BC     		pop	{r7}
 1635              		.cfi_restore 7
 1636              		.cfi_def_cfa_offset 0
 1637 002e 7047     		bx	lr
 1638              	.L126:
 1639              		.align	2
 1640              	.L125:
 1641 0030 09400040 		.word	1073758217
 1642              		.cfi_endproc
 1643              	.LFE16:
 1644              		.size	CyUsbClk_SetSource, .-CyUsbClk_SetSource
 1645              		.section	.text.CyILO_Start1K,"ax",%progbits
 1646              		.align	2
 1647              		.global	CyILO_Start1K
 1648              		.thumb
 1649              		.thumb_func
 1650              		.type	CyILO_Start1K, %function
 1651              	CyILO_Start1K:
 1652              	.LFB17:
 869:Generated_Source\PSoC5/CyLib.c **** 
 870:Generated_Source\PSoC5/CyLib.c **** 
 871:Generated_Source\PSoC5/CyLib.c **** /*******************************************************************************
 872:Generated_Source\PSoC5/CyLib.c **** * Function Name: CyILO_Start1K
 873:Generated_Source\PSoC5/CyLib.c **** ****************************************************************************//**
 874:Generated_Source\PSoC5/CyLib.c **** *
 875:Generated_Source\PSoC5/CyLib.c **** *  Enables the ILO 1 KHz oscillator.
 876:Generated_Source\PSoC5/CyLib.c **** *
 877:Generated_Source\PSoC5/CyLib.c **** *  Note The ILO 1 KHz oscillator is always enabled by default, regardless of the
 878:Generated_Source\PSoC5/CyLib.c **** *  selection in the Clock Editor. Therefore, this API is only needed if the
 879:Generated_Source\PSoC5/CyLib.c **** *  oscillator was turned off manually.
 880:Generated_Source\PSoC5/CyLib.c **** *
 881:Generated_Source\PSoC5/CyLib.c **** *******************************************************************************/
 882:Generated_Source\PSoC5/CyLib.c **** void CyILO_Start1K(void) 
 883:Generated_Source\PSoC5/CyLib.c **** {
 1653              		.loc 1 883 0
 1654              		.cfi_startproc
 1655              		@ args = 0, pretend = 0, frame = 0
 1656              		@ frame_needed = 1, uses_anonymous_args = 0
 1657              		@ link register save eliminated.
 1658 0000 80B4     		push	{r7}
 1659              		.cfi_def_cfa_offset 4
 1660              		.cfi_offset 7, -4
 1661 0002 00AF     		add	r7, sp, #0
 1662              		.cfi_def_cfa_register 7
 884:Generated_Source\PSoC5/CyLib.c ****     /* Set bit 1 of ILO RS */
 885:Generated_Source\PSoC5/CyLib.c ****     CY_LIB_SLOWCLK_ILO_CR0_REG |= CY_LIB_SLOWCLK_ILO_CR0_EN_1KHZ;
 1663              		.loc 1 885 0
 1664 0004 054A     		ldr	r2, .L128
 1665 0006 054B     		ldr	r3, .L128
 1666 0008 1B78     		ldrb	r3, [r3]
 1667 000a DBB2     		uxtb	r3, r3
 1668 000c 43F00203 		orr	r3, r3, #2
 1669 0010 DBB2     		uxtb	r3, r3
 1670 0012 1370     		strb	r3, [r2]
ARM GAS  C:\Users\mattma1\AppData\Local\Temp\ccUnGUsl.s 			page 46


 886:Generated_Source\PSoC5/CyLib.c **** }
 1671              		.loc 1 886 0
 1672 0014 00BF     		nop
 1673 0016 BD46     		mov	sp, r7
 1674              		.cfi_def_cfa_register 13
 1675              		@ sp needed
 1676 0018 80BC     		pop	{r7}
 1677              		.cfi_restore 7
 1678              		.cfi_def_cfa_offset 0
 1679 001a 7047     		bx	lr
 1680              	.L129:
 1681              		.align	2
 1682              	.L128:
 1683 001c 00430040 		.word	1073758976
 1684              		.cfi_endproc
 1685              	.LFE17:
 1686              		.size	CyILO_Start1K, .-CyILO_Start1K
 1687              		.section	.text.CyILO_Stop1K,"ax",%progbits
 1688              		.align	2
 1689              		.global	CyILO_Stop1K
 1690              		.thumb
 1691              		.thumb_func
 1692              		.type	CyILO_Stop1K, %function
 1693              	CyILO_Stop1K:
 1694              	.LFB18:
 887:Generated_Source\PSoC5/CyLib.c **** 
 888:Generated_Source\PSoC5/CyLib.c **** 
 889:Generated_Source\PSoC5/CyLib.c **** /*******************************************************************************
 890:Generated_Source\PSoC5/CyLib.c **** * Function Name: CyILO_Stop1K
 891:Generated_Source\PSoC5/CyLib.c **** ****************************************************************************//**
 892:Generated_Source\PSoC5/CyLib.c **** *
 893:Generated_Source\PSoC5/CyLib.c **** *  Disables the ILO 1 KHz oscillator.
 894:Generated_Source\PSoC5/CyLib.c **** *
 895:Generated_Source\PSoC5/CyLib.c **** *  Note The ILO 1 KHz oscillator must be enabled if the Sleep or Hibernate low
 896:Generated_Source\PSoC5/CyLib.c **** *  power mode APIs are expected to be used. For more information, refer to the
 897:Generated_Source\PSoC5/CyLib.c **** *  Power Management section of this document.
 898:Generated_Source\PSoC5/CyLib.c **** *
 899:Generated_Source\PSoC5/CyLib.c **** * \sideeffect
 900:Generated_Source\PSoC5/CyLib.c **** *  PSoC5: Stopping the ILO 1 kHz could break the active WDT functionality.
 901:Generated_Source\PSoC5/CyLib.c **** *
 902:Generated_Source\PSoC5/CyLib.c **** *******************************************************************************/
 903:Generated_Source\PSoC5/CyLib.c **** void CyILO_Stop1K(void) 
 904:Generated_Source\PSoC5/CyLib.c **** {
 1695              		.loc 1 904 0
 1696              		.cfi_startproc
 1697              		@ args = 0, pretend = 0, frame = 0
 1698              		@ frame_needed = 1, uses_anonymous_args = 0
 1699              		@ link register save eliminated.
 1700 0000 80B4     		push	{r7}
 1701              		.cfi_def_cfa_offset 4
 1702              		.cfi_offset 7, -4
 1703 0002 00AF     		add	r7, sp, #0
 1704              		.cfi_def_cfa_register 7
 905:Generated_Source\PSoC5/CyLib.c ****     /* Clear bit 1 of ILO RS */
 906:Generated_Source\PSoC5/CyLib.c ****     CY_LIB_SLOWCLK_ILO_CR0_REG &= ((uint8)(~CY_LIB_SLOWCLK_ILO_CR0_EN_1KHZ));
 1705              		.loc 1 906 0
 1706 0004 054A     		ldr	r2, .L131
ARM GAS  C:\Users\mattma1\AppData\Local\Temp\ccUnGUsl.s 			page 47


 1707 0006 054B     		ldr	r3, .L131
 1708 0008 1B78     		ldrb	r3, [r3]
 1709 000a DBB2     		uxtb	r3, r3
 1710 000c 23F00203 		bic	r3, r3, #2
 1711 0010 DBB2     		uxtb	r3, r3
 1712 0012 1370     		strb	r3, [r2]
 907:Generated_Source\PSoC5/CyLib.c **** }
 1713              		.loc 1 907 0
 1714 0014 00BF     		nop
 1715 0016 BD46     		mov	sp, r7
 1716              		.cfi_def_cfa_register 13
 1717              		@ sp needed
 1718 0018 80BC     		pop	{r7}
 1719              		.cfi_restore 7
 1720              		.cfi_def_cfa_offset 0
 1721 001a 7047     		bx	lr
 1722              	.L132:
 1723              		.align	2
 1724              	.L131:
 1725 001c 00430040 		.word	1073758976
 1726              		.cfi_endproc
 1727              	.LFE18:
 1728              		.size	CyILO_Stop1K, .-CyILO_Stop1K
 1729              		.section	.text.CyILO_Start100K,"ax",%progbits
 1730              		.align	2
 1731              		.global	CyILO_Start100K
 1732              		.thumb
 1733              		.thumb_func
 1734              		.type	CyILO_Start100K, %function
 1735              	CyILO_Start100K:
 1736              	.LFB19:
 908:Generated_Source\PSoC5/CyLib.c **** 
 909:Generated_Source\PSoC5/CyLib.c **** 
 910:Generated_Source\PSoC5/CyLib.c **** /*******************************************************************************
 911:Generated_Source\PSoC5/CyLib.c **** * Function Name: CyILO_Start100K
 912:Generated_Source\PSoC5/CyLib.c **** ****************************************************************************//**
 913:Generated_Source\PSoC5/CyLib.c **** *
 914:Generated_Source\PSoC5/CyLib.c **** *  Enables the ILO 100 KHz oscillator.
 915:Generated_Source\PSoC5/CyLib.c **** *
 916:Generated_Source\PSoC5/CyLib.c **** *******************************************************************************/
 917:Generated_Source\PSoC5/CyLib.c **** void CyILO_Start100K(void) 
 918:Generated_Source\PSoC5/CyLib.c **** {
 1737              		.loc 1 918 0
 1738              		.cfi_startproc
 1739              		@ args = 0, pretend = 0, frame = 0
 1740              		@ frame_needed = 1, uses_anonymous_args = 0
 1741              		@ link register save eliminated.
 1742 0000 80B4     		push	{r7}
 1743              		.cfi_def_cfa_offset 4
 1744              		.cfi_offset 7, -4
 1745 0002 00AF     		add	r7, sp, #0
 1746              		.cfi_def_cfa_register 7
 919:Generated_Source\PSoC5/CyLib.c ****     CY_LIB_SLOWCLK_ILO_CR0_REG |= CY_LIB_SLOWCLK_ILO_CR0_EN_100KHZ;
 1747              		.loc 1 919 0
 1748 0004 054A     		ldr	r2, .L134
 1749 0006 054B     		ldr	r3, .L134
 1750 0008 1B78     		ldrb	r3, [r3]
ARM GAS  C:\Users\mattma1\AppData\Local\Temp\ccUnGUsl.s 			page 48


 1751 000a DBB2     		uxtb	r3, r3
 1752 000c 43F00403 		orr	r3, r3, #4
 1753 0010 DBB2     		uxtb	r3, r3
 1754 0012 1370     		strb	r3, [r2]
 920:Generated_Source\PSoC5/CyLib.c **** }
 1755              		.loc 1 920 0
 1756 0014 00BF     		nop
 1757 0016 BD46     		mov	sp, r7
 1758              		.cfi_def_cfa_register 13
 1759              		@ sp needed
 1760 0018 80BC     		pop	{r7}
 1761              		.cfi_restore 7
 1762              		.cfi_def_cfa_offset 0
 1763 001a 7047     		bx	lr
 1764              	.L135:
 1765              		.align	2
 1766              	.L134:
 1767 001c 00430040 		.word	1073758976
 1768              		.cfi_endproc
 1769              	.LFE19:
 1770              		.size	CyILO_Start100K, .-CyILO_Start100K
 1771              		.section	.text.CyILO_Stop100K,"ax",%progbits
 1772              		.align	2
 1773              		.global	CyILO_Stop100K
 1774              		.thumb
 1775              		.thumb_func
 1776              		.type	CyILO_Stop100K, %function
 1777              	CyILO_Stop100K:
 1778              	.LFB20:
 921:Generated_Source\PSoC5/CyLib.c **** 
 922:Generated_Source\PSoC5/CyLib.c **** 
 923:Generated_Source\PSoC5/CyLib.c **** /*******************************************************************************
 924:Generated_Source\PSoC5/CyLib.c **** * Function Name: CyILO_Stop100K
 925:Generated_Source\PSoC5/CyLib.c **** ****************************************************************************//**
 926:Generated_Source\PSoC5/CyLib.c **** *
 927:Generated_Source\PSoC5/CyLib.c **** *  Disables the ILO 100 KHz oscillator.
 928:Generated_Source\PSoC5/CyLib.c **** *
 929:Generated_Source\PSoC5/CyLib.c **** *******************************************************************************/
 930:Generated_Source\PSoC5/CyLib.c **** void CyILO_Stop100K(void) 
 931:Generated_Source\PSoC5/CyLib.c **** {
 1779              		.loc 1 931 0
 1780              		.cfi_startproc
 1781              		@ args = 0, pretend = 0, frame = 0
 1782              		@ frame_needed = 1, uses_anonymous_args = 0
 1783              		@ link register save eliminated.
 1784 0000 80B4     		push	{r7}
 1785              		.cfi_def_cfa_offset 4
 1786              		.cfi_offset 7, -4
 1787 0002 00AF     		add	r7, sp, #0
 1788              		.cfi_def_cfa_register 7
 932:Generated_Source\PSoC5/CyLib.c ****     CY_LIB_SLOWCLK_ILO_CR0_REG &= ((uint8)(~CY_LIB_SLOWCLK_ILO_CR0_EN_100KHZ));
 1789              		.loc 1 932 0
 1790 0004 054A     		ldr	r2, .L137
 1791 0006 054B     		ldr	r3, .L137
 1792 0008 1B78     		ldrb	r3, [r3]
 1793 000a DBB2     		uxtb	r3, r3
 1794 000c 23F00403 		bic	r3, r3, #4
ARM GAS  C:\Users\mattma1\AppData\Local\Temp\ccUnGUsl.s 			page 49


 1795 0010 DBB2     		uxtb	r3, r3
 1796 0012 1370     		strb	r3, [r2]
 933:Generated_Source\PSoC5/CyLib.c **** }
 1797              		.loc 1 933 0
 1798 0014 00BF     		nop
 1799 0016 BD46     		mov	sp, r7
 1800              		.cfi_def_cfa_register 13
 1801              		@ sp needed
 1802 0018 80BC     		pop	{r7}
 1803              		.cfi_restore 7
 1804              		.cfi_def_cfa_offset 0
 1805 001a 7047     		bx	lr
 1806              	.L138:
 1807              		.align	2
 1808              	.L137:
 1809 001c 00430040 		.word	1073758976
 1810              		.cfi_endproc
 1811              	.LFE20:
 1812              		.size	CyILO_Stop100K, .-CyILO_Stop100K
 1813              		.section	.text.CyILO_Enable33K,"ax",%progbits
 1814              		.align	2
 1815              		.global	CyILO_Enable33K
 1816              		.thumb
 1817              		.thumb_func
 1818              		.type	CyILO_Enable33K, %function
 1819              	CyILO_Enable33K:
 1820              	.LFB21:
 934:Generated_Source\PSoC5/CyLib.c **** 
 935:Generated_Source\PSoC5/CyLib.c **** 
 936:Generated_Source\PSoC5/CyLib.c **** /*******************************************************************************
 937:Generated_Source\PSoC5/CyLib.c **** * Function Name: CyILO_Enable33K
 938:Generated_Source\PSoC5/CyLib.c **** ****************************************************************************//**
 939:Generated_Source\PSoC5/CyLib.c **** *
 940:Generated_Source\PSoC5/CyLib.c **** *  Enables the ILO 33 KHz divider.
 941:Generated_Source\PSoC5/CyLib.c **** *
 942:Generated_Source\PSoC5/CyLib.c **** *  Note that the 33 KHz clock is generated from the 100 KHz oscillator,
 943:Generated_Source\PSoC5/CyLib.c **** *  so it must also be running in order to generate the 33 KHz output.
 944:Generated_Source\PSoC5/CyLib.c **** *
 945:Generated_Source\PSoC5/CyLib.c **** *******************************************************************************/
 946:Generated_Source\PSoC5/CyLib.c **** void CyILO_Enable33K(void) 
 947:Generated_Source\PSoC5/CyLib.c **** {
 1821              		.loc 1 947 0
 1822              		.cfi_startproc
 1823              		@ args = 0, pretend = 0, frame = 0
 1824              		@ frame_needed = 1, uses_anonymous_args = 0
 1825              		@ link register save eliminated.
 1826 0000 80B4     		push	{r7}
 1827              		.cfi_def_cfa_offset 4
 1828              		.cfi_offset 7, -4
 1829 0002 00AF     		add	r7, sp, #0
 1830              		.cfi_def_cfa_register 7
 948:Generated_Source\PSoC5/CyLib.c ****     /* Set bit 5 of ILO RS */
 949:Generated_Source\PSoC5/CyLib.c ****     CY_LIB_SLOWCLK_ILO_CR0_REG |= CY_LIB_SLOWCLK_ILO_CR0_EN_33KHZ;
 1831              		.loc 1 949 0
 1832 0004 054A     		ldr	r2, .L140
 1833 0006 054B     		ldr	r3, .L140
 1834 0008 1B78     		ldrb	r3, [r3]
ARM GAS  C:\Users\mattma1\AppData\Local\Temp\ccUnGUsl.s 			page 50


 1835 000a DBB2     		uxtb	r3, r3
 1836 000c 43F02003 		orr	r3, r3, #32
 1837 0010 DBB2     		uxtb	r3, r3
 1838 0012 1370     		strb	r3, [r2]
 950:Generated_Source\PSoC5/CyLib.c **** }
 1839              		.loc 1 950 0
 1840 0014 00BF     		nop
 1841 0016 BD46     		mov	sp, r7
 1842              		.cfi_def_cfa_register 13
 1843              		@ sp needed
 1844 0018 80BC     		pop	{r7}
 1845              		.cfi_restore 7
 1846              		.cfi_def_cfa_offset 0
 1847 001a 7047     		bx	lr
 1848              	.L141:
 1849              		.align	2
 1850              	.L140:
 1851 001c 00430040 		.word	1073758976
 1852              		.cfi_endproc
 1853              	.LFE21:
 1854              		.size	CyILO_Enable33K, .-CyILO_Enable33K
 1855              		.section	.text.CyILO_Disable33K,"ax",%progbits
 1856              		.align	2
 1857              		.global	CyILO_Disable33K
 1858              		.thumb
 1859              		.thumb_func
 1860              		.type	CyILO_Disable33K, %function
 1861              	CyILO_Disable33K:
 1862              	.LFB22:
 951:Generated_Source\PSoC5/CyLib.c **** 
 952:Generated_Source\PSoC5/CyLib.c **** 
 953:Generated_Source\PSoC5/CyLib.c **** /*******************************************************************************
 954:Generated_Source\PSoC5/CyLib.c **** * Function Name: CyILO_Disable33K
 955:Generated_Source\PSoC5/CyLib.c **** ****************************************************************************//**
 956:Generated_Source\PSoC5/CyLib.c **** *
 957:Generated_Source\PSoC5/CyLib.c **** *  Disables the ILO 33 KHz divider.
 958:Generated_Source\PSoC5/CyLib.c **** *
 959:Generated_Source\PSoC5/CyLib.c **** *  Note that the 33 KHz clock is generated from the 100 KHz oscillator, but this
 960:Generated_Source\PSoC5/CyLib.c **** *  API does not disable the 100 KHz clock.
 961:Generated_Source\PSoC5/CyLib.c **** *
 962:Generated_Source\PSoC5/CyLib.c **** *******************************************************************************/
 963:Generated_Source\PSoC5/CyLib.c **** void CyILO_Disable33K(void) 
 964:Generated_Source\PSoC5/CyLib.c **** {
 1863              		.loc 1 964 0
 1864              		.cfi_startproc
 1865              		@ args = 0, pretend = 0, frame = 0
 1866              		@ frame_needed = 1, uses_anonymous_args = 0
 1867              		@ link register save eliminated.
 1868 0000 80B4     		push	{r7}
 1869              		.cfi_def_cfa_offset 4
 1870              		.cfi_offset 7, -4
 1871 0002 00AF     		add	r7, sp, #0
 1872              		.cfi_def_cfa_register 7
 965:Generated_Source\PSoC5/CyLib.c ****     CY_LIB_SLOWCLK_ILO_CR0_REG &= ((uint8)(~CY_LIB_SLOWCLK_ILO_CR0_EN_33KHZ));
 1873              		.loc 1 965 0
 1874 0004 054A     		ldr	r2, .L143
 1875 0006 054B     		ldr	r3, .L143
ARM GAS  C:\Users\mattma1\AppData\Local\Temp\ccUnGUsl.s 			page 51


 1876 0008 1B78     		ldrb	r3, [r3]
 1877 000a DBB2     		uxtb	r3, r3
 1878 000c 23F02003 		bic	r3, r3, #32
 1879 0010 DBB2     		uxtb	r3, r3
 1880 0012 1370     		strb	r3, [r2]
 966:Generated_Source\PSoC5/CyLib.c **** }
 1881              		.loc 1 966 0
 1882 0014 00BF     		nop
 1883 0016 BD46     		mov	sp, r7
 1884              		.cfi_def_cfa_register 13
 1885              		@ sp needed
 1886 0018 80BC     		pop	{r7}
 1887              		.cfi_restore 7
 1888              		.cfi_def_cfa_offset 0
 1889 001a 7047     		bx	lr
 1890              	.L144:
 1891              		.align	2
 1892              	.L143:
 1893 001c 00430040 		.word	1073758976
 1894              		.cfi_endproc
 1895              	.LFE22:
 1896              		.size	CyILO_Disable33K, .-CyILO_Disable33K
 1897              		.section	.text.CyILO_SetSource,"ax",%progbits
 1898              		.align	2
 1899              		.global	CyILO_SetSource
 1900              		.thumb
 1901              		.thumb_func
 1902              		.type	CyILO_SetSource, %function
 1903              	CyILO_SetSource:
 1904              	.LFB23:
 967:Generated_Source\PSoC5/CyLib.c **** 
 968:Generated_Source\PSoC5/CyLib.c **** 
 969:Generated_Source\PSoC5/CyLib.c **** /*******************************************************************************
 970:Generated_Source\PSoC5/CyLib.c **** * Function Name: CyILO_SetSource
 971:Generated_Source\PSoC5/CyLib.c **** ****************************************************************************//**
 972:Generated_Source\PSoC5/CyLib.c **** *
 973:Generated_Source\PSoC5/CyLib.c **** *  Sets the source of the clock output from the ILO block.
 974:Generated_Source\PSoC5/CyLib.c **** *
 975:Generated_Source\PSoC5/CyLib.c **** *  \param source: One of the three available ILO output sources
 976:Generated_Source\PSoC5/CyLib.c **** *       Value        Define                Source
 977:Generated_Source\PSoC5/CyLib.c **** *       0            CY_ILO_SOURCE_100K    ILO 100 KHz
 978:Generated_Source\PSoC5/CyLib.c **** *       1            CY_ILO_SOURCE_33K     ILO 33 KHz
 979:Generated_Source\PSoC5/CyLib.c **** *       2            CY_ILO_SOURCE_1K      ILO 1 KHz
 980:Generated_Source\PSoC5/CyLib.c **** *
 981:Generated_Source\PSoC5/CyLib.c **** *******************************************************************************/
 982:Generated_Source\PSoC5/CyLib.c **** void CyILO_SetSource(uint8 source) 
 983:Generated_Source\PSoC5/CyLib.c **** {
 1905              		.loc 1 983 0
 1906              		.cfi_startproc
 1907              		@ args = 0, pretend = 0, frame = 8
 1908              		@ frame_needed = 1, uses_anonymous_args = 0
 1909              		@ link register save eliminated.
 1910 0000 80B4     		push	{r7}
 1911              		.cfi_def_cfa_offset 4
 1912              		.cfi_offset 7, -4
 1913 0002 83B0     		sub	sp, sp, #12
 1914              		.cfi_def_cfa_offset 16
ARM GAS  C:\Users\mattma1\AppData\Local\Temp\ccUnGUsl.s 			page 52


 1915 0004 00AF     		add	r7, sp, #0
 1916              		.cfi_def_cfa_register 7
 1917 0006 0346     		mov	r3, r0
 1918 0008 FB71     		strb	r3, [r7, #7]
 984:Generated_Source\PSoC5/CyLib.c ****     CY_LIB_CLKDIST_CR_REG = (CY_LIB_CLKDIST_CR_REG & CY_ILO_SOURCE_BITS_CLEAR) |
 1919              		.loc 1 984 0
 1920 000a 4FF04021 		mov	r1, #1073758208
 1921 000e 4FF04023 		mov	r3, #1073758208
 1922 0012 1B78     		ldrb	r3, [r3]
 1923 0014 DBB2     		uxtb	r3, r3
 1924 0016 23F00C03 		bic	r3, r3, #12
 1925 001a DAB2     		uxtb	r2, r3
 985:Generated_Source\PSoC5/CyLib.c ****                     (((uint8) (source << 2u)) & ((uint8)(~CY_ILO_SOURCE_BITS_CLEAR)));
 1926              		.loc 1 985 0
 1927 001c FB79     		ldrb	r3, [r7, #7]
 1928 001e 9B00     		lsls	r3, r3, #2
 1929 0020 DBB2     		uxtb	r3, r3
 984:Generated_Source\PSoC5/CyLib.c ****     CY_LIB_CLKDIST_CR_REG = (CY_LIB_CLKDIST_CR_REG & CY_ILO_SOURCE_BITS_CLEAR) |
 1930              		.loc 1 984 0
 1931 0022 03F00C03 		and	r3, r3, #12
 1932 0026 DBB2     		uxtb	r3, r3
 1933 0028 1343     		orrs	r3, r3, r2
 1934 002a DBB2     		uxtb	r3, r3
 1935 002c 0B70     		strb	r3, [r1]
 986:Generated_Source\PSoC5/CyLib.c **** }
 1936              		.loc 1 986 0
 1937 002e 00BF     		nop
 1938 0030 0C37     		adds	r7, r7, #12
 1939              		.cfi_def_cfa_offset 4
 1940 0032 BD46     		mov	sp, r7
 1941              		.cfi_def_cfa_register 13
 1942              		@ sp needed
 1943 0034 80BC     		pop	{r7}
 1944              		.cfi_restore 7
 1945              		.cfi_def_cfa_offset 0
 1946 0036 7047     		bx	lr
 1947              		.cfi_endproc
 1948              	.LFE23:
 1949              		.size	CyILO_SetSource, .-CyILO_SetSource
 1950              		.section	.text.CyILO_SetPowerMode,"ax",%progbits
 1951              		.align	2
 1952              		.global	CyILO_SetPowerMode
 1953              		.thumb
 1954              		.thumb_func
 1955              		.type	CyILO_SetPowerMode, %function
 1956              	CyILO_SetPowerMode:
 1957              	.LFB24:
 987:Generated_Source\PSoC5/CyLib.c **** 
 988:Generated_Source\PSoC5/CyLib.c **** 
 989:Generated_Source\PSoC5/CyLib.c **** /*******************************************************************************
 990:Generated_Source\PSoC5/CyLib.c **** * Function Name: CyILO_SetPowerMode
 991:Generated_Source\PSoC5/CyLib.c **** ****************************************************************************//**
 992:Generated_Source\PSoC5/CyLib.c **** *
 993:Generated_Source\PSoC5/CyLib.c **** * Sets the power mode used by the ILO during power down. Allows for lower power
 994:Generated_Source\PSoC5/CyLib.c **** * down power usage resulting in a slower startup time.
 995:Generated_Source\PSoC5/CyLib.c **** *
 996:Generated_Source\PSoC5/CyLib.c **** * \param mode
ARM GAS  C:\Users\mattma1\AppData\Local\Temp\ccUnGUsl.s 			page 53


 997:Generated_Source\PSoC5/CyLib.c **** * CY_ILO_FAST_START - Faster start-up, internal bias left on when powered down
 998:Generated_Source\PSoC5/CyLib.c **** * CY_ILO_SLOW_START - Slower start-up, internal bias off when powered down
 999:Generated_Source\PSoC5/CyLib.c **** *
1000:Generated_Source\PSoC5/CyLib.c **** * \return Prevous power mode state.
1001:Generated_Source\PSoC5/CyLib.c **** *
1002:Generated_Source\PSoC5/CyLib.c **** *******************************************************************************/
1003:Generated_Source\PSoC5/CyLib.c **** uint8 CyILO_SetPowerMode(uint8 mode) 
1004:Generated_Source\PSoC5/CyLib.c **** {
 1958              		.loc 1 1004 0
 1959              		.cfi_startproc
 1960              		@ args = 0, pretend = 0, frame = 16
 1961              		@ frame_needed = 1, uses_anonymous_args = 0
 1962              		@ link register save eliminated.
 1963 0000 80B4     		push	{r7}
 1964              		.cfi_def_cfa_offset 4
 1965              		.cfi_offset 7, -4
 1966 0002 85B0     		sub	sp, sp, #20
 1967              		.cfi_def_cfa_offset 24
 1968 0004 00AF     		add	r7, sp, #0
 1969              		.cfi_def_cfa_register 7
 1970 0006 0346     		mov	r3, r0
 1971 0008 FB71     		strb	r3, [r7, #7]
1005:Generated_Source\PSoC5/CyLib.c ****     uint8 state;
1006:Generated_Source\PSoC5/CyLib.c **** 
1007:Generated_Source\PSoC5/CyLib.c ****     /* Get current state. */
1008:Generated_Source\PSoC5/CyLib.c ****     state = CY_LIB_SLOWCLK_ILO_CR0_REG;
 1972              		.loc 1 1008 0
 1973 000a 0F4B     		ldr	r3, .L150
 1974 000c 1B78     		ldrb	r3, [r3]
 1975 000e FB73     		strb	r3, [r7, #15]
1009:Generated_Source\PSoC5/CyLib.c **** 
1010:Generated_Source\PSoC5/CyLib.c ****     /* Set the oscillator power mode. */
1011:Generated_Source\PSoC5/CyLib.c ****     if(mode != CY_ILO_FAST_START)
 1976              		.loc 1 1011 0
 1977 0010 FB79     		ldrb	r3, [r7, #7]	@ zero_extendqisi2
 1978 0012 002B     		cmp	r3, #0
 1979 0014 06D0     		beq	.L147
1012:Generated_Source\PSoC5/CyLib.c ****     {
1013:Generated_Source\PSoC5/CyLib.c ****         CY_LIB_SLOWCLK_ILO_CR0_REG = (state | CY_ILO_CONTROL_PD_MODE);
 1980              		.loc 1 1013 0
 1981 0016 0C4A     		ldr	r2, .L150
 1982 0018 FB7B     		ldrb	r3, [r7, #15]
 1983 001a 43F01003 		orr	r3, r3, #16
 1984 001e DBB2     		uxtb	r3, r3
 1985 0020 1370     		strb	r3, [r2]
 1986 0022 05E0     		b	.L148
 1987              	.L147:
1014:Generated_Source\PSoC5/CyLib.c ****     }
1015:Generated_Source\PSoC5/CyLib.c ****     else
1016:Generated_Source\PSoC5/CyLib.c ****     {
1017:Generated_Source\PSoC5/CyLib.c ****         CY_LIB_SLOWCLK_ILO_CR0_REG = (state & ((uint8)(~CY_ILO_CONTROL_PD_MODE)));
 1988              		.loc 1 1017 0
 1989 0024 084A     		ldr	r2, .L150
 1990 0026 FB7B     		ldrb	r3, [r7, #15]
 1991 0028 23F01003 		bic	r3, r3, #16
 1992 002c DBB2     		uxtb	r3, r3
 1993 002e 1370     		strb	r3, [r2]
ARM GAS  C:\Users\mattma1\AppData\Local\Temp\ccUnGUsl.s 			page 54


 1994              	.L148:
1018:Generated_Source\PSoC5/CyLib.c ****     }
1019:Generated_Source\PSoC5/CyLib.c **** 
1020:Generated_Source\PSoC5/CyLib.c ****     /* Return old mode. */
1021:Generated_Source\PSoC5/CyLib.c ****     return ((state & CY_ILO_CONTROL_PD_MODE) >> CY_ILO_CONTROL_PD_POSITION);
 1995              		.loc 1 1021 0
 1996 0030 FB7B     		ldrb	r3, [r7, #15]	@ zero_extendqisi2
 1997 0032 1B09     		lsrs	r3, r3, #4
 1998 0034 DBB2     		uxtb	r3, r3
 1999 0036 03F00103 		and	r3, r3, #1
 2000 003a DBB2     		uxtb	r3, r3
1022:Generated_Source\PSoC5/CyLib.c **** }
 2001              		.loc 1 1022 0
 2002 003c 1846     		mov	r0, r3
 2003 003e 1437     		adds	r7, r7, #20
 2004              		.cfi_def_cfa_offset 4
 2005 0040 BD46     		mov	sp, r7
 2006              		.cfi_def_cfa_register 13
 2007              		@ sp needed
 2008 0042 80BC     		pop	{r7}
 2009              		.cfi_restore 7
 2010              		.cfi_def_cfa_offset 0
 2011 0044 7047     		bx	lr
 2012              	.L151:
 2013 0046 00BF     		.align	2
 2014              	.L150:
 2015 0048 00430040 		.word	1073758976
 2016              		.cfi_endproc
 2017              	.LFE24:
 2018              		.size	CyILO_SetPowerMode, .-CyILO_SetPowerMode
 2019              		.section	.text.CyXTAL_32KHZ_Start,"ax",%progbits
 2020              		.align	2
 2021              		.global	CyXTAL_32KHZ_Start
 2022              		.thumb
 2023              		.thumb_func
 2024              		.type	CyXTAL_32KHZ_Start, %function
 2025              	CyXTAL_32KHZ_Start:
 2026              	.LFB25:
1023:Generated_Source\PSoC5/CyLib.c **** 
1024:Generated_Source\PSoC5/CyLib.c **** 
1025:Generated_Source\PSoC5/CyLib.c **** /*******************************************************************************
1026:Generated_Source\PSoC5/CyLib.c **** * Function Name: CyXTAL_32KHZ_Start
1027:Generated_Source\PSoC5/CyLib.c **** ****************************************************************************//**
1028:Generated_Source\PSoC5/CyLib.c **** *
1029:Generated_Source\PSoC5/CyLib.c **** *  Enables the 32 KHz Crystal Oscillator.
1030:Generated_Source\PSoC5/CyLib.c **** *
1031:Generated_Source\PSoC5/CyLib.c **** *******************************************************************************/
1032:Generated_Source\PSoC5/CyLib.c **** void CyXTAL_32KHZ_Start(void) 
1033:Generated_Source\PSoC5/CyLib.c **** {
 2027              		.loc 1 1033 0
 2028              		.cfi_startproc
 2029              		@ args = 0, pretend = 0, frame = 8
 2030              		@ frame_needed = 1, uses_anonymous_args = 0
 2031 0000 80B5     		push	{r7, lr}
 2032              		.cfi_def_cfa_offset 8
 2033              		.cfi_offset 7, -8
 2034              		.cfi_offset 14, -4
ARM GAS  C:\Users\mattma1\AppData\Local\Temp\ccUnGUsl.s 			page 55


 2035 0002 82B0     		sub	sp, sp, #8
 2036              		.cfi_def_cfa_offset 16
 2037 0004 00AF     		add	r7, sp, #0
 2038              		.cfi_def_cfa_register 7
1034:Generated_Source\PSoC5/CyLib.c ****     volatile uint16 i;
1035:Generated_Source\PSoC5/CyLib.c **** 
1036:Generated_Source\PSoC5/CyLib.c ****     CY_CLK_XTAL32_TST_REG = CY_CLK_XTAL32_TST_DEFAULT;
 2039              		.loc 1 1036 0
 2040 0006 1C4B     		ldr	r3, .L157
 2041 0008 F322     		movs	r2, #243
 2042 000a 1A70     		strb	r2, [r3]
1037:Generated_Source\PSoC5/CyLib.c ****     CY_CLK_XTAL32_TR_REG  = CY_CLK_XTAL32_TR_STARTUP;
 2043              		.loc 1 1037 0
 2044 000c 1B4B     		ldr	r3, .L157+4
 2045 000e 0322     		movs	r2, #3
 2046 0010 1A70     		strb	r2, [r3]
1038:Generated_Source\PSoC5/CyLib.c ****     CY_CLK_XTAL32_CFG_REG = (CY_CLK_XTAL32_CFG_REG & ((uint8)(~CY_CLK_XTAL32_CFG_LP_MASK))) |
 2047              		.loc 1 1038 0
 2048 0012 1B4A     		ldr	r2, .L157+8
 2049 0014 1A4B     		ldr	r3, .L157+8
 2050 0016 1B78     		ldrb	r3, [r3]
 2051 0018 DBB2     		uxtb	r3, r3
 2052 001a 23F00C03 		bic	r3, r3, #12
 2053 001e DBB2     		uxtb	r3, r3
 2054 0020 43F00403 		orr	r3, r3, #4
 2055 0024 DBB2     		uxtb	r3, r3
 2056 0026 1370     		strb	r3, [r2]
1039:Generated_Source\PSoC5/CyLib.c ****                                 CY_CLK_XTAL32_CFG_LP_DEFAULT;
1040:Generated_Source\PSoC5/CyLib.c **** 
1041:Generated_Source\PSoC5/CyLib.c ****     #if(CY_PSOC3)
1042:Generated_Source\PSoC5/CyLib.c ****         CY_CLK_XTAL32_CR_REG |= CY_CLK_XTAL32_CR_PDBEN;
1043:Generated_Source\PSoC5/CyLib.c ****     #endif  /* (CY_PSOC3) */
1044:Generated_Source\PSoC5/CyLib.c **** 
1045:Generated_Source\PSoC5/CyLib.c ****     /* Enable operation of 32K Crystal Oscillator */
1046:Generated_Source\PSoC5/CyLib.c ****     CY_CLK_XTAL32_CR_REG |= CY_CLK_XTAL32_CR_EN;
 2057              		.loc 1 1046 0
 2058 0028 164A     		ldr	r2, .L157+12
 2059 002a 164B     		ldr	r3, .L157+12
 2060 002c 1B78     		ldrb	r3, [r3]
 2061 002e DBB2     		uxtb	r3, r3
 2062 0030 43F00103 		orr	r3, r3, #1
 2063 0034 DBB2     		uxtb	r3, r3
 2064 0036 1370     		strb	r3, [r2]
1047:Generated_Source\PSoC5/CyLib.c **** 
1048:Generated_Source\PSoC5/CyLib.c ****     for (i = 1000u; i > 0u; i--)
 2065              		.loc 1 1048 0
 2066 0038 4FF47A73 		mov	r3, #1000
 2067 003c FB80     		strh	r3, [r7, #6]	@ movhi
 2068 003e 12E0     		b	.L153
 2069              	.L156:
1049:Generated_Source\PSoC5/CyLib.c ****     {
1050:Generated_Source\PSoC5/CyLib.c ****         if(0u != (CyXTAL_32KHZ_ReadStatus() & CY_XTAL32K_ANA_STAT))
 2070              		.loc 1 1050 0
 2071 0040 FFF7FEFF 		bl	CyXTAL_32KHZ_ReadStatus
 2072 0044 0346     		mov	r3, r0
 2073 0046 03F02003 		and	r3, r3, #32
 2074 004a 002B     		cmp	r3, #0
ARM GAS  C:\Users\mattma1\AppData\Local\Temp\ccUnGUsl.s 			page 56


 2075 004c 03D0     		beq	.L154
1051:Generated_Source\PSoC5/CyLib.c ****         {
1052:Generated_Source\PSoC5/CyLib.c ****             /* Ready - switch to high power mode */
1053:Generated_Source\PSoC5/CyLib.c ****             (void) CyXTAL_32KHZ_SetPowerMode(0u);
 2076              		.loc 1 1053 0
 2077 004e 0020     		movs	r0, #0
 2078 0050 FFF7FEFF 		bl	CyXTAL_32KHZ_SetPowerMode
1054:Generated_Source\PSoC5/CyLib.c **** 
1055:Generated_Source\PSoC5/CyLib.c ****             break;
 2079              		.loc 1 1055 0
 2080 0054 0BE0     		b	.L155
 2081              	.L154:
1056:Generated_Source\PSoC5/CyLib.c ****         }
1057:Generated_Source\PSoC5/CyLib.c ****         CyDelayUs(1u);
 2082              		.loc 1 1057 0 discriminator 2
 2083 0056 0120     		movs	r0, #1
 2084 0058 FFF7FEFF 		bl	CyDelayUs
1048:Generated_Source\PSoC5/CyLib.c ****     {
 2085              		.loc 1 1048 0 discriminator 2
 2086 005c FB88     		ldrh	r3, [r7, #6]	@ movhi
 2087 005e 9BB2     		uxth	r3, r3
 2088 0060 013B     		subs	r3, r3, #1
 2089 0062 9BB2     		uxth	r3, r3
 2090 0064 FB80     		strh	r3, [r7, #6]	@ movhi
 2091              	.L153:
1048:Generated_Source\PSoC5/CyLib.c ****     {
 2092              		.loc 1 1048 0 is_stmt 0 discriminator 1
 2093 0066 FB88     		ldrh	r3, [r7, #6]	@ movhi
 2094 0068 9BB2     		uxth	r3, r3
 2095 006a 002B     		cmp	r3, #0
 2096 006c E8D1     		bne	.L156
 2097              	.L155:
1058:Generated_Source\PSoC5/CyLib.c ****     }
1059:Generated_Source\PSoC5/CyLib.c **** }
 2098              		.loc 1 1059 0 is_stmt 1
 2099 006e 00BF     		nop
 2100 0070 0837     		adds	r7, r7, #8
 2101              		.cfi_def_cfa_offset 8
 2102 0072 BD46     		mov	sp, r7
 2103              		.cfi_def_cfa_register 13
 2104              		@ sp needed
 2105 0074 80BD     		pop	{r7, pc}
 2106              	.L158:
 2107 0076 00BF     		.align	2
 2108              	.L157:
 2109 0078 0A430040 		.word	1073758986
 2110 007c 98460040 		.word	1073759896
 2111 0080 09430040 		.word	1073758985
 2112 0084 08430040 		.word	1073758984
 2113              		.cfi_endproc
 2114              	.LFE25:
 2115              		.size	CyXTAL_32KHZ_Start, .-CyXTAL_32KHZ_Start
 2116              		.section	.text.CyXTAL_32KHZ_Stop,"ax",%progbits
 2117              		.align	2
 2118              		.global	CyXTAL_32KHZ_Stop
 2119              		.thumb
 2120              		.thumb_func
ARM GAS  C:\Users\mattma1\AppData\Local\Temp\ccUnGUsl.s 			page 57


 2121              		.type	CyXTAL_32KHZ_Stop, %function
 2122              	CyXTAL_32KHZ_Stop:
 2123              	.LFB26:
1060:Generated_Source\PSoC5/CyLib.c **** 
1061:Generated_Source\PSoC5/CyLib.c **** 
1062:Generated_Source\PSoC5/CyLib.c **** /*******************************************************************************
1063:Generated_Source\PSoC5/CyLib.c **** * Function Name: CyXTAL_32KHZ_Stop
1064:Generated_Source\PSoC5/CyLib.c **** ****************************************************************************//**
1065:Generated_Source\PSoC5/CyLib.c **** *
1066:Generated_Source\PSoC5/CyLib.c **** *  Disables the 32KHz Crystal Oscillator.
1067:Generated_Source\PSoC5/CyLib.c **** *
1068:Generated_Source\PSoC5/CyLib.c **** *******************************************************************************/
1069:Generated_Source\PSoC5/CyLib.c **** void CyXTAL_32KHZ_Stop(void) 
1070:Generated_Source\PSoC5/CyLib.c **** {
 2124              		.loc 1 1070 0
 2125              		.cfi_startproc
 2126              		@ args = 0, pretend = 0, frame = 0
 2127              		@ frame_needed = 1, uses_anonymous_args = 0
 2128              		@ link register save eliminated.
 2129 0000 80B4     		push	{r7}
 2130              		.cfi_def_cfa_offset 4
 2131              		.cfi_offset 7, -4
 2132 0002 00AF     		add	r7, sp, #0
 2133              		.cfi_def_cfa_register 7
1071:Generated_Source\PSoC5/CyLib.c ****     CY_CLK_XTAL32_TST_REG  = CY_CLK_XTAL32_TST_DEFAULT;
 2134              		.loc 1 1071 0
 2135 0004 0E4B     		ldr	r3, .L160
 2136 0006 F322     		movs	r2, #243
 2137 0008 1A70     		strb	r2, [r3]
1072:Generated_Source\PSoC5/CyLib.c ****     CY_CLK_XTAL32_TR_REG   = CY_CLK_XTAL32_TR_POWERDOWN;
 2138              		.loc 1 1072 0
 2139 000a 0E4B     		ldr	r3, .L160+4
 2140 000c 0022     		movs	r2, #0
 2141 000e 1A70     		strb	r2, [r3]
1073:Generated_Source\PSoC5/CyLib.c ****     CY_CLK_XTAL32_CFG_REG = (CY_CLK_XTAL32_CFG_REG & ((uint8)(~CY_CLK_XTAL32_CFG_LP_MASK))) |
 2142              		.loc 1 1073 0
 2143 0010 0D4A     		ldr	r2, .L160+8
 2144 0012 0D4B     		ldr	r3, .L160+8
 2145 0014 1B78     		ldrb	r3, [r3]
 2146 0016 DBB2     		uxtb	r3, r3
 2147 0018 23F00C03 		bic	r3, r3, #12
 2148 001c DBB2     		uxtb	r3, r3
 2149 001e 43F00403 		orr	r3, r3, #4
 2150 0022 DBB2     		uxtb	r3, r3
 2151 0024 1370     		strb	r3, [r2]
1074:Generated_Source\PSoC5/CyLib.c ****                              CY_CLK_XTAL32_CFG_LP_DEFAULT;
1075:Generated_Source\PSoC5/CyLib.c ****     CY_CLK_XTAL32_CR_REG &= ((uint8)(~(CY_CLK_XTAL32_CR_EN | CY_CLK_XTAL32_CR_LPM)));
 2152              		.loc 1 1075 0
 2153 0026 094A     		ldr	r2, .L160+12
 2154 0028 084B     		ldr	r3, .L160+12
 2155 002a 1B78     		ldrb	r3, [r3]
 2156 002c DBB2     		uxtb	r3, r3
 2157 002e 23F00303 		bic	r3, r3, #3
 2158 0032 DBB2     		uxtb	r3, r3
 2159 0034 1370     		strb	r3, [r2]
1076:Generated_Source\PSoC5/CyLib.c **** 
1077:Generated_Source\PSoC5/CyLib.c ****     #if(CY_PSOC3)
ARM GAS  C:\Users\mattma1\AppData\Local\Temp\ccUnGUsl.s 			page 58


1078:Generated_Source\PSoC5/CyLib.c ****         CY_CLK_XTAL32_CR_REG &= ((uint8)(~CY_CLK_XTAL32_CR_PDBEN));
1079:Generated_Source\PSoC5/CyLib.c ****     #endif  /* (CY_PSOC3) */
1080:Generated_Source\PSoC5/CyLib.c **** }
 2160              		.loc 1 1080 0
 2161 0036 00BF     		nop
 2162 0038 BD46     		mov	sp, r7
 2163              		.cfi_def_cfa_register 13
 2164              		@ sp needed
 2165 003a 80BC     		pop	{r7}
 2166              		.cfi_restore 7
 2167              		.cfi_def_cfa_offset 0
 2168 003c 7047     		bx	lr
 2169              	.L161:
 2170 003e 00BF     		.align	2
 2171              	.L160:
 2172 0040 0A430040 		.word	1073758986
 2173 0044 98460040 		.word	1073759896
 2174 0048 09430040 		.word	1073758985
 2175 004c 08430040 		.word	1073758984
 2176              		.cfi_endproc
 2177              	.LFE26:
 2178              		.size	CyXTAL_32KHZ_Stop, .-CyXTAL_32KHZ_Stop
 2179              		.section	.text.CyXTAL_32KHZ_ReadStatus,"ax",%progbits
 2180              		.align	2
 2181              		.global	CyXTAL_32KHZ_ReadStatus
 2182              		.thumb
 2183              		.thumb_func
 2184              		.type	CyXTAL_32KHZ_ReadStatus, %function
 2185              	CyXTAL_32KHZ_ReadStatus:
 2186              	.LFB27:
1081:Generated_Source\PSoC5/CyLib.c **** 
1082:Generated_Source\PSoC5/CyLib.c **** 
1083:Generated_Source\PSoC5/CyLib.c **** /*******************************************************************************
1084:Generated_Source\PSoC5/CyLib.c **** * Function Name: CyXTAL_32KHZ_ReadStatus
1085:Generated_Source\PSoC5/CyLib.c **** ****************************************************************************//**
1086:Generated_Source\PSoC5/CyLib.c **** *
1087:Generated_Source\PSoC5/CyLib.c **** *  Returns status of the 32 KHz oscillator.
1088:Generated_Source\PSoC5/CyLib.c **** *
1089:Generated_Source\PSoC5/CyLib.c **** * \return
1090:Generated_Source\PSoC5/CyLib.c **** *  Value     Define                    Source
1091:Generated_Source\PSoC5/CyLib.c **** *  20        CY_XTAL32K_ANA_STAT       Analog measurement
1092:Generated_Source\PSoC5/CyLib.c **** *                                       1: Stable
1093:Generated_Source\PSoC5/CyLib.c **** *                                       0: Not stable
1094:Generated_Source\PSoC5/CyLib.c **** *
1095:Generated_Source\PSoC5/CyLib.c **** *******************************************************************************/
1096:Generated_Source\PSoC5/CyLib.c **** uint8 CyXTAL_32KHZ_ReadStatus(void) 
1097:Generated_Source\PSoC5/CyLib.c **** {
 2187              		.loc 1 1097 0
 2188              		.cfi_startproc
 2189              		@ args = 0, pretend = 0, frame = 0
 2190              		@ frame_needed = 1, uses_anonymous_args = 0
 2191              		@ link register save eliminated.
 2192 0000 80B4     		push	{r7}
 2193              		.cfi_def_cfa_offset 4
 2194              		.cfi_offset 7, -4
 2195 0002 00AF     		add	r7, sp, #0
 2196              		.cfi_def_cfa_register 7
ARM GAS  C:\Users\mattma1\AppData\Local\Temp\ccUnGUsl.s 			page 59


1098:Generated_Source\PSoC5/CyLib.c ****     return(CY_CLK_XTAL32_CR_REG & CY_XTAL32K_ANA_STAT);
 2197              		.loc 1 1098 0
 2198 0004 044B     		ldr	r3, .L164
 2199 0006 1B78     		ldrb	r3, [r3]
 2200 0008 DBB2     		uxtb	r3, r3
 2201 000a 03F02003 		and	r3, r3, #32
 2202 000e DBB2     		uxtb	r3, r3
1099:Generated_Source\PSoC5/CyLib.c **** }
 2203              		.loc 1 1099 0
 2204 0010 1846     		mov	r0, r3
 2205 0012 BD46     		mov	sp, r7
 2206              		.cfi_def_cfa_register 13
 2207              		@ sp needed
 2208 0014 80BC     		pop	{r7}
 2209              		.cfi_restore 7
 2210              		.cfi_def_cfa_offset 0
 2211 0016 7047     		bx	lr
 2212              	.L165:
 2213              		.align	2
 2214              	.L164:
 2215 0018 08430040 		.word	1073758984
 2216              		.cfi_endproc
 2217              	.LFE27:
 2218              		.size	CyXTAL_32KHZ_ReadStatus, .-CyXTAL_32KHZ_ReadStatus
 2219              		.section	.text.CyXTAL_32KHZ_SetPowerMode,"ax",%progbits
 2220              		.align	2
 2221              		.global	CyXTAL_32KHZ_SetPowerMode
 2222              		.thumb
 2223              		.thumb_func
 2224              		.type	CyXTAL_32KHZ_SetPowerMode, %function
 2225              	CyXTAL_32KHZ_SetPowerMode:
 2226              	.LFB28:
1100:Generated_Source\PSoC5/CyLib.c **** 
1101:Generated_Source\PSoC5/CyLib.c **** 
1102:Generated_Source\PSoC5/CyLib.c **** /*******************************************************************************
1103:Generated_Source\PSoC5/CyLib.c **** * Function Name: CyXTAL_32KHZ_SetPowerMode
1104:Generated_Source\PSoC5/CyLib.c **** ****************************************************************************//**
1105:Generated_Source\PSoC5/CyLib.c **** *
1106:Generated_Source\PSoC5/CyLib.c **** *  Sets the power mode for the 32 KHz oscillator used during the sleep mode.
1107:Generated_Source\PSoC5/CyLib.c **** *  Allows for lower power during sleep when there are fewer sources of noise.
1108:Generated_Source\PSoC5/CyLib.c **** *  During the active mode the oscillator is always run in the high power mode.
1109:Generated_Source\PSoC5/CyLib.c **** *
1110:Generated_Source\PSoC5/CyLib.c **** *  uint8 mode
1111:Generated_Source\PSoC5/CyLib.c **** *       \param 0: High power mode
1112:Generated_Source\PSoC5/CyLib.c **** *       \param 1: Low power mode during sleep
1113:Generated_Source\PSoC5/CyLib.c **** *
1114:Generated_Source\PSoC5/CyLib.c **** * \return
1115:Generated_Source\PSoC5/CyLib.c **** *  Previous power mode.
1116:Generated_Source\PSoC5/CyLib.c **** *
1117:Generated_Source\PSoC5/CyLib.c **** *******************************************************************************/
1118:Generated_Source\PSoC5/CyLib.c **** uint8 CyXTAL_32KHZ_SetPowerMode(uint8 mode) 
1119:Generated_Source\PSoC5/CyLib.c **** {
 2227              		.loc 1 1119 0
 2228              		.cfi_startproc
 2229              		@ args = 0, pretend = 0, frame = 16
 2230              		@ frame_needed = 1, uses_anonymous_args = 0
 2231 0000 80B5     		push	{r7, lr}
ARM GAS  C:\Users\mattma1\AppData\Local\Temp\ccUnGUsl.s 			page 60


 2232              		.cfi_def_cfa_offset 8
 2233              		.cfi_offset 7, -8
 2234              		.cfi_offset 14, -4
 2235 0002 84B0     		sub	sp, sp, #16
 2236              		.cfi_def_cfa_offset 24
 2237 0004 00AF     		add	r7, sp, #0
 2238              		.cfi_def_cfa_register 7
 2239 0006 0346     		mov	r3, r0
 2240 0008 FB71     		strb	r3, [r7, #7]
1120:Generated_Source\PSoC5/CyLib.c ****     uint8 state = (0u != (CY_CLK_XTAL32_CR_REG & CY_CLK_XTAL32_CR_LPM)) ? 1u : 0u;
 2241              		.loc 1 1120 0
 2242 000a 264B     		ldr	r3, .L172
 2243 000c 1B78     		ldrb	r3, [r3]
 2244 000e DBB2     		uxtb	r3, r3
 2245 0010 03F00203 		and	r3, r3, #2
 2246 0014 002B     		cmp	r3, #0
 2247 0016 01D0     		beq	.L167
 2248              		.loc 1 1120 0 is_stmt 0 discriminator 1
 2249 0018 0123     		movs	r3, #1
 2250 001a 00E0     		b	.L168
 2251              	.L167:
 2252              		.loc 1 1120 0 discriminator 2
 2253 001c 0023     		movs	r3, #0
 2254              	.L168:
 2255              		.loc 1 1120 0 discriminator 4
 2256 001e FB73     		strb	r3, [r7, #15]
1121:Generated_Source\PSoC5/CyLib.c **** 
1122:Generated_Source\PSoC5/CyLib.c ****     CY_CLK_XTAL32_TST_REG = CY_CLK_XTAL32_TST_DEFAULT;
 2257              		.loc 1 1122 0 is_stmt 1 discriminator 4
 2258 0020 214B     		ldr	r3, .L172+4
 2259 0022 F322     		movs	r2, #243
 2260 0024 1A70     		strb	r2, [r3]
1123:Generated_Source\PSoC5/CyLib.c **** 
1124:Generated_Source\PSoC5/CyLib.c ****     if(1u == mode)
 2261              		.loc 1 1124 0 discriminator 4
 2262 0026 FB79     		ldrb	r3, [r7, #7]	@ zero_extendqisi2
 2263 0028 012B     		cmp	r3, #1
 2264 002a 1CD1     		bne	.L169
1125:Generated_Source\PSoC5/CyLib.c ****     {
1126:Generated_Source\PSoC5/CyLib.c ****         /* Low power mode during Sleep */
1127:Generated_Source\PSoC5/CyLib.c ****         CY_CLK_XTAL32_TR_REG  = CY_CLK_XTAL32_TR_LOW_POWER;
 2265              		.loc 1 1127 0
 2266 002c 1F4B     		ldr	r3, .L172+8
 2267 002e 0122     		movs	r2, #1
 2268 0030 1A70     		strb	r2, [r3]
1128:Generated_Source\PSoC5/CyLib.c ****         CyDelayUs(10u);
 2269              		.loc 1 1128 0
 2270 0032 0A20     		movs	r0, #10
 2271 0034 FFF7FEFF 		bl	CyDelayUs
1129:Generated_Source\PSoC5/CyLib.c ****         CY_CLK_XTAL32_CFG_REG = (CY_CLK_XTAL32_CFG_REG & ((uint8)(~CY_CLK_XTAL32_CFG_LP_MASK))) |
 2272              		.loc 1 1129 0
 2273 0038 1D4A     		ldr	r2, .L172+12
 2274 003a 1D4B     		ldr	r3, .L172+12
 2275 003c 1B78     		ldrb	r3, [r3]
 2276 003e DBB2     		uxtb	r3, r3
 2277 0040 23F00C03 		bic	r3, r3, #12
 2278 0044 DBB2     		uxtb	r3, r3
ARM GAS  C:\Users\mattma1\AppData\Local\Temp\ccUnGUsl.s 			page 61


 2279 0046 43F00803 		orr	r3, r3, #8
 2280 004a DBB2     		uxtb	r3, r3
 2281 004c 1370     		strb	r3, [r2]
1130:Generated_Source\PSoC5/CyLib.c ****                                 CY_CLK_XTAL32_CFG_LP_LOWPOWER;
1131:Generated_Source\PSoC5/CyLib.c ****         CyDelayUs(20u);
 2282              		.loc 1 1131 0
 2283 004e 1420     		movs	r0, #20
 2284 0050 FFF7FEFF 		bl	CyDelayUs
1132:Generated_Source\PSoC5/CyLib.c ****         CY_CLK_XTAL32_CR_REG |= CY_CLK_XTAL32_CR_LPM;
 2285              		.loc 1 1132 0
 2286 0054 134A     		ldr	r2, .L172
 2287 0056 134B     		ldr	r3, .L172
 2288 0058 1B78     		ldrb	r3, [r3]
 2289 005a DBB2     		uxtb	r3, r3
 2290 005c 43F00203 		orr	r3, r3, #2
 2291 0060 DBB2     		uxtb	r3, r3
 2292 0062 1370     		strb	r3, [r2]
 2293 0064 18E0     		b	.L170
 2294              	.L169:
1133:Generated_Source\PSoC5/CyLib.c ****     }
1134:Generated_Source\PSoC5/CyLib.c ****     else
1135:Generated_Source\PSoC5/CyLib.c ****     {
1136:Generated_Source\PSoC5/CyLib.c ****         /* High power mode */
1137:Generated_Source\PSoC5/CyLib.c ****         CY_CLK_XTAL32_TR_REG  = CY_CLK_XTAL32_TR_HIGH_POWER;
 2295              		.loc 1 1137 0
 2296 0066 114B     		ldr	r3, .L172+8
 2297 0068 0622     		movs	r2, #6
 2298 006a 1A70     		strb	r2, [r3]
1138:Generated_Source\PSoC5/CyLib.c ****         CyDelayUs(10u);
 2299              		.loc 1 1138 0
 2300 006c 0A20     		movs	r0, #10
 2301 006e FFF7FEFF 		bl	CyDelayUs
1139:Generated_Source\PSoC5/CyLib.c ****         CY_CLK_XTAL32_CFG_REG = (CY_CLK_XTAL32_CFG_REG & ((uint8)(~CY_CLK_XTAL32_CFG_LP_MASK))) |
 2302              		.loc 1 1139 0
 2303 0072 0F4A     		ldr	r2, .L172+12
 2304 0074 0E4B     		ldr	r3, .L172+12
 2305 0076 1B78     		ldrb	r3, [r3]
 2306 0078 DBB2     		uxtb	r3, r3
 2307 007a 23F00C03 		bic	r3, r3, #12
 2308 007e DBB2     		uxtb	r3, r3
 2309 0080 43F00403 		orr	r3, r3, #4
 2310 0084 DBB2     		uxtb	r3, r3
 2311 0086 1370     		strb	r3, [r2]
1140:Generated_Source\PSoC5/CyLib.c ****                                 CY_CLK_XTAL32_CFG_LP_DEFAULT;
1141:Generated_Source\PSoC5/CyLib.c ****         CY_CLK_XTAL32_CR_REG &= ((uint8)(~CY_CLK_XTAL32_CR_LPM));
 2312              		.loc 1 1141 0
 2313 0088 064A     		ldr	r2, .L172
 2314 008a 064B     		ldr	r3, .L172
 2315 008c 1B78     		ldrb	r3, [r3]
 2316 008e DBB2     		uxtb	r3, r3
 2317 0090 23F00203 		bic	r3, r3, #2
 2318 0094 DBB2     		uxtb	r3, r3
 2319 0096 1370     		strb	r3, [r2]
 2320              	.L170:
1142:Generated_Source\PSoC5/CyLib.c ****     }
1143:Generated_Source\PSoC5/CyLib.c **** 
1144:Generated_Source\PSoC5/CyLib.c ****     return(state);
ARM GAS  C:\Users\mattma1\AppData\Local\Temp\ccUnGUsl.s 			page 62


 2321              		.loc 1 1144 0
 2322 0098 FB7B     		ldrb	r3, [r7, #15]	@ zero_extendqisi2
1145:Generated_Source\PSoC5/CyLib.c **** }
 2323              		.loc 1 1145 0
 2324 009a 1846     		mov	r0, r3
 2325 009c 1037     		adds	r7, r7, #16
 2326              		.cfi_def_cfa_offset 8
 2327 009e BD46     		mov	sp, r7
 2328              		.cfi_def_cfa_register 13
 2329              		@ sp needed
 2330 00a0 80BD     		pop	{r7, pc}
 2331              	.L173:
 2332 00a2 00BF     		.align	2
 2333              	.L172:
 2334 00a4 08430040 		.word	1073758984
 2335 00a8 0A430040 		.word	1073758986
 2336 00ac 98460040 		.word	1073759896
 2337 00b0 09430040 		.word	1073758985
 2338              		.cfi_endproc
 2339              	.LFE28:
 2340              		.size	CyXTAL_32KHZ_SetPowerMode, .-CyXTAL_32KHZ_SetPowerMode
 2341              		.section	.text.CyXTAL_Start,"ax",%progbits
 2342              		.align	2
 2343              		.global	CyXTAL_Start
 2344              		.thumb
 2345              		.thumb_func
 2346              		.type	CyXTAL_Start, %function
 2347              	CyXTAL_Start:
 2348              	.LFB29:
1146:Generated_Source\PSoC5/CyLib.c **** 
1147:Generated_Source\PSoC5/CyLib.c **** 
1148:Generated_Source\PSoC5/CyLib.c **** /*******************************************************************************
1149:Generated_Source\PSoC5/CyLib.c **** * Function Name: CyXTAL_Start
1150:Generated_Source\PSoC5/CyLib.c **** ****************************************************************************//**
1151:Generated_Source\PSoC5/CyLib.c **** *
1152:Generated_Source\PSoC5/CyLib.c **** *  Enables the megahertz crystal.
1153:Generated_Source\PSoC5/CyLib.c **** *
1154:Generated_Source\PSoC5/CyLib.c **** *  PSoC 3:
1155:Generated_Source\PSoC5/CyLib.c **** *  Waits until the XERR bit is low (no error) for a millisecond or until the
1156:Generated_Source\PSoC5/CyLib.c **** *  number of milliseconds specified by the wait parameter has expired.
1157:Generated_Source\PSoC5/CyLib.c **** *
1158:Generated_Source\PSoC5/CyLib.c **** *   \param wait: Valid range [0-255].
1159:Generated_Source\PSoC5/CyLib.c **** *   This is the timeout value in milliseconds.
1160:Generated_Source\PSoC5/CyLib.c **** *   The appropriate value is crystal specific.
1161:Generated_Source\PSoC5/CyLib.c **** *
1162:Generated_Source\PSoC5/CyLib.c **** * \return
1163:Generated_Source\PSoC5/CyLib.c **** *   CYRET_SUCCESS - Completed successfully
1164:Generated_Source\PSoC5/CyLib.c **** *   CYRET_TIMEOUT - Timeout occurred without detecting a low value on XERR.
1165:Generated_Source\PSoC5/CyLib.c **** *
1166:Generated_Source\PSoC5/CyLib.c **** * Side Effects and Restrictions:
1167:Generated_Source\PSoC5/CyLib.c **** *  If wait is enabled (non-zero wait). Uses the Fast Timewheel to time the wait.
1168:Generated_Source\PSoC5/CyLib.c **** *  Any other use of the Fast Timewheel (FTW) will be stopped during the period
1169:Generated_Source\PSoC5/CyLib.c **** *  of this function and then restored.
1170:Generated_Source\PSoC5/CyLib.c **** *
1171:Generated_Source\PSoC5/CyLib.c **** *  Uses the 100KHz ILO.  If not enabled, this function will enable the 100KHz
1172:Generated_Source\PSoC5/CyLib.c **** *  ILO for the period of this function. No changes to the setup of the ILO,
1173:Generated_Source\PSoC5/CyLib.c **** *  Fast Timewheel, Central Timewheel or Once Per Second interrupt may be made
ARM GAS  C:\Users\mattma1\AppData\Local\Temp\ccUnGUsl.s 			page 63


1174:Generated_Source\PSoC5/CyLib.c **** *  by interrupt routines during the period of this function.
1175:Generated_Source\PSoC5/CyLib.c **** *
1176:Generated_Source\PSoC5/CyLib.c **** *  The current operation of the ILO, Central Timewheel and Once Per Second
1177:Generated_Source\PSoC5/CyLib.c **** *  interrupt are maintained during the operation of this function provided the
1178:Generated_Source\PSoC5/CyLib.c **** *  reading of the Power Manager Interrupt Status Register is only done using the
1179:Generated_Source\PSoC5/CyLib.c **** *  CyPmReadStatus() function.
1180:Generated_Source\PSoC5/CyLib.c **** *
1181:Generated_Source\PSoC5/CyLib.c **** *******************************************************************************/
1182:Generated_Source\PSoC5/CyLib.c **** cystatus CyXTAL_Start(uint8 wait) 
1183:Generated_Source\PSoC5/CyLib.c **** {
 2349              		.loc 1 1183 0
 2350              		.cfi_startproc
 2351              		@ args = 0, pretend = 0, frame = 24
 2352              		@ frame_needed = 1, uses_anonymous_args = 0
 2353 0000 80B5     		push	{r7, lr}
 2354              		.cfi_def_cfa_offset 8
 2355              		.cfi_offset 7, -8
 2356              		.cfi_offset 14, -4
 2357 0002 86B0     		sub	sp, sp, #24
 2358              		.cfi_def_cfa_offset 32
 2359 0004 00AF     		add	r7, sp, #0
 2360              		.cfi_def_cfa_register 7
 2361 0006 0346     		mov	r3, r0
 2362 0008 FB71     		strb	r3, [r7, #7]
1184:Generated_Source\PSoC5/CyLib.c ****     cystatus status = CYRET_SUCCESS;
 2363              		.loc 1 1184 0
 2364 000a 0023     		movs	r3, #0
 2365 000c 7B61     		str	r3, [r7, #20]
1185:Generated_Source\PSoC5/CyLib.c ****     volatile uint8  timeout = wait;
 2366              		.loc 1 1185 0
 2367 000e FB79     		ldrb	r3, [r7, #7]
 2368 0010 3B74     		strb	r3, [r7, #16]
1186:Generated_Source\PSoC5/CyLib.c ****     volatile uint8 count;
1187:Generated_Source\PSoC5/CyLib.c ****     uint8 iloEnableState;
1188:Generated_Source\PSoC5/CyLib.c ****     uint8 pmTwCfg0Tmp;
1189:Generated_Source\PSoC5/CyLib.c ****     uint8 pmTwCfg2Tmp;
1190:Generated_Source\PSoC5/CyLib.c **** 
1191:Generated_Source\PSoC5/CyLib.c **** 
1192:Generated_Source\PSoC5/CyLib.c ****     /* Enables MHz crystal oscillator circuit  */
1193:Generated_Source\PSoC5/CyLib.c ****     CY_CLK_XMHZ_CSR_REG |= CY_CLK_XMHZ_CSR_ENABLE;
 2369              		.loc 1 1193 0
 2370 0012 2B4A     		ldr	r2, .L185
 2371 0014 2A4B     		ldr	r3, .L185
 2372 0016 1B78     		ldrb	r3, [r3]
 2373 0018 DBB2     		uxtb	r3, r3
 2374 001a 43F00103 		orr	r3, r3, #1
 2375 001e DBB2     		uxtb	r3, r3
 2376 0020 1370     		strb	r3, [r2]
1194:Generated_Source\PSoC5/CyLib.c **** 
1195:Generated_Source\PSoC5/CyLib.c **** 
1196:Generated_Source\PSoC5/CyLib.c ****     if(wait > 0u)
 2377              		.loc 1 1196 0
 2378 0022 FB79     		ldrb	r3, [r7, #7]	@ zero_extendqisi2
 2379 0024 002B     		cmp	r3, #0
 2380 0026 45D0     		beq	.L175
1197:Generated_Source\PSoC5/CyLib.c ****     {
1198:Generated_Source\PSoC5/CyLib.c ****         /* Save 100 KHz ILO, FTW interval, enable and interrupt enable */
ARM GAS  C:\Users\mattma1\AppData\Local\Temp\ccUnGUsl.s 			page 64


1199:Generated_Source\PSoC5/CyLib.c ****         iloEnableState = CY_LIB_SLOWCLK_ILO_CR0_REG;
 2381              		.loc 1 1199 0
 2382 0028 264B     		ldr	r3, .L185+4
 2383 002a 1B78     		ldrb	r3, [r3]
 2384 002c FB74     		strb	r3, [r7, #19]
1200:Generated_Source\PSoC5/CyLib.c ****         pmTwCfg0Tmp = CY_LIB_PM_TW_CFG0_REG;
 2385              		.loc 1 1200 0
 2386 002e 264B     		ldr	r3, .L185+8
 2387 0030 1B78     		ldrb	r3, [r3]
 2388 0032 BB74     		strb	r3, [r7, #18]
1201:Generated_Source\PSoC5/CyLib.c ****         pmTwCfg2Tmp = CY_LIB_PM_TW_CFG2_REG;
 2389              		.loc 1 1201 0
 2390 0034 254B     		ldr	r3, .L185+12
 2391 0036 1B78     		ldrb	r3, [r3]
 2392 0038 7B74     		strb	r3, [r7, #17]
1202:Generated_Source\PSoC5/CyLib.c **** 
1203:Generated_Source\PSoC5/CyLib.c ****         /* Set 250 us interval */
1204:Generated_Source\PSoC5/CyLib.c ****         CyPmFtwSetInterval(CY_CLK_XMHZ_FTW_INTERVAL);
 2393              		.loc 1 1204 0
 2394 003a 1820     		movs	r0, #24
 2395 003c FFF7FEFF 		bl	CyPmFtwSetInterval
1205:Generated_Source\PSoC5/CyLib.c ****         status = CYRET_TIMEOUT;
 2396              		.loc 1 1205 0
 2397 0040 1023     		movs	r3, #16
 2398 0042 7B61     		str	r3, [r7, #20]
1206:Generated_Source\PSoC5/CyLib.c **** 
1207:Generated_Source\PSoC5/CyLib.c **** 
1208:Generated_Source\PSoC5/CyLib.c ****         for( ; timeout > 0u; timeout--)
 2399              		.loc 1 1208 0
 2400 0044 25E0     		b	.L176
 2401              	.L182:
1209:Generated_Source\PSoC5/CyLib.c ****         {
1210:Generated_Source\PSoC5/CyLib.c ****             /* Read XERR bit to clear it */
1211:Generated_Source\PSoC5/CyLib.c ****             (void) CY_CLK_XMHZ_CSR_REG;
 2402              		.loc 1 1211 0
 2403 0046 1E4B     		ldr	r3, .L185
 2404 0048 1B78     		ldrb	r3, [r3]
1212:Generated_Source\PSoC5/CyLib.c **** 
1213:Generated_Source\PSoC5/CyLib.c ****             /* Wait for 1 millisecond - 4 x 250 us */
1214:Generated_Source\PSoC5/CyLib.c ****             for(count = 4u; count > 0u; count--)
 2405              		.loc 1 1214 0
 2406 004a 0423     		movs	r3, #4
 2407 004c FB73     		strb	r3, [r7, #15]
 2408 004e 0EE0     		b	.L177
 2409              	.L179:
1215:Generated_Source\PSoC5/CyLib.c ****             {
1216:Generated_Source\PSoC5/CyLib.c ****                 while(0u == (CY_PM_FTW_INT & CyPmReadStatus(CY_PM_FTW_INT)))
 2410              		.loc 1 1216 0
 2411 0050 00BF     		nop
 2412              	.L178:
 2413              		.loc 1 1216 0 is_stmt 0 discriminator 1
 2414 0052 0120     		movs	r0, #1
 2415 0054 FFF7FEFF 		bl	CyPmReadStatus
 2416 0058 0346     		mov	r3, r0
 2417 005a 03F00103 		and	r3, r3, #1
 2418 005e DBB2     		uxtb	r3, r3
 2419 0060 002B     		cmp	r3, #0
ARM GAS  C:\Users\mattma1\AppData\Local\Temp\ccUnGUsl.s 			page 65


 2420 0062 F6D0     		beq	.L178
1214:Generated_Source\PSoC5/CyLib.c ****             {
 2421              		.loc 1 1214 0 is_stmt 1 discriminator 2
 2422 0064 FB7B     		ldrb	r3, [r7, #15]
 2423 0066 DBB2     		uxtb	r3, r3
 2424 0068 013B     		subs	r3, r3, #1
 2425 006a DBB2     		uxtb	r3, r3
 2426 006c FB73     		strb	r3, [r7, #15]
 2427              	.L177:
1214:Generated_Source\PSoC5/CyLib.c ****             {
 2428              		.loc 1 1214 0 is_stmt 0 discriminator 1
 2429 006e FB7B     		ldrb	r3, [r7, #15]
 2430 0070 DBB2     		uxtb	r3, r3
 2431 0072 002B     		cmp	r3, #0
 2432 0074 ECD1     		bne	.L179
1217:Generated_Source\PSoC5/CyLib.c ****                 {
1218:Generated_Source\PSoC5/CyLib.c ****                     /* Wait for FTW interrupt event */
1219:Generated_Source\PSoC5/CyLib.c ****                 }
1220:Generated_Source\PSoC5/CyLib.c ****             }
1221:Generated_Source\PSoC5/CyLib.c **** 
1222:Generated_Source\PSoC5/CyLib.c **** 
1223:Generated_Source\PSoC5/CyLib.c ****             /*******************************************************************
1224:Generated_Source\PSoC5/CyLib.c ****             * High output indicates an oscillator failure.
1225:Generated_Source\PSoC5/CyLib.c ****             * Only can be used after a start-up interval (1 ms) is completed.
1226:Generated_Source\PSoC5/CyLib.c ****             *******************************************************************/
1227:Generated_Source\PSoC5/CyLib.c ****             if(0u == (CY_CLK_XMHZ_CSR_REG & CY_CLK_XMHZ_CSR_XERR))
 2433              		.loc 1 1227 0 is_stmt 1
 2434 0076 124B     		ldr	r3, .L185
 2435 0078 1B78     		ldrb	r3, [r3]
 2436 007a DBB2     		uxtb	r3, r3
 2437 007c 5BB2     		sxtb	r3, r3
 2438 007e 002B     		cmp	r3, #0
 2439 0080 02DB     		blt	.L180
1228:Generated_Source\PSoC5/CyLib.c ****             {
1229:Generated_Source\PSoC5/CyLib.c ****                 status = CYRET_SUCCESS;
 2440              		.loc 1 1229 0
 2441 0082 0023     		movs	r3, #0
 2442 0084 7B61     		str	r3, [r7, #20]
1230:Generated_Source\PSoC5/CyLib.c ****                 break;
 2443              		.loc 1 1230 0
 2444 0086 08E0     		b	.L181
 2445              	.L180:
1208:Generated_Source\PSoC5/CyLib.c ****         {
 2446              		.loc 1 1208 0
 2447 0088 3B7C     		ldrb	r3, [r7, #16]
 2448 008a DBB2     		uxtb	r3, r3
 2449 008c 013B     		subs	r3, r3, #1
 2450 008e DBB2     		uxtb	r3, r3
 2451 0090 3B74     		strb	r3, [r7, #16]
 2452              	.L176:
1208:Generated_Source\PSoC5/CyLib.c ****         {
 2453              		.loc 1 1208 0 is_stmt 0 discriminator 1
 2454 0092 3B7C     		ldrb	r3, [r7, #16]
 2455 0094 DBB2     		uxtb	r3, r3
 2456 0096 002B     		cmp	r3, #0
 2457 0098 D5D1     		bne	.L182
 2458              	.L181:
ARM GAS  C:\Users\mattma1\AppData\Local\Temp\ccUnGUsl.s 			page 66


1231:Generated_Source\PSoC5/CyLib.c ****             }
1232:Generated_Source\PSoC5/CyLib.c ****         }
1233:Generated_Source\PSoC5/CyLib.c **** 
1234:Generated_Source\PSoC5/CyLib.c **** 
1235:Generated_Source\PSoC5/CyLib.c ****         /* Restore 100 KHz ILO, FTW interval, enable and interrupt enable */
1236:Generated_Source\PSoC5/CyLib.c ****         if(0u == (iloEnableState & CY_LIB_SLOWCLK_ILO_CR0_EN_100KHZ))
 2459              		.loc 1 1236 0 is_stmt 1
 2460 009a FB7C     		ldrb	r3, [r7, #19]	@ zero_extendqisi2
 2461 009c 03F00403 		and	r3, r3, #4
 2462 00a0 002B     		cmp	r3, #0
 2463 00a2 01D1     		bne	.L183
1237:Generated_Source\PSoC5/CyLib.c ****         {
1238:Generated_Source\PSoC5/CyLib.c ****             CyILO_Stop100K();
 2464              		.loc 1 1238 0
 2465 00a4 FFF7FEFF 		bl	CyILO_Stop100K
 2466              	.L183:
1239:Generated_Source\PSoC5/CyLib.c ****         }
1240:Generated_Source\PSoC5/CyLib.c ****         CY_LIB_PM_TW_CFG0_REG = pmTwCfg0Tmp;
 2467              		.loc 1 1240 0
 2468 00a8 074A     		ldr	r2, .L185+8
 2469 00aa BB7C     		ldrb	r3, [r7, #18]
 2470 00ac 1370     		strb	r3, [r2]
1241:Generated_Source\PSoC5/CyLib.c ****         CY_LIB_PM_TW_CFG2_REG = pmTwCfg2Tmp;
 2471              		.loc 1 1241 0
 2472 00ae 074A     		ldr	r2, .L185+12
 2473 00b0 7B7C     		ldrb	r3, [r7, #17]
 2474 00b2 1370     		strb	r3, [r2]
 2475              	.L175:
1242:Generated_Source\PSoC5/CyLib.c ****     }
1243:Generated_Source\PSoC5/CyLib.c **** 
1244:Generated_Source\PSoC5/CyLib.c ****     return(status);
 2476              		.loc 1 1244 0
 2477 00b4 7B69     		ldr	r3, [r7, #20]
1245:Generated_Source\PSoC5/CyLib.c **** }
 2478              		.loc 1 1245 0
 2479 00b6 1846     		mov	r0, r3
 2480 00b8 1837     		adds	r7, r7, #24
 2481              		.cfi_def_cfa_offset 8
 2482 00ba BD46     		mov	sp, r7
 2483              		.cfi_def_cfa_register 13
 2484              		@ sp needed
 2485 00bc 80BD     		pop	{r7, pc}
 2486              	.L186:
 2487 00be 00BF     		.align	2
 2488              	.L185:
 2489 00c0 10420040 		.word	1073758736
 2490 00c4 00430040 		.word	1073758976
 2491 00c8 80430040 		.word	1073759104
 2492 00cc 82430040 		.word	1073759106
 2493              		.cfi_endproc
 2494              	.LFE29:
 2495              		.size	CyXTAL_Start, .-CyXTAL_Start
 2496              		.section	.text.CyXTAL_Stop,"ax",%progbits
 2497              		.align	2
 2498              		.global	CyXTAL_Stop
 2499              		.thumb
 2500              		.thumb_func
ARM GAS  C:\Users\mattma1\AppData\Local\Temp\ccUnGUsl.s 			page 67


 2501              		.type	CyXTAL_Stop, %function
 2502              	CyXTAL_Stop:
 2503              	.LFB30:
1246:Generated_Source\PSoC5/CyLib.c **** 
1247:Generated_Source\PSoC5/CyLib.c **** 
1248:Generated_Source\PSoC5/CyLib.c **** /*******************************************************************************
1249:Generated_Source\PSoC5/CyLib.c **** * Function Name: CyXTAL_Stop
1250:Generated_Source\PSoC5/CyLib.c **** ****************************************************************************//**
1251:Generated_Source\PSoC5/CyLib.c **** *
1252:Generated_Source\PSoC5/CyLib.c **** *  Disables the megahertz crystal oscillator.
1253:Generated_Source\PSoC5/CyLib.c **** *
1254:Generated_Source\PSoC5/CyLib.c **** *******************************************************************************/
1255:Generated_Source\PSoC5/CyLib.c **** void CyXTAL_Stop(void) 
1256:Generated_Source\PSoC5/CyLib.c **** {
 2504              		.loc 1 1256 0
 2505              		.cfi_startproc
 2506              		@ args = 0, pretend = 0, frame = 0
 2507              		@ frame_needed = 1, uses_anonymous_args = 0
 2508              		@ link register save eliminated.
 2509 0000 80B4     		push	{r7}
 2510              		.cfi_def_cfa_offset 4
 2511              		.cfi_offset 7, -4
 2512 0002 00AF     		add	r7, sp, #0
 2513              		.cfi_def_cfa_register 7
1257:Generated_Source\PSoC5/CyLib.c ****     /* Disable oscillator. */
1258:Generated_Source\PSoC5/CyLib.c ****     FASTCLK_XMHZ_CSR &= ((uint8)(~XMHZ_CONTROL_ENABLE));
 2514              		.loc 1 1258 0
 2515 0004 054A     		ldr	r2, .L188
 2516 0006 054B     		ldr	r3, .L188
 2517 0008 1B78     		ldrb	r3, [r3]
 2518 000a DBB2     		uxtb	r3, r3
 2519 000c 23F00103 		bic	r3, r3, #1
 2520 0010 DBB2     		uxtb	r3, r3
 2521 0012 1370     		strb	r3, [r2]
1259:Generated_Source\PSoC5/CyLib.c **** }
 2522              		.loc 1 1259 0
 2523 0014 00BF     		nop
 2524 0016 BD46     		mov	sp, r7
 2525              		.cfi_def_cfa_register 13
 2526              		@ sp needed
 2527 0018 80BC     		pop	{r7}
 2528              		.cfi_restore 7
 2529              		.cfi_def_cfa_offset 0
 2530 001a 7047     		bx	lr
 2531              	.L189:
 2532              		.align	2
 2533              	.L188:
 2534 001c 10420040 		.word	1073758736
 2535              		.cfi_endproc
 2536              	.LFE30:
 2537              		.size	CyXTAL_Stop, .-CyXTAL_Stop
 2538              		.section	.text.CyXTAL_EnableErrStatus,"ax",%progbits
 2539              		.align	2
 2540              		.global	CyXTAL_EnableErrStatus
 2541              		.thumb
 2542              		.thumb_func
 2543              		.type	CyXTAL_EnableErrStatus, %function
ARM GAS  C:\Users\mattma1\AppData\Local\Temp\ccUnGUsl.s 			page 68


 2544              	CyXTAL_EnableErrStatus:
 2545              	.LFB31:
1260:Generated_Source\PSoC5/CyLib.c **** 
1261:Generated_Source\PSoC5/CyLib.c **** 
1262:Generated_Source\PSoC5/CyLib.c **** /*******************************************************************************
1263:Generated_Source\PSoC5/CyLib.c **** * Function Name: CyXTAL_EnableErrStatus
1264:Generated_Source\PSoC5/CyLib.c **** ****************************************************************************//**
1265:Generated_Source\PSoC5/CyLib.c **** *
1266:Generated_Source\PSoC5/CyLib.c **** *  Enables the generation of the XERR status bit for the megahertz crystal.
1267:Generated_Source\PSoC5/CyLib.c **** *  This function is not available for PSoC5.
1268:Generated_Source\PSoC5/CyLib.c **** *
1269:Generated_Source\PSoC5/CyLib.c **** *******************************************************************************/
1270:Generated_Source\PSoC5/CyLib.c **** void CyXTAL_EnableErrStatus(void) 
1271:Generated_Source\PSoC5/CyLib.c **** {
 2546              		.loc 1 1271 0
 2547              		.cfi_startproc
 2548              		@ args = 0, pretend = 0, frame = 0
 2549              		@ frame_needed = 1, uses_anonymous_args = 0
 2550              		@ link register save eliminated.
 2551 0000 80B4     		push	{r7}
 2552              		.cfi_def_cfa_offset 4
 2553              		.cfi_offset 7, -4
 2554 0002 00AF     		add	r7, sp, #0
 2555              		.cfi_def_cfa_register 7
1272:Generated_Source\PSoC5/CyLib.c ****     /* If oscillator has insufficient amplitude, XERR bit will be high. */
1273:Generated_Source\PSoC5/CyLib.c ****     CY_CLK_XMHZ_CSR_REG &= ((uint8)(~CY_CLK_XMHZ_CSR_XFB));
 2556              		.loc 1 1273 0
 2557 0004 054A     		ldr	r2, .L191
 2558 0006 054B     		ldr	r3, .L191
 2559 0008 1B78     		ldrb	r3, [r3]
 2560 000a DBB2     		uxtb	r3, r3
 2561 000c 23F00403 		bic	r3, r3, #4
 2562 0010 DBB2     		uxtb	r3, r3
 2563 0012 1370     		strb	r3, [r2]
1274:Generated_Source\PSoC5/CyLib.c **** }
 2564              		.loc 1 1274 0
 2565 0014 00BF     		nop
 2566 0016 BD46     		mov	sp, r7
 2567              		.cfi_def_cfa_register 13
 2568              		@ sp needed
 2569 0018 80BC     		pop	{r7}
 2570              		.cfi_restore 7
 2571              		.cfi_def_cfa_offset 0
 2572 001a 7047     		bx	lr
 2573              	.L192:
 2574              		.align	2
 2575              	.L191:
 2576 001c 10420040 		.word	1073758736
 2577              		.cfi_endproc
 2578              	.LFE31:
 2579              		.size	CyXTAL_EnableErrStatus, .-CyXTAL_EnableErrStatus
 2580              		.section	.text.CyXTAL_DisableErrStatus,"ax",%progbits
 2581              		.align	2
 2582              		.global	CyXTAL_DisableErrStatus
 2583              		.thumb
 2584              		.thumb_func
 2585              		.type	CyXTAL_DisableErrStatus, %function
ARM GAS  C:\Users\mattma1\AppData\Local\Temp\ccUnGUsl.s 			page 69


 2586              	CyXTAL_DisableErrStatus:
 2587              	.LFB32:
1275:Generated_Source\PSoC5/CyLib.c **** 
1276:Generated_Source\PSoC5/CyLib.c **** 
1277:Generated_Source\PSoC5/CyLib.c **** /*******************************************************************************
1278:Generated_Source\PSoC5/CyLib.c **** * Function Name: CyXTAL_DisableErrStatus
1279:Generated_Source\PSoC5/CyLib.c **** ****************************************************************************//**
